:020000040800F2
:10000000905100247903000887520008974A00089D
:1000100085520008810600086D7800080000000085
:10002000000000000000000000000000DD56000895
:10003000CD0600080000000003540008E95600083F
:100040009703000897030008970300089703000828
:100050009703000897030008970300089703000818
:100060009703000897030008970300089703000808
:1000700097030008970300089703000897030008F8
:1000800097030008970300089703000897030008E8
:1000900097030008970300089703000897030008D8
:1000A00097030008970300089703000897030008C8
:1000B00097030008970300089703000897030008B8
:1000C00097030008970300089703000897030008A8
:1000D0009703000897030008970300089703000898
:1000E000970300089703000800000000970300082A
:1000F0009703000897030008970300089703000878
:100100009703000897030008970300089703000867
:100110009703000897030008970300089703000857
:100120009703000897030008970300089703000847
:100130009703000897030008970300089703000837
:1001400000000000000000000000000000000000AF
:100150009703000897030008970300089703000817
:100160009703000897030008970300089703000807
:100170009703000897030008970300080000000099
:1001800097030008970300089703000897030008E7
:1001900097030008970300089703000897030008D7
:1001A00097030008970300089703000897030008C7
:1001B00097030008970300089703000897030008B7
:1001C00097030008970300089703000897030008A7
:1001D0009703000889520008970300089703000856
:1001E0009703000897030008970300089703000887
:1001F0009703000897030008970300089703000877
:100200009703000897030008970300089703000866
:100210009703000895580008A158000897030008A4
:1002200097030008970300089703000800000000E8
:1002300097030008970300080000000097030008D8
:100240009703000897030008970300089703000826
:100250009703000897030008970300089703000816
:100260009703000897030008970300089703000806
:100270009703000897030008970300080000000098
:100280009703000897030008970300080000000088
:10029000000000009703000800F002F800F05CF88E
:1002A0000AA090E8000C82448344AAF10107DA45D1
:1002B00001D100F051F8AFF2090EBAE80F0013F0C7
:1002C000010F18BFFB1A43F0010318472C770000F9
:1002D0004C7700000A444FF0000C10F8013B13F07B
:1002E000070408BF10F8014B1D1108BF10F8015B8F
:1002F000641E05D010F8016B641E01F8016BF9D182
:1003000013F0080F1EBF10F8014BAD1C0C1B09D1D8
:100310006D1E58BF01F801CBFAD505E014F8016B4A
:1003200001F8016B6D1EF9D59142D6D370470000DC
:100330000023002400250026103A28BF78C1FBD8EE
:10034000520728BF30C148BF0B6070471FB507F088
:1003500045FB1FBD10B510BD00F08EF81146FFF72C
:10036000F5FF07F095FA00F0ACF803B4FFF7F2FFE1
:1003700003BC00F0B3F800000A4880470A488047F1
:100380000A480047FEE7FEE7FEE7FEE7FEE7FEE776
:10039000FEE7FEE7FEE7FEE705480649064A074B8B
:1003A00070470000D50600089D5700089902000814
:1003B0009021002490510024903100249031002499
:1003C00010B5203AC0F00B80B1E81850203AA0E8F0
:1003D0001850B1E81850A0E81850BFF4F5AF5FEA24
:1003E000027C24BFB1E81850A0E8185044BF18C9D7
:1003F00018C0BDE810405FEA827C24BF51F8043B7E
:1004000040F8043B08BF7047D20728BF31F8023BD1
:1004100048BF11F8012B28BF20F8023B48BF00F865
:10042000012B70474FF0000200B5134694469646E4
:10043000203922BFA0E80C50A0E80C50B1F12001F7
:10044000BFF4F7AF090728BFA0E80C5048BF0CC0A5
:100450005DF804EB890028BF40F8042B08BF704703
:1004600048BF20F8022B11F0804F18BF00F8012B75
:100470007047704770477047754600F02BF8AE46DE
:1004800005006946534620F00700854618B020B5A0
:10049000FFF782FFBDE820404FF000064FF0000755
:1004A0004FF000084FF0000B21F00701AC46ACE81C
:1004B000C009ACE8C009ACE8C009ACE8C0098D4689
:1004C000704710B50446AFF300802046BDE81040E9
:1004D000FFF74BBF004870472C210024014918202A
:1004E000ABBEFEE7260002007047000070B53A4937
:1004F00005460068884202D0384A904202D1D1F8BD
:10050000080302E03648D0F8080310F4403F11D049
:1005100003F098FB04466868B0F5803F06D0B0F55C
:10052000003F03D0B0F5403F27D101E0000C18E0B8
:10053000A40822E000214FF4002002F0EDFB044665
:1005400068688103890B18D181140C2915D2DFE862
:1005500001F0140606060606060B0D0F1113800C9B
:100560004000B4FBF0F408E0240906E0640904E06C
:10057000A40902E0E40900E0240A01F025F841F2B0
:100580000301884208D8174884422868816813D834
:1005900021F48071816070BD13496008884204D8DD
:1005A0002868816821F44071F4E71049884206D830
:1005B0002868816821F4407141F48071EAE70C49B0
:1005C00088422868816804D821F4407141F40071A0
:1005D000E0E741F44071DDE70020024000210240E5
:1005E00000600258002D3101105E5F0020BCBE008B
:1005F00040787D012DE9F843204C102700254FF667
:10060000FF780126009521468146C4E90067C4E9C8
:10061000026501F11000424603F0FAFE012000F0ED
:100620002FFE02202146C4E90007C4E9026501F15A
:100630001000424603F0ECFE03214246C4E90017D5
:1006400008202146C4E9020501F1100003F0E0FE94
:100650004FF40870009004214246C4E90260C4E9E6
:100660000017214601F1100003F0D2FE04F1100042
:100670004946BDE8F84303F0B3BE0000440200243D
:10068000FEE7002070470020704700000549002267
:10069000054810B505F0FEFC0449034805F0EDFCE3
:1006A000002010BD281200244C050024280A002434
:1006B0000146044810B505F0E0FC024805F0B6FC20
:1006C000002010BD4C05002400207047704772B612
:1006D000FEE70000054805490839026842F00202B9
:1006E000026008688004FCD5704700000C4802587E
:1006F000F0B5D1E90843CD690A68C2B10268254363
:1007000022F4F84213431D430560D1E90125D1E9E4
:1007100003364C692A434568334389691A43EB0B16
:100720002243DB030A431A4342600020F0BDD1E9B3
:10073000012ED1E9036CD1E9057142EA0E0246EAC5
:100740000C0632433A430A4301682A4322431A43C0
:100750006FF30E010A430260E7E7426943F6FE7356
:100760009A4342EA410141610020704770B591E827
:100770001C00C9686FF01F0506691A4305EB441495
:1007800044EA41210A4306EA45431A430261002034
:1007900070BD00002DE9F04F8B8A6FF00F05264CDD
:1007A0004FF07F4BD1F80C9004EB03536FF0FF0434
:1007B0004FEA042A1AB386684FEA09321F4FA2F59E
:1007C00080521A433E4032438260D1E900278E684E
:1007D000521E05EB07150F8A2A43C56804EB062451
:1007E0000E7E0AEB074322431A430BEB06610A43D2
:1007F00005F070431A43C2600020BDE8F08F91E815
:1008000004110F4E521E0F8A05EB08152A4304EB04
:100810000C2C06EB09350E7E42EA0C022A43856851
:100820000AEB074422431A430BEB06610A4305F027
:1008300070431A438260DFE70000F0FFFF0F0FFFF5
:1008400000F0FFFF2DE9F0470F4690F850109AB0E6
:10085000044601294FF0000915D00026DFF8F88082
:10086000012084F8500015961696216841450ED156
:100870003A4D0095284604F033F98246206804F08A
:100880002FF960B10EE002201AB0BDE8F087606D6C
:1008900084F8506040F0200060650120F4E7BAF170
:1008A000000F09D0616D4FF0010941F02000606533
:1008B000484684F85060E7E720684146884201D006
:1008C000A84201D1264800E0264840F61F72D7F81A
:1008D00000C0254BBCF1000F23D0D0F808C0D7F8DA
:1008E00004802CF4404C4CEA080CC0F808C0D4F842
:1008F00000C08C4501D0AC4507D18968AB6801F0D8
:10090000010103F00103194302E0996801F00101BC
:100910000029CDD1BD6839688368294393431943C1
:1009200017E0876827F44047876027688F4201D027
:10093000AF4207D18968AB6801F0010103F0010300
:10094000194302E0996801F001010029B0D18168E2
:1009500091438160ACE7000000200240002102408A
:100960000023024000630258006002582DE9F84F4E
:1009700004460D460020DFF8A8B30090074694F81F
:100980005010DFF8A0A320680129E74E07D04FF0F0
:10099000010984F8509004F09FF818B171E1022029
:1009A000BDE8F88F286800280EDB21680303CA69B8
:1009B00028D090FAA0F0B0FA80F000BF00F01F033A
:1009C00009FA03F00243CA61D5E900124FF00C0C9A
:1009D00020681F23C1F384610CEA921C02F01F02FD
:1009E000604493409140026B9A430A43026320683B
:1009F00004F072F88046206804F06AF858EA0000B3
:100A000003D08DE0C0F38460D8E72A68042320680F
:100A10004FF0070CA96803EAD25318444369C2F3A4
:100A200004520CFA02FC914023EA0C030B4343618D
:100A3000BE490968B9EB117F06D121686869C968A8
:100A4000C1F38201490008E02068C168C906C16895
:100A50006869F5D501F01001490888402969042921
:100A60002ED023682A6803EB810102F0F8420B6E56
:100A7000024303F0004010430866697E226828693B
:100A8000012917D05FF0000102EB8000026E22F016
:100A900000420A430266297E20682A6901290CD097
:100AA0000021036902F01F02914023F4F0420A433F
:100AB000026135E04FF00041E6E74FF40061F0E7F6
:100AC00020682978026E02F0F842B2EB816F03D100
:100AD000016E21F00041016620682978426E02F023
:100AE000F842B2EB816F03D1416E21F000414166C3
:100AF00020682978826E02F0F842B2EB816F03D150
:100B0000816E21F00041816620682978C26E02F072
:100B1000F842B2EB816F03D1C16E21F00041C16692
:100B20002068816811F0010F72D150F8C02F2B7B23
:100B3000DFF8FCC1296803F018032CFA03FCC1F3A9
:100B4000130822EA08020CEA010C42EA0C020260D5
:100B5000E96859456CD177482268DFF8DCC1DFF8D5
:100B6000DCB18242DFF8D8E17648774BDFF8DC81F0
:100B700022D12968614524D0B1EB4C0C38D0A1F1C9
:100B8000496CBCF1080C35D0A1F1865CBCF1100CAD
:100B900032D0DFF8BCC1614528D071453AD08142DE
:100BA00030D0994232D06B48814201D16A4831E05D
:100BB00041452ED169482DE0B2422AD129686145CC
:100BC00001D1012026E0A1F1066CBCF1040C0FD08C
:100BD000A1F1496CBCF1080C0CD0A1F1865CBCF110
:100BE000100C09D0DFF868C1614507D15C4811E0FD
:100BF00058460FE05B480DE05B480BE0714509D0BB
:100C0000814201D1184605E09942D1D1574801E00F
:100C10003CE00020D16903031AD090FAA0F0B0FAAA
:100C200080F000BF00F01F0309FA03F00143D16117
:100C3000D5F800C0BCF1000F28DA3E4B20684C49C3
:100C4000DFF83091984201D0B04203D10A4602E069
:100C5000800EE7E74A469268984202F0E07201D0BF
:100C6000B04209D19D68D6F8088005F0010508F06A
:100C7000010845EA080503E0DAF8085005F0010527
:100C80004DB1606D012740F020006065002084F8C0
:100C90005000384684E6384DAC451CD115021AD4B4
:100CA0005045F3D1984202D0B04200D049468B68FB
:100CB00042F4000023F0E07202438A6030492F487A
:100CC0000968B1FBF0F04000801C00E0401E00907D
:100CD0000028FBD1DAE72B4DAC450CD1D5010AD465
:100CE0005045D3D1984202D0B04200D049468B68DB
:100CF00042F080700EE0244DAC45C7D15502C5D4FA
:100D00005045C3D1984202D0B04200D049468B68CA
:100D100042F4800023F0E07202438A60B6E70000EC
:100D20000000FF4700600258002102400010005CF4
:100D3000FFFF0F0000200240020030044000201995
:100D40000004002A0008302E001060320000844B9E
:100D50002000F01400002143000052470000B84F6B
:100D60000002B0258000501D000180210020903637
:100D70000023024000630258000084CB400D0300B2
:100D800054000024000052C70000B8CFF8B54FF05F
:100D9000000604003546009602D0606D10B107E0F1
:100DA0000120F8BD204600F005F9A66584F85060E2
:100DB00020688168C1F3407119B18168704A11409F
:100DC000816020688168C1F3007181B981686D4AD2
:100DD000114041F0805181606C496B480968B1FB5A
:100DE000F0F0401C00E0401E00900028FBD120687D
:100DF0008168C1F3007141B9616D012541F01001B5
:100E00006165A16D41F00101A16503F065FE616DB1
:100E1000C90600D420B1606D012540F0100093E0B8
:100E2000606D20F4807040F0020060652068816889
:100E300011F0010F1FD1564A564B904201D09842F3
:100E400007D191689E6801F0010106F00106314367
:100E500003E05149896801F0010161B9904201D074
:100E6000984201D14D4800E04D488268616822F403
:100E70007C120A43826000F0A7FB41F20301884222
:100E800002D9A06810280CD0617D227FA368206B56
:100E9000490341EA024118430843217F01290CD04C
:100EA00010E0607D227F216B400340EA024241F066
:100EB0001000104340F00C00EFE7218C394A02EBA0
:100EC00041410843616A29B1A26A01F47871014382
:100ED00042EA01002168344BCA681A400243CA60E2
:100EE000206803F0F9FD0646206803F0F1FD304369
:100EF0001DD1216844F20303267DE26AC86842EAF4
:100F0000863298431043C86094F8380001281ED0F8
:100F10002068016921F0010101612068626B0169AB
:100F200021F07041114301612046FFF7DFFAE068CC
:100F3000012820681CD0016B21F00F010163606D56
:100F400020F0020040F0010060652846F8BD2068EE
:100F5000A28F164FD4E9101C154E07EB0247A36C65
:100F6000026941EA0C013B43324019431143D3E784
:100F7000A269016B521E21F00F011143DEE7000050
:100F8000C0FFFF5FC0FFFF7F400D0300540000243F
:100F9000002002400021024000600258002302406D
:100FA000006302580000FEFF03C0F0FF0100FFFFD6
:100FB0001EF800FC10B586B0044614216846FFF701
:100FC00031FA1149206888421BD11048016841F06C
:100FD00020010160006800F0200005900B480830F7
:100FE000016841F00101016000680321002200F066
:100FF0000100059001208DE807000548694600F0D2
:10100000BBF906B010BD000000200240D8440258D1
:1010100000000258F0B50446C8074FF0000010D099
:101020001E23012603F01F0706FA07F50D4201D122
:101030005B1EF7D27AB1082A0BD0102A06D0182AE4
:1010400001D00120F0BD072BFBD204E0082BF8D221
:1010500001E0102BF5D22368596121688B6823F0D9
:10106000180313438B60F0BD10B5040010D0607FEF
:1010700020B900202077204600F032F821790220A4
:10108000607739B1D4E902122046FFF7C3FF48B1B7
:10109000012010BD2168114848612068816821F055
:1010A000180181606079A0B121682069086101227E
:1010B00020686369816821F06001194381602068BC
:1010C000A369816821F08001194381606277002063
:1010D00010BD21684FF0FF30E8E70000B71DC104E4
:1010E00008B500680649884208D10648016841F4FD
:1010F00000210160006800F40020009008BD00009D
:10110000004C0258E0440258F0B590F86020012AE3
:1011100022D0C1EBC102012780F86070022380F861
:10112000613000EB8202284D138F168EB2F83CC05E
:10113000D46A1B05283244EA064643EA4C530A2C7B
:1011400046EA03060AD0092C08D0137B46EA03635B
:1011500049B10B2C1AD01DE00220F0BDD36803F07A
:101160007F433343F4E701684C6AAC431C434C6251
:10117000016813688B6151680A2901D009291BD1C4
:10118000D168026821F07F41916215E0118B0F4D0B
:1011900043EA81430168CC69AC431C43CC610168DC
:1011A00013680B6151680A2901D0092904D1D1685B
:1011B000026821F07F411162002180F8617080F89F
:1011C00060100846F0BD00000F0033FF0F003FFF26
:1011D0002DE9F041040004D094F86100002518B115
:1011E00007E00120BDE8F081204684F8605000F05F
:1011F00033F8184E022084F861000123D4E900106E
:10120000D4F81CC040F207120F6840EA0C003740C7
:10121000384308602068A769A168466B3943964344
:10122000314341632068E268016C6FF30F011143A1
:1012300001642068218AA28A466B090541EA42516D
:1012400026F4401211434163656684F86130002042
:10125000C8E70000BFFFF8FF08B5006806498842EC
:1012600008D10648016841F010010160006800F0F3
:101270001000009008BD000000100052D444025835
:1012800070B5044600F0A6F90546601C02D004487B
:101290000078044400F09EF9401BA042FAD370BDD0
:1012A00048000024F0B5B7B0142130A8FFF7BAF811
:1012B0002948016900294DD101240461C0216846F3
:1012C000FFF7B0F8002012942106CDE9001068461F
:1012D00001F086FE08B1FFF7FAF92048016841F4F1
:1012E00080510160006830A9022400F480503590DC
:1012F000002540F2FF6003260C2781E8F100184822
:1013000000F03AF830A94FF63F0081E8F1001548A7
:1013100000F032F830A94FF62C7081E8F100124845
:1013200000F02AF830A948F2331081E8F1000F48A4
:1013300000F022F830A94FF6837081E8F1000C48E4
:1013400000F01AF830A94CF2037081E8F100094866
:1013500000F012F837B0F0BD00000024D444025869
:101360000020025800140258001C025800180258AD
:1013700000100258000C02582DE9F84F03247F4D4D
:1013800000234FF001094FF0B04B4FF00F0AEDE092
:1013900009FA03F632407AD00F7907F00307012FDC
:1013A00001D0022F19D187684FEA430ED1F80CC043
:1013B00004FA0EF827EA08070CFA0EFC4CEA070CB0
:1013C000C0F808C0D0F804C00F792CEA060CC7F3A7
:1013D00000179F4047EA0C0747600E79F643B607AF
:1013E00002D18E68012E0BD0C6684FEA43088F6881
:1013F00004FA08FC26EA0C0607FA08F73743C76028
:101400000E7906F00306022E12D1DE080F694FEAAC
:10141000437C00EB8606B646366A4FEADC6C0AFA75
:101420000CF807FA0CF726EA08063743CEF82070C6
:101430000F7906684FEA430807F0030704FA08FC2F
:1014400007FA08F726EA0C06374307604E6816F4D9
:10145000403F1CD04A4E376847F002073760366875
:101460009F0706F00206009623F0030606F1B04639
:10147000B6463F0FD6F80864DFF808810AFA07FC81
:10148000404526EA0C0603D14FF0000C41E06CE029
:10149000DFF8F4C0604502D14FF0010C39E0DFF80D
:1014A000ECC0604502D14FF0020C32E0DFF8E0C042
:1014B000604502D14FF0030C2BE0DFF8D8C0604547
:1014C00002D14FF0040C24E0DFF8CCC0604502D11B
:1014D0004FF0050C1DE0DFF8C4C0604502D14FF0AD
:1014E000060C16E0DFF8B8C0604502D14FF0070CDB
:1014F0000FE0DFF8B0C0604502D14FF0080C08E003
:10150000DFF8A4C0604502D14FF0090C01E04FF0B4
:101510000A0C0CFA07FC4CEA060CCEF808C44F681B
:10152000DBF80060FF0226EA020600D516435F469C
:10153000CBF80060D1F804C0DBF804605FEA8C2CC3
:1015400026EA020600D516437E606E684F6826EADA
:101550000206BF0300D516436E602E684F6826EA68
:101560000206FF0300D516432E605B1C0A6832FAA0
:1015700003F67FF40DAFBDE8F88F0000800000583F
:10158000F4440258000002580004025800080258AF
:10159000000C02580010025800140258001802589B
:1015A000001C02580020025800240258426921EA17
:1015B00002030A4043EA0241816170470AB1816136
:1015C00070470904FBE7000001480068000C704701
:1015D0000010005C0148806870470000480000244B
:1015E0002DE9F041040004D094F84D00002518B115
:1015F00007E00120BDE8F08184F84C50204600F05F
:10160000A7F8022084F84D0020680168C90703D0BC
:10161000016821F001010160206805656068042807
:1016200003D0062801D00A284DD16069022833D0A2
:10163000E06808B1022700E00127A068302824D024
:10164000B02822D05FF0000600214FF4805001F056
:1016500063FB2169B1F1007F19D02021D4F8142057
:10166000F1407943B0FBF1F00A2100EB800040002B
:10167000B0FBF2F0401DB0FBF1F000F00101401AA8
:1016800001294FEA50000AD00BE00126DCE74FF4B5
:1016900080716269F140E5E7022000210AE001283B
:1016A00001D0FF2804D9206D40F010002065A0E78C
:1016B00000B9012122680004234B40EA0160116D4A
:1016C000194008431065A76902CC94E80910184333
:1016D000D4E90723E6684CEA070C1C4F40EA0C00EB
:1016E000D1F850E01043184340F6F87C30430EEA3E
:1016F000070E40EA0E0040F00100086554F8040CA3
:10170000C0F818C054F8040D016821F4803101605C
:101710002068E269C16821F400011143C16060687A
:10172000042803D0062801D00A2806D12068A26A1E
:10173000C16821F000411143C1600120256584F892
:101740004D00002056E70000FFFF00FE4090FFFD27
:1017500070B5B6B00446142130A8FEF763FEC02170
:101760006846FEF75FFE2149206888423CD181141B
:10177000002018900446CDE90010684601F030FCC6
:1017800008B1FEF7A4FF1A48016841F480410160E6
:10179000006800F48040359015480838016841F031
:1017A00004010160016801F004013591016841F014
:1017B00002010160006802253095052600F0020054
:1017C000CDE9315430A93394CDE934600948FFF7AD
:1017D000D3FD4FF440503090CDE93154064830A944
:1017E000CDE93346FFF7C8FD36B070BD0038004084
:1017F000E844025800080258000402580248816870
:10180000027811448160704748000024032010B51D
:1018100000F012FA02F05CFA0F4A104914681368DB
:10182000C4F3032203F00F038A5CC95C02F01F02B9
:1018300001F01F01D0400A4A20FA01F11160094964
:1018400008600F2000F010F808B1012010BD00F072
:10185000B7F9002010BD000018440258E6790008CE
:10186000580000245400002410B5102804468AB003
:101870002AD200220146752000F0BEF9752000F042
:10188000ADF9154804601548016841F40031016064
:10189000006808A900F400300990684602F0A4F935
:1018A00002F004FA0E49400000220E4CB0FBF1F1A8
:1018B0000D4840F2E7330460C0E90332491EC0E935
:1018C000011202F069FE10B101200AB010BD0648F5
:1018D00002F0C0FEF9E700004C000024F04402587A
:1018E00040420F0000440140000500242DE9F04172
:1018F000044690F8A00016460F4601281DD0012589
:1019000084F8A050022084F8A10006EB860000EBCA
:10191000C600342204EB80003830FEF751FD324619
:101920003946204603F0E0F8216800204D6284F833
:10193000A15084F8A000BDE8F0810220FBE72DE96A
:10194000F041040004D094F8A100002518B107E08C
:101950000120BDE8F081204684F8A05000F050F846
:10196000022084F8A10020680123816921F07041E0
:101970008161D4E90010D4E9027226693843324308
:101980008E691043304388612268A08AA16941EAC8
:10199000004191602268A08B216A41EA0041D16038
:1019A0002268A08CA16A41EA004111612268A08DE1
:1019B000216B41EA00415161226894F8351094F896
:1019C0003600D66A000406F07F46D662226840EAF6
:1019D000012094F83460D16A31430143D162206818
:1019E000416B41F0060141632068816941F00101CA
:1019F0008161C4F8A45084F8A1300020A9E7000058
:101A00002DE9F04186B0044614216846FEF70AFD30
:101A10006149206888427DD16048016841F0080131
:101A20000160006800F0080005905C48001F016834
:101A300041F480710160016801F4807105910168D1
:101A400041F020010160016801F020010591016869
:101A500041F004010160016801F004010591016891
:101A600041F080010160016801F080010591016889
:101A700041F001010160016801F001010591016877
:101A800041F002010160016801F002010591016865
:101A900041F040010160016801F0400105910168D9
:101AA00041F008010160006802250024694600F049
:101AB000080005900927A8020090CDE90154384894
:101AC000CDE90347FFF758FC0E26694668020090EF
:101AD000CDE901543348CDE90346FFF74DFC4120E1
:101AE0000090CDE9015430486946CDE90346FFF73F
:101AF00043FC10200090CDE901542C486946CDE903
:101B00000347FFF739FC4FF4BC700090CDE9015456
:101B1000694600E03CE02648CDE90346FFF72CFC8F
:101B200001200090DFF88C806946CDE90154CDE9B1
:101B300003474046FFF720FCF0010090CDE9015437
:101B4000CDE9034669464046FFF716FC4FF40C60AA
:101B50000090DFF864806946CDE90154CDE9034681
:101B60004046FFF709FC08200090CDE901541348D6
:101B70006946CDE90346FFF7FFFB4FF4A050009004
:101B8000CDE90154CDE9034769464046FFF7F4FB30
:101B900006B0BDE8F081000000100050E444025897
:101BA000002002580014025800080258001C025875
:101BB000000002580004025800180258000C025895
:101BC000054808B5016841F002010160006800F0B5
:101BD0000200009008BD0000F4440258002809DB10
:101BE000410900F01F028900012001F1E02190402D
:101BF000C1F80001704700000E4BF0B41B680D46A1
:101C0000C3F30223C3F10706042E00D90426191DCD
:101C1000072901D2002300E0DB1E012404FA06F1AB
:101C20009C40491E2940641E994014402143F0BC49
:101C300005F01DBE0CED00E0064900F0070210B5EE
:101C40004FF6FF040868044B204040EA0220184386
:101C5000086010BD0CED00E00000FA0501680123EA
:101C6000C0F8D834002280F8CC248869044A40F0B7
:101C700000608861486D104348650020704700008F
:101C80000300001070470068416200207047F0B503
:101C900003685D6A39B19F6A4C1E00204FF482765A
:101CA00005EB17450BE045EA0240986210E0471C3F
:101CB00006EB800053F800C0F8B205EB1C45A042CB
:101CC000F5D34FF4807000EB810045EA02421A50D0
:101CD0000020F0BDD0F8E00404F0D0BC01EBC1025C
:101CE00000EB8202D0F8E004126A04F020BC01EBA1
:101CF000C10200EB8202D0F8E004D2F8602204F0C6
:101D000072BCD0F8E00404F0BBBC0A0601F00F017D
:101D100001EBC10100EB810101D5143101E001F5B6
:101D20001571006805F0B6BB01F00F020B0670B527
:101D300002EBC20104464FF001004FF0000504EB36
:101D4000810102D54875143103E081F8555201F53F
:101D500015710A7094F89424012A08D084F8940428
:101D6000206805F0B5F8002084F8945470BD022076
:101D700070BD70B50279044601F00F00904201D9A0
:101D8000012070BD01F00F024FF000050B0602EBC1
:101D9000C2014FF0010204EB810102D54A751431F2
:101DA00003E081F8555201F515718D70087094F8B3
:101DB0009404012808D084F89424206805F0F2F9EE
:101DC000002084F8945470BD022070BD01F00F0112
:101DD00001EBC10100EB8100D0F8680270472DE9EA
:101DE000F04101F00F0604460D064FF0010006EB2E
:101DF000C6014FF0000504EB810102D5487514318E
:101E000003E081F8555201F51571C2F30A024F78CB
:101E10000B718A600E7007B14E83022B00D14D7199
:101E200094F89424012A09D084F89404206804F0DA
:101E30008DFF284684F89454BDE8F0810220FBE72A
:101E400070B501F00F05002405EBC50100EB810121
:101E500001F5187181E81C0001F80B4C01F80C5DCC
:101E60008379012B00D1CA618279006805F0F2F90B
:101E7000002070BD70B50D460179044605F00F00D5
:101E8000884201D9012070BD29064FF000064FF0AD
:101E9000010206D500EBC00104EB81014A75143143
:101EA00007E005EBC50104EB810181F8556201F5FE
:101EB00015718A70087094F89404012807D084F88A
:101EC0009424206805F09AF9280702D007E0022040
:101ED00070BDA17904F29C42206805F037F900201A
:101EE00084F8946470BD70B501F00F04002504EB14
:101EF000C401012600EB8101203181E82C0001F8AA
:101F00000B6C01F80C4D8379012B00D1CA618279E9
:101F1000006805F09FF9002070BD00002DE9FC5F0E
:101F200005680446284605F089FB00287ED1206814
:101F300005F0B0FB002879D0D5F80808C0F30D20D3
:101F4000C4F8D404206805F0A5FB800704D52068F8
:101F5000416901F002014161206805F09BFBC10667
:101F600004F29C40009035D52068816921F0100171
:101F700081612F6A07F00F00C7F3434100EBC000F7
:101F8000022904EB800606F5157602D0062912D048
:101F90001BE047F6F070074217D0C7F30A12F1684A
:101FA0001746284605F07AFB7169F068394471617B
:101FB0003844F06009E000990822284605F06EFBDD
:101FC0007069C7F30A11084470612068816941F0A3
:101FD00010018161206805F05DFB00034FF0080BE4
:101FE0004FF0000A4FF001097CD52068002605F06B
:101FF00030FB074674E0F80770D02068F1B205F0B6
:1020000041FB8046C00707D005EB4611C1F8089B8D
:102010003146204603F03EF95FEA087024D505EB0F
:102020004611C1F808BBFE49206800E048E2026C96
:1020300000EB461001928A42D0F8081B05D909042A
:1020400003D54FF40041C0F8081B204600F017FBF1
:10205000F3480199814207D9A079012804D1206869
:102060000121009A05F072F85FEAC86004D505EB1B
:1020700046111020C1F8080B5FEA88701DD5686909
:10208000000605D5D5F8040840F48061C5F80418A9
:1020900006EBC60004EB800090F8571200F51570AF
:1020A000012905D180F803A02046F1B200F00EFA14
:1020B00005EB46110220C1F8080B5FEA886004D5E1
:1020C00005EB46112020C1F8080B5FEA884005D5D2
:1020D00005EB46114FF40050C1F8080B7F08761C41
:1020E000002F88D1206805F0D5FA40036ED520680E
:1020F00005F0A8FA0026074666E0F80762D02068D7
:10210000F1B205F0ADFA8046C00723D0D5F83428E7
:1021100006F00F0C05EB461309FA0CF08243C5F8E4
:102120003428C3F80899A07901280FD106EBC6001E
:1021300004EB8000D0E907211144016236B9606ADE
:1021400020B920680121009A05F000F82046F1B27C
:10215000FFF7C4FD5FEA087003D505EB4611C1F82F
:1021600008B95FEAC86004D505EB46111020C1F834
:1021700008095FEA486004D505EB46114020C1F824
:1021800008095FEA887016D53146284605F02BFA13
:1021900006EBC60004EB8000C17D1430012905D197
:1021A00080F803A02046F1B200F08CF905EB46114F
:1021B0000220C1F808095FEA086003D531462046CD
:1021C00003F0CEF87F08761C002F96D1206805F02A
:1021D00061FA002811DAD5F8040820F00101C5F8E9
:1021E000041894F8CC0401283BD0204600F02CFAC7
:1021F0002068416901F000414161206805F04AFA18
:1022000000050BD5D5F80808C00702D0204600F01D
:102210005FFA2068416901F400614161206805F0BE
:1022200039FA00010AD52068416901F00061416175
:1022300094F8CC04E0B1204600F04AFA206805F09A
:1022400029FAC00473D5D5F8040820F00101C5F8B7
:1022500004182068102105F0C6F900214FF67F32DE
:102260002DE00021204684F8CCA4FFF70BFDBFE74A
:1022700084F8CC942068406D0121C0F38300C4F839
:10228000D0042046FFF7FEFCD8E700BF05EB411065
:10229000C0F80829D0F8003923F40013C0F8003939
:1022A000C0F8082BD0F8003B23F40013C0F8003B23
:1022B000D0F8003B43F00063C0F8003B491C207994
:1022C0008842E3D8D5F81C08294640F00110C5F82B
:1022D0001C08E07B68B1D1F8840840F00B01C5F818
:1022E0008418D5F8440840F00B012846C5F8441876
:1022F0000DE0D5F8140842F22B010843C5F8140884
:10230000D5F8100840F00B012846C5F81018D0F891
:10231000000820F4FE61C5F80018A1792068009A31
:1023200004F014FF2068416901F480514161206884
:1023300005F0B0F9800415D5206804F047FD206849
:1023400005F06FF9E07101F07DFCE279014620684B
:1023500005F004FA204600F061F92068416901F4B3
:1023600000514161206805F095F9000707D5204626
:1023700000F06EF92068416901F0080141612068B0
:1023800005F088F900061FD5A969012021F0800118
:10239000A96116E000EBC00104EB810191F857122E
:1023A00001290DD105EB4011D1F8002B42F000625C
:1023B000C1F8002BD1F8002B42F08042C1F8002B6D
:1023C000401C21798142E5D8206805F063F9C002FC
:1023D0001FD501264F4614E006EBC60105EB46105B
:1023E00004EB8102D0F80009117E012908D10028F0
:1023F00006DAF0B2D77540F080012046FFF785FC81
:10240000761C2079B042E7D82068416901F4801138
:102410004161206805F03EF9800234D5012001E0D9
:102420000A30544F4A4626E000EBC00305EB40114A
:1024300004EB8306D1F8001B96F85832012B19D112
:10244000002917DA94F8D434C1F3004103F00103F2
:102450008B420FD186F85722A96941F08003AB6106
:102460006969090606D4D5F8040840F40070C5F877
:10247000040803E0401C21798142D5D821684869CD
:1024800000F400104861206805F004F9400007D509
:102490002046FFF71FFC2068416901F0804141613F
:1024A000206805F0F7F840070AD5206845686807F6
:1024B00002D52046FFF725FC20684168294341608A
:1024C000BDE8FC9FD0F8E00404F02FB9D0F8E00498
:1024D00004F03FB9F8B5040004D094F89504002541
:1024E00010B106E00120F8BD204684F8945400F0B5
:1024F00057F8032084F89504206804F021FE207C1E
:102500008DF8000094E80F0004F06EFC0226B0BBCA
:102510002068002105F0E2F888BB002001270CE0CC
:1025200000EBC001421C04EB81014F750D76CD61BB
:102530000D624D620875C885D0B221798142EFD80D
:10254000002011E000EBC001421C04EB810181F886
:10255000555281F85852C1F85C52C1F86052C1F826
:10256000645281F85402D0B221798142EAD8207CA9
:102570008DF8000094E80F0004F02CFD10B184F8F1
:102580009564AFE7207B657484F89574012802D1C7
:102590002046FFF763FB206804F00EFD0020F8BD25
:1025A00010B586B0044614216846FDF73BFF184974
:1025B000206888422AD100F0CDF81648016841F021
:1025C0000101016000680A23022200F00100059069
:1025D00000204FF4C05100916946CDE90120CDE9BA
:1025E00003030D48FEF7C8FE0A480838016841F0A9
:1025F0000061016000680022114600F00060059053
:102600006520FFF7F9FA6520FFF7E8FA06B010BD7C
:1026100000000840E04402580000025870B504462B
:10262000C079012570B1022801D0FEF750F8D4F826
:10263000E004294604F0FDF8D4F8E004BDE8704059
:1026400004F0B0B80025F2E7D0F8E00404F0DAB8FE
:10265000D0F8E00404F0E0B810B5044690F8940413
:1026600001280AD00120617484F89404206805F0E0
:1026700064F8002084F8940410BD022010BDD0F846
:10268000E02400F29C41104604F0DFB810B590F849
:10269000941404460068012909D0012184F8941497
:1026A000C168490609D5617B012902D005E00220F5
:1026B00010BD816B41F480318163206804F071FFAB
:1026C000206804F06BFC002084F8940410BD000026
:1026D00010B50446D0F8E00404F0F9F82068D0F80A
:1026E000001E41F00101C0F8001EE07A002804D06D
:1026F0000248016841F00601016010BD10ED00E0E4
:10270000134970B50A68D243520705D5096801F02C
:102710000701814213D118E00A6822F00702024340
:102720000A60FEF757FF0A4D4FF47A760446083DDB
:1027300007E000BFFEF74EFF001BB04201D90120A9
:1027400070BD2868C0438004F4D4002070BD000030
:102750000C4802580248016841F0807101607047DE
:102760000C480258F8B50446FEF734FF05461CB184
:1027700094F8410010B107E00120F8BD204600F0B8
:1027800047F841F28830A06420686FF0FF02A1682A
:10279000036802EB012223F4F85111430160A06C9D
:1027A000002220212B460090204602F053FE0028F4
:1027B000E3D12268D4E907352679E168176845EA4C
:1027C0000665DFF844C01943104B29430025012654
:1027D00007EA0C07394311602268D4E90517B4F8F9
:1027E00010C0D2F804E039430EEA030E4EEA0C435F
:1027F0001943516021680A6842F001020A60656469
:1028000084F84160F8BD00002FFFFF00FEF8E0FFF4
:102810002DE9F047B6B00446142130A8FDF702FEBA
:10282000C0216846FDF7FEFD3949206888426BD11A
:1028300000204FF0007110221392CDE9001068467D
:1028400000F0CEFB08B1FDF742FF3248016841F4C9
:1028500080410160006800F4804035902D480C30C4
:10286000016841F010010160016801F0100135912B
:10287000016841F020010160016801F020013591FB
:10288000016841F0020101600068002404273097CC
:10289000022500F00200CDE9315409263394CDE938
:1028A00034601D4830A9FEF767FDDFF870A04FF0D7
:1028B0004008CDF8C08030A9CDE93154CDE9334688
:1028C0005046FEF759FD4FF440704FF00A09309022
:1028D00030A9CDE93154CDE933495046FEF74CFDDE
:1028E000309730A9CDE93154CDE933460C4E30460E
:1028F000FEF742FDCDF8C08030A9CDE93154CDE9D5
:1029000033493046FEF738FD36B0BDE8F0870000A9
:1029100000500052D44402580010025800140258CB
:102920000004025810B501F08DF905490968054AFF
:10293000C1F30211515C01F01F01C84010BD00003D
:1029400020440258E67900084A4930B5494C0B1D2D
:102950000A680C3409681D68246802F0030305F056
:102960000102C1F30511C4F3CC04002914FB02F2E7
:1029700000EE102AF8EE400A76D0414A9FED3E1A4A
:10298000DFED3E1AB7EE000A23B1012B5AD0022B1D
:1029900018D15CE0374C283C23689B0612D5394B94
:1029A000246801EE901A1168C4F3C104F8EE612A9C
:1029B000E34001EE903AC1F30801F8EE611A81EEAE
:1029C000A22A07E002EE101A1168F8EE422A81EE00
:1029D000A22A45E001EE901A1168F8EE611A40EE65
:1029E000811A71EE800A62EE200AC1F3462101EEDF
:1029F000101AB8EE411A31EE001AC0EE811ABCEE80
:102A0000E11A80ED001A1168C1F3064101EE101AB7
:102A1000B8EE411A31EE001AC0EE811ABCEEE11A8E
:102A200080ED011A1168C1F3066101EE101AB8EECB
:102A3000411A31EE000A80EE801ABCEEC10A80ED28
:102A4000020A30BD01EE901ADFED0F2A03E001EE1D
:102A5000901ADFED0E2A1168F8EE611A82EEA12AB3
:102A6000C1F30801B6E7FFE7002101604160816022
:102A700030BD000028440258000000390024744C86
:102A8000304402580090D0030024744A20BCBE4B4E
:102A9000494930B5484C0B1D0A68143409681D6853
:102AA000246802F00303C5F30012C1F30531C4F337
:102AB000CC04002914FB02F200EE102AF8EE400AC2
:102AC00075D03F4A9FED3D1AB7EE000A6BB1DFEDBE
:102AD0003D1A012B01D0022B64D002EE101A1168AE
:102AE000F8EE422A81EEA22A21E0334C283C2368EA
:102AF0009B0612D5344B246801EE901A1168C4F37A
:102B0000C104F8EE612AE34001EE903AC1F30801F6
:102B1000F8EE611A81EEA22A0BE001EE901ADFEDC9
:102B20002B2A00BFF8EE611A116882EEA12AC1F3C8
:102B3000080101EE901A1168F8EE611A40EE811A50
:102B400071EE800A62EE200AC1F3462101EE101AEE
:102B5000B8EE411A31EE001AC0EE811ABCEEE11A4D
:102B600080ED001A1168C1F3064101EE101AB8EEAB
:102B7000411A31EE001AC0EE811ABCEEE11A80ED66
:102B8000011A1168C1F3066101EE101AB8EE411A7C
:102B900031EE000A80EE801ABCEEC10A80ED020A16
:102BA00030BD04E001EE901ADFED092ABAE70021FA
:102BB000016041608160F3E7284402580000003959
:102BC000384402580024744A0090D0030024744C06
:102BD00020BCBE4B494930B5484C0B1D0A681C341B
:102BE00009681D68246802F00303C5F30022C1F3DD
:102BF0000551C4F3CC04002914FB02F200EE102AA4
:102C0000F8EE400A75D03F4A9FED3D1AB7EE000A34
:102C10006BB1DFED3D1A012B01D0022B64D002EE27
:102C2000101A1168F8EE422A81EEA22A21E0334CF4
:102C3000283C23689B0612D5344B246801EE901A79
:102C40001168C4F3C104F8EE612AE34001EE903A42
:102C5000C1F30801F8EE611A81EEA22A0BE001EE41
:102C6000901ADFED2B2A00BFF8EE611A116882EE90
:102C7000A12AC1F3080101EE901A1168F8EE611A59
:102C800040EE811A71EE800A62EE200AC1F34621FD
:102C900001EE101AB8EE411A31EE001AC0EE811A98
:102CA000BCEEE11A80ED001A1168C1F3064101EE95
:102CB000101AB8EE411A31EE001AC0EE811ABCEEBD
:102CC000E11A80ED011A1168C1F3066101EE101AD4
:102CD000B8EE411A31EE000A80EE801ABCEEC10A4D
:102CE00080ED020A30BD04E001EE901ADFED092A02
:102CF000BAE70021016041608160F3E7284402588F
:102D000000000039404402580024744A0090D00367
:102D10000024744C20BCBE4B2DE9F04FAC4A054654
:102D2000DFF8A8A280F48070DFF8AC9289B01311AC
:102D3000AA4C0843A748AAF104064FF0805C4FF064
:102D400000582CD085F400770F4357D0DFF87CB2C1
:102D500085F480670F430BF1080B61D085F40067A1
:102D60000F4374D085F480570F436ED085F400571D
:102D70000F434FF480394FF4003E67D085F40027AD
:102D80000F4371D085F480370F436ED085F48046B1
:102D90000E436BD085F400420A4368D02AE0DAF88B
:102DA000001001F00701052924D2DFE801F075BC0D
:102DB0007D25B10006A8FFF7C7FD079809B0BDE85B
:102DC000F08F6846FFF764FE0098F7E703A8FFF767
:102DD00001FF0398F2E72068C0F3C10022FA00F077
:102DE000ECE72268D20571D561456FD11846E5E759
:102DF0004145E3D00020E1E74846DFE7DAF800107C
:102E000001F4E07180294FD004DC002944D040292E
:102E1000F0D188E0C029EFD0B1F5807FEAD177E02A
:102E2000DBF8001001F46001B1F5800F3CD004DC48
:102E300091B3B1F5001FDDD175E0B1F5C00FDBD066
:102E4000B1F5000FD6D163E001E018E030E0DBF827
:102E5000001001F0E061B1F1007F25D008DCD9B1AC
:102E6000B1F1807FC6D15EE049E06CE079E09CE0A2
:102E7000B1F1407FC0D0B1F1806FBBD148E0DAF84A
:102E8000001001F4E041B1F5005F0DD005DC19B18F
:102E9000B1F5805FAED146E094E0B1F5405FABD0D4
:102EA000B1F5804FA6D133E020688000A2D58DE730
:102EB000DAF8001001F4E021B1F5403F6CD006DCF7
:102EC00061B149457AD0714594D157E037E0B1F509
:102ED000802F65D0B1F5A02F8CD10CE000F0D4FE8E
:102EE0006CE76846FFF7D4FD019867E703A8FFF792
:102EF00071FE049862E721688903F1D47AE7DBF870
:102F0000001011F440310ED0494510D07145F5D173
:102F10003168256801F040516D077FF562AF0029E7
:102F20007FF45FAF57E720680001E7D549E72068E5
:102F30008000E3D503A8FFF74DFE05983EE7226821
:102F40009203DBD554E7306810F480303AD048451E
:102F5000D4D120680001D1D56846FFF799FD0298C9
:102F60002CE7DBF8001001F0E041B1F1405F13D035
:102F700008DC71B1614521D04145BFD12068800096
:102F8000B4D437E7B1F1804F0AD0B1F1A04FB2D03D
:102F900030E7FFF7C7FC11E720684007AED51AE716
:102FA0002068C005AAD521E708E0DAF8001011F082
:102FB0004051A0D0614505D041459FD12068000116
:102FC0008FD417E72068800198D5F3E65044025863
:102FD0000090D00340787D010080BB00004402587F
:102FE0002DE9FE4F0546DFF8E48350F8081B002466
:102FF000F64FC943019005F12800264608F1240840
:10300000009008011DD4A86E50B1B0F5801F0CD0FF
:10301000B0F5001F0ED0B0F5401F1ED001240FE008
:10302000386840F40030386017E00198022102F05F
:1030300035FA03E00098022102F0C0FA04000CD037
:1030400026462888C043C00523D4A86D05281ED273
:10305000DFE800F00C11161B1B00AA6ED8F8001058
:1030600021F440111143C8F80010EAE7386840F431
:103070000030386009E00198002102F00FFA03E007
:103080000098002102F09AFA044674B100E001248D
:1030900026462888C043800528D4E86D80281ED0A5
:1030A0000CDC90B140280ED114E0AA6DD8F80010C5
:1030B00021F007011143C8F80010EAE7C02813D037
:1030C000B0F5807F10D001240FE0386840F4003064
:1030D000386009E00198002102F0E0F903E000986F
:1030E000002102F06BFA04469CB126462888DFF8DE
:1030F000DC92C04309F12C0940052CD4D5F8A80076
:10310000B0F5800F20D00DDCA0B1B0F5001F0FD1BD
:1031100015E0EA6DD8F8001021F4E0711143C8F809
:103120000010E3E7B0F5C00F13D0B0F5000F10D0DA
:1031300001240FE0386840F40030386009E001985D
:10314000002102F0ABF903E00098002102F036FA0A
:1031500004467CB126462888C04300052DD4D5F806
:10316000AC00B0F1007F21D00EDCA8B1B0F1807FBF
:1031700010D116E0D5F8A820D9F8001021F460018C
:103180001143C9F80010E6E7B0F1407F13D0B0F169
:10319000806F10D001240FE0386840F400303860B0
:1031A00009E00198002102F079F903E0009800217C
:1031B00002F004FA044674B126462868C043800130
:1031C0001FD4E86CD8B110280FD0202812D0302896
:1031D00015D0012414E0D5F8AC20D9F8001021F066
:1031E000E0611143C9F80010E7E7386840F40030A7
:1031F000386004E00198022102F050F9044674B1ED
:1032000026462888C043C0042BD4286EB0F5005F42
:1032100020D00DDCA0B1B0F5805F0FD115E06B4878
:10322000EA6C2030016821F0300111430160E8E7C9
:10323000B0F5405F13D0B0F5804F10D001240FE0FF
:10324000386840F40030386009E00198002102F04D
:1032500025F903E00098002102F0B0F904468CB192
:1032600026462888C043800429D4686EB0F5403FC4
:1032700023D010DC08B3B0F5803F14D0B0F5003F88
:103280000FD115E02A6ED8F8001021F4E041114367
:10329000C8F80010E5E7B0F5802F0ED0B0F5A02FEC
:1032A0000BD001240AE00198012102F0F7F803E0B5
:1032B0000098012102F082F9044694B1264628883C
:1032C000C04340042AD4D5F8B000B0F1405F23D009
:1032D00010DC08B3B0F1805F14D0B0F1005F0FD103
:1032E00015E06A6ED8F8001021F4E0211143C8F807
:1032F0000010E4E7B0F1804F0ED0B0F1A04F0BD03A
:1033000001240AE00198012102F0C8F803E00098C6
:10331000012102F053F9044674B126462888C043BF
:1033200000041FD4286FD8B1B0F1805F0ED0B0F187
:10333000005F10D0012414E0D5F8B020D9F80010B7
:1033400021F0E0411143C9F80010E7E7386840F484
:103350000030386004E00198012102F09FF8044633
:1033600074B126462868C043C0011ED4A86CD0B1F1
:1033700001280ED0022811D0032814D0012413E014
:103380002A6FD8F8001021F040511143C8F80010FE
:10339000E8E7386840F40030386004E00198022122
:1033A00002F07CF80446ACB126462868DFF81CB071
:1033B000C043ABF11C0B400252D40548016841F4F4
:1033C00080710160FEF706F9824611E02C44025834
:1033D00000480258FA48AA6C016821F00301114321
:1033E0000160E2E7FEF7F6F8A0EB0A00642835D8A2
:1033F000F4480068C005F5D58CBBDFF8C4A3B5F868
:10340000B4100AF1240ADAF8000001F4407100F463
:103410004070884211D0DAF80010DAF8002021F468
:10342000407142F48032CAF80020DAF8002022F419
:103430008032CAF80020CAF80010D5F8B400B0F500
:10344000807F1AD1FEF7C6F8029012E0FEF7C2F8AC
:103450000299411A41F2883081420AD90324264652
:103460002878DFF85CA3C0430AF1080AC00721D01E
:103470003CE0DAF800008007E8D5D5F8B410C1F3D5
:103480000120032858460DD0016821F47C510160C9
:10349000B5F8B420DAF80010C2F30B021143CAF8F1
:1034A0000010DDE7C84A036802EA111223F47C51D8
:1034B0001143ECE7E86F182816D005DCA0B1082806
:1034C00008D0102804D10AE020280DD028280BD0DD
:1034D00001240AE00198012101F0E0FF03E00098D7
:1034E000012102F06BF8044664B126462878C043F7
:1034F00080071ED4A86F062819D2DFE800F0160C4A
:1035000011161616EA6FDAF8001021F0380111438F
:10351000CAF80010EAE70198012101F0BFFF03E0BB
:103520000098012102F04AF804467CB100E0012431
:1035300026462878C04340071FD4D5F894000628B3
:1035400019D2DFE800F0160C11161616AA6FDAF879
:10355000001021F007011143CAF80010E9E70198B3
:10356000012101F09BFF03E00098012102F026F801
:103570000446A4B100E0012426462878C043800612
:103580002BD4D5F89000B0F1405F24D011DC10B3FB
:10359000B0F1805F15D0B0F1005F10D116E0D5F822
:1035A0009420D9F8001021F007011143C9F8001048
:1035B000E3E7B0F1804F0ED0B0F1A04F0BD0012463
:1035C0000AE00198002101F069FF03E00098022160
:1035D00001F0F4FF044694B126462878C043400623
:1035E0002BD4D5F89C00B0F5406F24D011DC10B37B
:1035F000B0F5806F15D0B0F5006F10D116E0D5F89A
:103600009020DAF8001021F0E0411143CAF80010D0
:10361000E3E7B0F5805F0ED0B0F5A05F0BD00124DA
:103620000AE00198002101F039FF03E0009802212F
:1036300001F0C4FF044694B126462878C043000632
:103640002BD4D5F8A000B0F5C04F24D011DC10B3B6
:10365000B0F5005F15D0B0F5804F10D116E0D5F869
:103660009C20D9F8001021F4E0511143C9F8001052
:10367000E3E7B0F5004F0ED0B0F5204F0BD001249A
:103680000AE00198002101F009FF03E000980221FF
:1036900001F094FF044654B126462878C043000741
:1036A0001ED4D5F88400B0F5805F0AD00FE0D5F8BD
:1036B000A020D9F8001021F460411143C9F800108E
:1036C000EBE70098022101F079FF00B10126D5F85F
:1036D0008420DAF8001021F440511143CAF8001098
:1036E0002878C043C00613D4D5F89800B0F5807F81
:1036F00005D10098022101F061FF00B10126D5F843
:103700009820D9F8001021F440711143C9F8001035
:103710002868C043000316D4D5F8A40038B1B0F52A
:10372000803F09D0B0F5003F0BD001240AE001989A
:10373000002101F0B3FE03E00098022101F03EFFFA
:1037400004468CB126462868C043400322D4D5F8ED
:103750008800B0F5801F11D0B0F5001F13D0B0F570
:10376000401F15D0012414E0D5F8A420D9F800108A
:1037700021F440311143C9F80010E4E7386840F4FF
:103780000030386004E00098012101F017FF044682
:103790005CB126462868C043C00323D4286DA8B175
:1037A000B0F5803F17D001241BE0D5F88820DAF867
:1037B000001021F440111143CAF80010EAE700009C
:1037C0004C44025800480258CFFFFF00386840F4CC
:1037D0000030386004E00198022101F05FFE0446E9
:1037E000E4B126462868C043800005D40098022131
:1037F00001F0E4FE00B101262868C04380031BD419
:10380000D5F88000B0B1B0F5807F0FD0B0F5007F63
:1038100010D0B0F5407F0DD001240CE05A482A6D3D
:10382000016821F4803111430160DBE7386840F41E
:1038300000303860ECB326462868C043C00207D485
:103840006A6FD8F8001021F000411143C8F8001049
:103850002868C043C00008D4D5F8B820DBF80010B1
:1038600021F480411143CBF800102868C043800246
:1038700007D4EA6ED8F8001021F080711143C8F81F
:1038800000102868C04340000CD4DBF8001021F47D
:103890000041CBF80010DBF80010D5F8BC20114334
:1038A000CBF800102868C04308D437486A6D016817
:1038B00000E018E021F04051114301602868C04346
:1038C000000208D4D5F88C20DAF8001021F4400169
:1038D0001143CAF8001028790024C04300F0010009
:1038E00020430AD00FE0D5F88020DAF8001021F448
:1038F00040711143CAF800109EE70198002101F0C1
:10390000CDFD00B106462879C04300F002002043F7
:1039100005D10198012101F0C1FD00B106462879C9
:10392000C04300F00400204305D10198022101F0BA
:10393000B5FD00B106462879C04300F008002043D9
:1039400005D10098002101F039FE00B10646287922
:10395000C04300F01000204305D10098012101F080
:103960002DFE00B106462879C04300F02000044334
:1039700004D10098022101F021FE00B916B1012006
:10398000BDE8FE8F0020FBE74C4402582DE9F05FB4
:1039900004000F467ED0DFF83882D8F8000000F02F
:1039A0000F00B8420CD2D8F8001021F00F013943B3
:1039B000C8F80010D8F8000000F00F00B84269D134
:1039C0002078844D40070AD52069296801F07001EC
:1039D000884204D9296821F07001014329602078C8
:1039E0007C4E361D00070AD56069316801F0700110
:1039F000884204D9316821F0700101433160207898
:103A0000C0060AD5A069316801F4E061884204D992
:103A1000316821F4E061014331602078DFF8B4B10E
:103A200080060BF1080B0CD5E1695846DBF8002045
:103A300002F07002914204D9026822F070020A4337
:103A40000260207880070AD5E068296801F00F013C
:103A5000884204D9296821F00F01014329602078A8
:103A6000C0073ED05B49A2682868183920F470600E
:103A7000104328606068022818D0032819D009680C
:103A8000012819D0490700294ADADFF848A1AAF12C
:103A9000080A00E044E0DAF8002022F007020243BE
:103AA000CAF80020FDF796FD814612E009688903F7
:103AB000E9E709688901E6E7C905E4E7FDF78AFD5A
:103AC000A0EB090141F28830814202D90320BDE810
:103AD000F09F6168DAF8000000F03800B0EBC10F29
:103AE000ECD1207880070AD5E068296801F00F0141
:103AF000884204D2296821F00F0101432960D8F8D7
:103B00000010404601F00F01B9420BD9016821F0C5
:103B10000F0139430160006800F00F00B84201D086
:103B20000120D4E7207840070AD52069296801F0F0
:103B30007001884204D2296821F070010143296094
:103B4000207800070AD56069316801F07001884269
:103B500004D2316821F07001014331602078C00641
:103B60000AD5A069316801F4E061884204D2316865
:103B700021F4E06101433160207880060CD5E169D1
:103B80005846DBF8002002F07002914204D202682D
:103B900022F070020A43026000F09AF80E492A6887
:103BA0002B68C2F3032203F00F038A5CC95C02F0A6
:103BB0001F0201F01F01D040084A20FA01F11160F4
:103BC0000749086007480068BDE8F05FFDF74CBE94
:103BD0000020005218440258E679000858000024DA
:103BE000540000244C00002470B5144C3F220260A5
:103BF000124A24680832131D114D04F00704446072
:103C000016681C1D06F470668660166806F00F06BE
:103C1000C660126802F0700202611A6802F0700257
:103C200042611A6802F4E0628261226802F0700266
:103C3000C261286800F00F00086070BD104402588F
:103C40000020005230B500F043F80B4A0B490C4BF2
:103C500015681468C5F3032204F00F048A5C095D3B
:103C600002F01F0201F01F01D040064A20FA01F1C4
:103C700019601060084630BD18440258E679000803
:103C8000580000245400002400B5FFF7DBFF05496D
:103C90000968054AC1F30211515C01F01F01C840D7
:103CA00000BD00001C440258E679000800B5FFF78B
:103CB000C9FF05490968054AC1F30221515C01F0B9
:103CC0001F01C84000BD00001C440258E6790008EE
:103CD000454970B545480968434B103B11F038021F
:103CE00008D00111082A03D0102A0BD0182A0BD0B3
:103CF000084670BD19688906FBD51968C1F3C10172
:103D0000C84070BD3A4870BD3749374D18310C1D59
:103D100024350A68096826682D6802F0030406F055
:103D20000102C1F30511C5F3CC0515FB02F200EE4B
:103D3000102AB8EE400AE9B32F4ADFED2E0AB7EE9B
:103D4000001A6CB1DFED2D1A012C01D0022C43D0EA
:103D500002EE101A1068F8EE422A81EEA22A1EE046
:103D60001C68A40611D51B6801EE901A1168C3F3F4
:103D7000C103F8EE612AD84001EE900AC1F30800B1
:103D8000F8EE611A81EEA22A0BE001EE901ADFED47
:103D90001C2A00BFF8EE611A106882EEA12AC0F357
:103DA000080001EE900AF8EE611A40EE201A31EE9A
:103DB000810A00E015E022EE000A1068C0F34620F8
:103DC000401C00EE900AF8EE600A80EE201ABCEE6D
:103DD000C10A10EE100A70BD01EE901ADFED092A3B
:103DE000D8E7002070BD0000104402580090D003B6
:103DF00040787D0100000039304402580024744AA4
:103E00000024744C20BCBE4B2DE9F05F04007DD033
:103E1000FF4F2078FE4D1837DFF8F493103DC007B0
:103E200048D0D9F80000396800F03800102815D0C3
:103E3000182803D101F0030002280FD06068B0F504
:103E4000803F12D010B1B0F5A02F18D0286820F410
:103E500080302860286820F4802009E028688003EA
:103E600028D560680028D2D024E0286840F480304B
:103E70002860606888B1FDF7ADFB064609E0286858
:103E800040F480202860F0E7FDF7A4FB801B642845
:103E90006FD828688003F7D50CE0FDF79BFB06463A
:103EA00005E000BFFDF796FB801B6428F0D828686A
:103EB0008003F7D4207841F20308D54E0C3E8007EA
:103EC00069D5D9F80000396810F038000ED01828EC
:103ED00001D188070AD0E06890B3296821F0190160
:103EE00001432960FDF776FB824631E028684007F0
:103EF00002D5E06800288AD0E168286820F019001F
:103F000008432860FDF766FB824607E0DFE000BF5C
:103F1000FDF760FBA0EB0A000228B9D8286840072B
:103F2000F6D500BFFDF750FB40451BD8206940285F
:103F300012D0316821F47C3141EA003030602AE04F
:103F400018E000BFFDF746FBA0EB0A0002289FD84F
:103F500028684007F6D5E5E7306820F47C3040F467
:103F60000030EBE7207C316821F0FE4141EA00603F
:103F7000E4E70DE1286820F001002860FDF72AFB46
:103F8000824605E0FDF726FBA0EB0A0002288DD84B
:103F900028684007F6D42078C0065DD5D9F800001F
:103FA000DFF86CB2396800F03800ABF1040B082878
:103FB00010D0182803D101F0030001280AD0E069CD
:103FC0000028286838D040F080002860FDF702FB08
:103FD000824623E02868C00523D5E069802876D191
:103FE0001FE0206A202821D0316821F0F84141EA01
:103FF0008060306030E000BF94F82010DBF80020D3
:1040000022F07C5242EA0161CBF8001024E000BFAC
:10401000FDF7E0FAA0EB0A00022898D82868C0054E
:10402000F6D5FDF7D1FA4045E6D8DAE7306820F05A
:10403000F84040F08040DCE720F080002860FDF789
:10404000C9FA064605E000BFFDF7C4FA801B022846
:104050009DD82868C005F7D42078000729D56C487A
:104060006169643000298046016811D041F0010186
:104070000160FDF7AFFA064605E000BFFDF7AAFABA
:10408000801B0228C9D8D8F800008007F6D510E0B8
:1040900021F001010160FDF79DFA064605E000BF31
:1040A000FDF798FA801B022872D8D8F80000800724
:1040B000F6D42078800623D5A0690028286810D07F
:1040C00040F480502860FDF785FA064605E036E1A9
:1040D000FDF780FA801B02285AD828688004F7D59B
:1040E0000EE020F480502860FDF774FA064604E0E4
:1040F000FDF770FA801B02284AD828688004F7D49C
:10410000207840074FD5DFF80C81D8F8001041F433
:104110008071C8F80010FDF75DFA064605E000BFA3
:10412000FDF758FA801B642832D8D8F80000C00583
:10413000F6D5374EA068603601280AD008B10528A8
:1041400013D0306820F001003060306820F00400A7
:1041500002E0306840F001003060A06841F2883A27
:1041600090B1FDF737FA80460AE0306840F004006D
:104170003060EEE7FDF72EFAA0EB0801514507D8B5
:1041800030688007F6D50EE0FDF724FA804607E098
:1041900084E000BFFDF71EFAA0EB080151457DD871
:1041A00030688007F6D4606AB0B3DFF86480D9F86D
:1041B000001008F120084FF6F87B08F10409C1F35C
:1041C000C2010329A8F1040A69D00228286820F056
:1041D0008070286003D0FDF7FDF9044684E0FDF708
:1041E000F9F9064605E000BFFDF7F4F9801B022847
:1041F00077D828688001F7D4E26A40F2F331386852
:1042000054F8283F884340EA02101843386004E01D
:104210001044025800480258B5E0217B43462289E9
:104220004FF4FE0C208A4FF0FE474902267D521EB5
:10423000401EA1F50071C2F308088AB2761E0CEA8E
:10424000004042EA08020243504607EA06610A4378
:104250001A60DAF8002022F00102CAF80020D9F82A
:104260000020266A22EA0B0242EAC602C9F80020B0
:10427000DAF80010A26921F00C011143CAF800100D
:104280000168E26921F0020111430160016841F413
:1042900080310160016841F4003101E021E027E054
:1042A0000160016841F480210160016841F0010171
:1042B0000160286840F080702860FDF78BF90446A3
:1042C00005E000BFFDF786F9001B022809D8286821
:1042D0008001F7D557E000BFFDF77CF9001B0228ED
:1042E00002D90320BDE8F09F28688001F4D44AE099
:1042F00039680128D8F8000021D0A26A01F0030330
:1043000093421CD1E26AC1F305118A4217D1216B95
:10431000C0F30802491E8A4211D1616BC0F34622E4
:10432000491E91420BD1A16BC0F30642491E914236
:1043300005D1E16BC0F30660491E814201D0012026
:10434000D0E7A16C4E46D9F80000C0F3CC00814202
:1043500019D0DAF80000554620F00100CAF8000034
:10436000FDF738F94FEA0007FDF734F9B842FBD002
:10437000A26C306820EA0B0040EAC2003060286876
:1043800040F0010028600020ACE7000070B5040098
:104390000D4603D094F82C0010B107E0012070BD49
:1043A000002084F82D00204600F018F8022084F840
:1043B0002C002068211DFCF79BF9D4E90002294656
:1043C000FCF7E8F904480121026842F0004202606B
:1043D00084F82C10002070BD00400052FCF762BF32
:1043E00010B5044690F82C00022804D094F82C0054
:1043F000012801D0012010BD022084F82C00206883
:10440000FCF7ABF9012084F82C00002010BD00005F
:1044100070B5044690F82C000D46022804D00128FF
:1044200003D0052801D0012070BD022084F82C00A3
:104430002068FCF79BF92868022805D05FF001008E
:1044400084F82C00002070BD0520F9E77047704704
:10445000704700002DE9F04390F83C20012A42D03B
:10446000012280F83C2051F80C4BDFF880804FF09F
:10447000000991E8680051E9022723F44073B1F87C
:104480000CC03B43CF6923F480631343026823F4D9
:104490000063234323F4805343EA050323F40053CA
:1044A00043EA060323F4804343EA07030C3923F469
:1044B0007023424543EA0C4302D00D4CA2420CD17A
:1044C0008D8C23F47006D1E9073446EA055121F0BA
:1044D0008071194321F000732343536480F83C90AA
:1044E0000020BDE8F0830220FBE70000000001404F
:1044F00000040140F0B590F83C20012A3BD01F4E4B
:10450000012480F83C40022280F83D2002681C4DC6
:104510005368B242D2F808C001D0AA4203D14F6812
:1045200023F470033B430F6823F070031F4357606D
:104530000268B24213D0B2F1804F10D0114B9A42B0
:104540000DD0114B9A420AD0104B9A4207D0AA4282
:1045500005D00F4B9A4202D00E4B9A4204D1896883
:104560002CF0800319439160002180F83D4080F8D1
:104570003C100846F0BD0220F0BD000000000140E4
:10458000000401400004004000080040000C00400E
:10459000001800400040014010B5040003D094F81A
:1045A0003D0010B107E0012010BD002084F83C0060
:1045B000204600F023F8022084F83D002068211DE9
:1045C00001F074F9012084F8480084F83E0084F872
:1045D0003F0084F8400084F8410084F8420084F8E9
:1045E000430084F8440084F8450084F8460084F8C9
:1045F000470084F83D00002010BD000008B50068A9
:104600001149884209D11148016841F48071016063
:10461000006800F48070009008BD0D498842FBD10D
:104620000A480830016841F48021016000680022D6
:10463000114600F4802000907620FDF7DDFABDE8F9
:1046400008407620FDF7CABA00200040E84402582E
:104650000048014090F83D10012901D00120704729
:10466000174A022180F83D100168CB6843F001032E
:10467000CB600068904214D0B0F1804F11D0114946
:1046800088420ED0104988420BD01049884208D089
:104690000F49884205D00F49884202D00E4988420E
:1046A00007D181680D4A1140062906D0B1F5803F37
:1046B00003D0016841F00101016000207047000053
:1046C000000001400004004000080040000C0040D1
:1046D00000040140001800400040014007000100B4
:1046E00070472DE9F041044600680027C668056957
:1046F000A90713D5B10711D5FA1E0261012121774F
:10470000206880698007204602D0FFF7E9FF04E0B7
:1047100000F0CEF8204600F0B1F92777680716D5EB
:10472000700714D5226802206FF004011161207710
:104730002068806910F4407F204602D0FFF7D0FF48
:1047400004E000F0B5F8204600F098F92777280734
:1047500015D5300713D5226804206FF008011161C8
:1047600020772068C0698007204602D0FFF7B8FF95
:1047700004E000F09DF8204600F080F92777E80675
:1047800016D5F00614D5226808206FF010011161CB
:1047900020772068C06910F4407F204602D0FFF7E0
:1047A0009FFF04E000F084F8204600F067F92777C7
:1047B000E80708D0F00706D021686FF00100086113
:1047C000204600F05DF9280601D4A80408D530067B
:1047D00006D521686FF4025008612046FFF737FEC6
:1047E000E80508D5300606D521686FF480700861A9
:1047F0002046FFF72BFE680608D5700606D521680F
:104800006FF040000861204600F044F9A8060AD580
:10481000B00608D521686FF0200008612046BDE889
:10482000F041FFF715BEBDE8F081000010B586B07D
:10483000044614216846FBF7F5FD184A002023685A
:10484000174993424FF0020211D10B6843F0040361
:104850000B60096801F00401059180210091032398
:104860006946CDE90120CDE903030E4812E00E4C64
:10487000A34211D10B6843F080030B60096801F07B
:104880008001059140210091CDE90120CDE903028D
:1048900006486946FCF770FD06B010BD00040140F3
:1048A000E04402580008025800180040001C02585A
:1048B000704770B5044690F83C0000260D4601286C
:1048C0000BD0012084F83C000C2A4AD007DC82B1CE
:1048D000042A20D0082A06D131E0022070BD102A17
:1048E00053D0142A63D00126002084F83C003046BF
:1048F00070BD206801F040F82068816941F008012E
:1049000081612068816921F00401816120682A6940
:104910008169114311E0206801F084F82068816901
:1049200041F4006181612068816921F480618161C5
:1049300020682969826942EA01218161D4E72068FF
:1049400001F0BEF82068C16941F00801C16120682A
:10495000C16921F00401C16120682A69C16911435C
:1049600011E0206801F0FAF82068C16941F40061A3
:10497000C1612068C16921F48061C1612068296931
:10498000C26942EA0121C161AEE7206801F022F963
:104990002068416D41F0080141652068416D21F0BA
:1049A0000401416520682A69416D114311E02068C6
:1049B00001F04AF92068416D41F4006141652068C9
:1049C000416D21F48061416520682969426D42EAA8
:1049D0000121416588E710B5040003D094F83D003B
:1049E00010B107E0012010BD002084F83C002046F3
:1049F00000F022F8022084F83D002068211D00F01C
:104A000055FF012084F8480084F83E0084F83F00F8
:104A100084F8400084F8410084F8420084F84300A0
:104A200084F8440084F8450084F8460084F8470080
:104A300084F83D00002010BD08B500680C4988428C
:104A400008D10C48016841F002010160006800F0E3
:104A500002000BE00849884209D10648083801687D
:104A600041F040010160006800F04000009008BD86
:104A700000040140F0440258001800407047000054
:104A800000680349884201D1FCF7B8BE70470000B6
:104A9000004401407047FEE7F0B500230A251C469C
:104AA0003026372711E000BFB5EB107F02D906EBA7
:104AB000107C01E007EB107C01F813C001EB430C04
:104AC00000015B1C8CF80140DBB29342ECD3F0BDDB
:104AD0008068C0F3C00070478068C0F380007047F2
:104AE0008068C0F3800070472DE9FC4F82468D88B6
:104AF000894693468820DAF800108C2300EBCB140B
:104B00009422A646C868C0F30B4028440D590404FB
:104B100003EBCB1005F47045CDE9000441F80E50CD
:104B20009C23D9F8004003EBCB164FF0AC0C982334
:104B300040F2077702EBCB11A02503EBCB1205EB7C
:104B4000CB13DAF800500CEBCB1CD5F80C80C8F373
:104B50000B4808F10108A044019C48EA040845F804
:104B60000E80DAF80040B9F80C50D4F80C802058C8
:104B7000C8F30A08454400F47048009844F80080DF
:104B8000DAF80040D9F80800D4F80C80C8F30A0815
:104B900008F101088044009848EA054844F800807C
:104BA000DAF80000445824F007044450DAF80040D2
:104BB000D9F81000605099F8310099F818100402E3
:104BC00099F83200000440EA016099F8301021435E
:104BD0000143DAF800008151DAF80000815821F031
:104BE000FF018150DAF80000D9F814108150DAF88A
:104BF0000000C158B943C150DAF80010D9E90702E2
:104C00001043C850DAF80010D9F8240041F80C001D
:104C1000D9F81000C8B301283AD004283AD00228A5
:104C200038D0032836D0072834D00120DAF80030F5
:104C3000B02505EBCB11B42284245D5802EBCB12D6
:104C400005F0E0255D50D9E9003504EBCB14EB1AF3
:104C5000B9F8285043434543DAF80000DB1D43EA26
:104C600005434350DAF8000081586FF30A01815080
:104C7000DAF80000D9F82C108150DAF80000015958
:104C800041F001010151BDE8FC8FFFE70420CDE7B1
:104C90000320CBE70220C9E730B58BB0002468467B
:104CA0001C21079408940994FBF7BCFB1C480425BD
:104CB0001A4A0121C0E900248460C0E90345047553
:104CC00044758161047744628462C462046344630E
:104CD00080F83840C163FCF759F808B1FBF7F7FCDE
:104CE0000F4807A90794FBF7ADFD08B1FBF7EFFCF0
:104CF0000C48062140F2FF7203928DE81300084829
:104D00006946CDE904548DF81940FBF72FFE0028C1
:104D100001D0FBF7DCFC0BB030BD000000200240EE
:104D200054010024000021430A480021084B0122BD
:104D300010B5036001714171416102628161FCF74C
:104D400093F9002803D0BDE81040FBF7C0BC10BDAC
:104D5000004C0258B80100241148022210B50F4C33
:104D60000021FF230460C0E90112C160C0E91112F3
:104D7000C0E9131341658165C165FCF729FA08B1E3
:104D8000FBF7A5FC06480121FCF7BEF9002803D07B
:104D9000BDE81040FBF79BBC10BD000000100052A6
:104DA000DC010024F0B587B01C216846FBF73AFB14
:104DB0001C4800211A4D022200F1080E4FF0200C71
:104DC0000423C0E90051402747618EE80A10D5014D
:104DD000C0E9065107249602C0E9086181620325F3
:104DE000CDE90024CDE90452CDE9023469460692AA
:104DF000FFF7CCFA08B1FBF76AFC40F26A50FBF708
:104E0000F9FB0120FCF73CFA07488021FCF7CEFBB8
:104E100002F0AAFD0120FCF733FA07B0F0BD000054
:104E20004041005254020024001C02582DE9F04178
:104E300086B014216846FBF7F5FA4A48016841F04C
:104E400010010160016801F010010591016841F055
:104E500004010160016801F004010591016841F459
:104E600080710160016801F480710591016841F071
:104E700020010160016801F020010591016841F005
:104E800080010160016801F080010591016841F035
:104E900001010160016801F001010591016841F023
:104EA00002010160016801F002010591016841F011
:104EB00040010160016801F040010591016841F085
:104EC0000801016000680022274F802100F00800DF
:104ED00005903846FCF772FBDFF890804FF440569F
:104EE000012231464046FCF769FB00224046302152
:104EF000FCF764FB00241E48082569460294CDE9AE
:104F00000054FCF739FA1B486946CDE90054029475
:104F1000FCF732FA0125694680200090CDE9015462
:104F200038460394FCF728FA11200321CDE90060EC
:104F3000CDE9025169464046FCF71EFAE80369468E
:104F4000CDE900040C480294FCF716FA30200090DA
:104F5000CDE90154694640460394FCF70DFA06B0CA
:104F6000BDE8F081E0440258001C0258000C0258D1
:104F70000010025800080258000002580D48002195
:104F800010B50B4C04230C4A0460C0E90131C16028
:104F9000C0E904128161C161016241628162FCF772
:104FA0001FFB002803D0BDE81040FBF790BB10BDED
:104FB000003800408802002400770100F0B58DB071
:104FC00034216846FBF72EFA25480024234B2E2176
:104FD00000F11C0C40F2F715172240F20D27C0E932
:104FE000003484604FF48466C46040F24E33046140
:104FF000446184618CE8EE0080F8344080F83540EC
:1050000080F83640FCF79BFC08B1FBF760FB4FF4DF
:1050100048704FF4F07102270497CDE90040CDE9C4
:105020000A0107A87A0205234D06CDE9024180E86E
:105030002C00FF260A48CDE905648DF83040002297
:105040008DF8314069468DF83240FCF74FFC00285E
:1050500001D0FBF73CFB0DB0F0BD0000001000508C
:10506000DC0200240E48042270B500210B4E95018D
:10507000C0E90062C0E90551C16110230162083036
:10508000012480E81C000838FDF76CFB002803D0E1
:10509000BDE87040FBF71BBB70BD00000050005224
:1050A0008403002410B58AB0002468461C210794AC
:1050B00008940994FBF7B6F915484FF6FF71134AA7
:1050C000C0E90024C0E9024104618461FFF783FC68
:1050D00008B1FBF7FCFA0E4807A907940994FFF7FB
:1050E00009FA08B1FBF7F3FA60206946CDE900043C
:1050F0000748002202940494FFF7DBFB08B1FBF79A
:10510000E6FA0348FFF792FB0AB010BD0018004012
:105110001C0400240C484FF6FF7210B5002140F229
:10512000ED23084CC0E9021201618161C0E900432E
:10513000FFF732FA002803D0BDE81040FBF7C7BAEA
:1051400010BD000000200040680400240C4842F21A
:10515000107210B5002140F2DF13084CC0E90212B2
:10516000016141618161C0E90043FFF715FA002840
:1051700003D0BDE81040FBF7AABA10BD00480140BB
:10518000B404002410B596B000241C210BA812947E
:1051900013941494FBF746F92C216846FBF742F967
:1051A00022484FF6FF722049C0E90014C0E90242CC
:1051B000046144618461FFF70EFC08B1FBF787FAD4
:1051C0001A4812A9129413941494FFF793F908B192
:1051D000FBF77DFA6020CDE90B04144804220BA9EB
:1051E0000D940E940F9410941194FFF762FB08B184
:1051F000FBF76DFA4FF40050009401940103029400
:10520000CDE9044003940694CDE907410748694677
:1052100009940A94FFF71EF908B1FBF758FA0348FE
:10522000FFF704FB16B010BD00040140D0030024BA
:1052300010490022104810B501F054F908B1FBF7ED
:1052400046FA0E490C4801F06DFB08B1FBF73FFA36
:105250000B49094800F006FF08B1FBF738FA064889
:1052600001F0E6FB08B1FBF732FABDE81040FDF7AC
:1052700071BA00005C0000244C0500241C010024CD
:10528000B0000024FEE7FEE70148FCF747BE00003F
:10529000481C00242DE9F041044680790D46202762
:1052A000236801284FF4004604F29C4203EB4511A9
:1052B000D3F840C0D1F8080B09D0DFF89CE0F445E2
:1052C0003AD1020433D500BFC1F8086B40E0234B4C
:1052D0005FEA007E04D59C453AD90004F4D437E057
:1052E0005FEA806E02D5C1F8087B31E010F0280F2C
:1052F0002ED19C4501D90004E6D4D1F8101B05EB52
:10530000C50004EB8000C1F31201D0F87432A3EBA6
:105310000101C0F8681200F51570ADB903691BB141
:10532000C2681144C1600FE0206801210AE08006D4
:105330000AD5C1F8087B07E035B9D4F8640218B97A
:105340000021184601F002FF2046E9B2FCF7CFFC2D
:105350000020BDE8F08100000A31544F0A30544F5C
:105360002DE9F84F0E460568814601EBC60100EBBA
:105370008104D4E909201434904202D90120BDE807
:10538000F88FA168101A814200D20846C01C05EBB4
:10539000461887081BE000BFA268A0EB010A52452F
:1053A00000D2924699F806100AF1030000911FFA04
:1053B0008AF3E16887082846F2B202F043FAE1680E
:1053C00001EB0A00E060616901EB0A006061D8F856
:1053D000180980B2B84205D3D4E90401814201D250
:1053E0000028D9D1D4E90401884208D8D5F8341866
:1053F000012006F00F0290408143C5F834180020C8
:10540000BDE7704770B5B0B0C0216846FBF70AF839
:1054100000230F4A0A2118464FF4F075CDE9002306
:105420004FF4001210900526CDE90E101924229297
:1054300053112993CDE90C61CDE90A4511906846D5
:10544000FDF7CEFD002801D072B6FEE730B070BD8A
:1054500000000C202DE9F041984616460F46044600
:10546000069D08E0681C06D0FCF7B4F8A0EB080025
:10547000A8420AD84DB120688068384000D0012089
:10548000B042EFD10020BDE8F081042084F8410053
:10549000606C40F0010060640120F4E72DE9F04702
:1054A000454D044689464FF0000A2868C0438007EE
:1054B0000AD0414E283E306820F080603060FCF712
:1054C00089F80746B04608E00120BDE8F08700BF34
:1054D000FCF780F8C01B022867D8D8F8000000014C
:1054E000F6D4206829684FF4FE0721F47C313E028F
:1054F00041EA00302860207AA389B4F804C0400251
:105500002D4D2D495B1E227CACF1010C1035091D7F
:10551000A0F5007080B2521ECCF3080C07EA0343DA
:1055200040EA0C00184306EA02621043286008684B
:10553000626920F0C000104308600A68A06922F088
:10554000200202430A60281D0A6822F010020A6045
:1055500002684FF6F873E4699A4342EAC4020260B3
:105560000868B9F1000F40F010020A6011D0086815
:10557000B9F1010F11D040F400100860D8F8000014
:10558000444640F08060C8F80000FCF723F8054668
:105590000DE0086840F40020EFE740F48010ECE7ED
:1055A000FCF718F8401B022801D903208DE720687A
:1055B0000001F5D5504688E7284402582DE9F04708
:1055C000454D044689464FF0000A2868C0438007CD
:1055D0000AD0414E283E306820F080503060FBF702
:1055E000F9FF0746B04608E00120BDE8F08700BF9C
:1055F000FBF7F0FFC01B022867D8D8F80000800036
:10560000F6D4208829684FF4FE0721F07C713E0211
:1056100041EA00502860207AA389B4F804C040020F
:105620002D4D2D495B1E227CACF1010C1835091D56
:10563000A0F5007080B2521ECCF3080C07EA0343B9
:1056400040EA0C00184306EA02621043286008682A
:10565000626920F44060104308600A68A06922F47F
:10566000007202430A60281D0A6822F480720A60F0
:1056700002684FF6F873E4699A4342EAC402026092
:105680000868B9F1000F40F480720A6011D0086810
:10569000B9F1010F11D040F080700860D8F8000017
:1056A000444640F08050C8F80000FBF793FF0546E1
:1056B0000DE0086840F48000EFE740F40000ECE7FC
:1056C000FBF788FF401B022801D903208DE72068E3
:1056D0008000F5D5504688E7284402587047017885
:1056E000407841EA002070477047000070B59CB0D8
:1056F0004C216846FAF796FE202113A8FAF792FE8D
:105700000220FCF7FDFF234800242349026842F4ED
:105710004042026002680A6842F001020A600968B9
:1057200001F001011B9101688904FCD50DF1280CE1
:1057300002200990012100910A234FF4A022019236
:105740004FF4C0758CE8290006260FAB0421CDE983
:105750000D0683E8130068461294FEF755FB08B166
:1057600072B6FEE740201A9008230501CDE91630F5
:1057700013ABCDE918053F21032283E8160004216D
:1057800013A8FEF703F9002801D072B6FEE71CB09B
:1057900070BD0000184802582C0400583348F0B57A
:1057A000334A016841F470010160106800F00F0095
:1057B000072804D2106820F00F00C01D10602D498A
:1057C00000202C4C10340B682B4D43F001030B6070
:1057D00020600B682B400B60136803F00F03072B4E
:1057E00004D9136823F00F03DB1D1360214C234AF7
:1057F0001834234B261D371D20601E4C214D2834A4
:105800003060261D3860371D23603B1D35601C1D30
:105810003A60251D2E1D1860331D226028603260FD
:1058200018600A68134B184C22F4802260330A6017
:10583000186020686FF30F00B0F1005F03D21349C6
:105840000120C1F808010B48D4300168C9040BD409
:10585000026843F2D2010E4B42F48052026019609A
:10586000016821F480510160F0BD000088ED00E086
:1058700000200052004402587FEDF6EA8002010148
:10588000000202020000FF010010005C00800051D5
:10589000004000520148FEF724BF0000000500242C
:1058A0000148FEF71EBF0000B40400242DE9F047B4
:1058B000294B4FF0804A294D02689842284E294FC3
:1058C000294C09D0504507D0A84205D0B04203D09A
:1058D000B84201D0A04205D1D1F804C022F0700234
:1058E0004CEA0202DFF884C0DFF884809842DFF8D7
:1058F00084900FD050450DD0A8420BD0B04209D0B3
:10590000B84207D0A04205D0604503D0404501D041
:10591000484503D1CD6822F440722A438E684D6910
:1059200022F08002C6620E682A439842866207D03F
:10593000A04205D0604503D0404501D0484501D183
:10594000096901630368012143F0040303604161B5
:105950000260BDE8F0870000000001400004004044
:1059600000080040000C00400004014000400140DD
:1059700000440140004801402DE9F04FDFF88C80E1
:10598000234EDFF89090DFF890B0026A036AB042CD
:10599000DFF888A022F0020C214F23F001020262FE
:1059A000436885698A680C6805EA080525F00305DF
:1059B00042EA0C0244EA050407D0484505D05845A0
:1059C00003D0504501D0B84208D1D0F820C022F011
:1059D00008052CF004020262CA682A43B04207D0CC
:1059E000484505D0584503D0504501D0B84205D1AF
:1059F00023F44076D1E9055335432B43436084615A
:105A0000496841630262BDE8F08F00008FFFFEFF2E
:105A100000000140000401400040014000440140FA
:105A200000480140F0B5DFF880E0204C204D026ACC
:105A3000036AA04222F0200623F0100303624268AA
:105A40008369D1F808C00F6803EA0E0323F4407E8F
:105A500046EA0C134EEA072601D0A84208D1076A8D
:105A600023F0800327F040070762CF6843EA07135B
:105A7000A0420AD0A84208D00E4CA04205D00E4C3D
:105A8000A04202D00D4CA04207D1D1E9054522F435
:105A9000406242EA840242EA8502426086614968C5
:105AA00081630362F0BD0000FF8FFFFE0000014034
:105AB0000004014000400140004401400048014012
:105AC000F0B5DFF880E0204D204E026A036AA8425C
:105AD00022F4007723F4807303624368C269D1F82B
