:020000040800F2
:10000000184200243903000823630008E35700085E
:1000100021630008F9050008F59D000800000000B4
:10002000000000000000000000000000897D0008C2
:10003000FB050008000000009F640008957D000893
:100040005703000857030008570300085703000828
:100050005703000857030008570300085703000818
:1000600057030008FD050008570300085703000860
:1000700057030008570300085703000857030008F8
:1000800057030008570300085703000857030008E8
:1000900057030008570300085703000857030008D8
:1000A00057030008570300085703000857030008C8
:1000B00057030008570300085703000857030008B8
:1000C00057030008570300085703000857030008A8
:1000D0005703000857030008570300085703000898
:1000E00057030008570300080000000057030008EA
:1000F0005703000857030008570300085703000878
:100100005703000857030008570300085703000867
:100110005703000857030008570300085703000857
:100120005703000857030008570300085703000847
:100130005703000857030008570300085703000837
:1001400000000000000000000000000000000000AF
:100150005703000857030008570300085703000817
:100160005703000857030008570300085703000807
:100170005703000857030008570300080000000059
:1001800057030008570300085703000857030008E7
:1001900057030008570300085703000857030008D7
:1001A00057030008570300085703000857030008C7
:1001B00057030008570300085703000857030008B7
:1001C00057030008570300085703000857030008A7
:1001D0005703000825630008570300085703000869
:1001E0005703000857030008570300085703000887
:1001F0005703000857030008570300085703000877
:100200005703000857030008570300085703000866
:1002100057030008417F0008557F00085703000876
:1002200057030008570300085703000800000000A8
:10023000257200085703000800000000570300085B
:100240005703000857030008570300085703000826
:100250005703000857030008570300085703000816
:100260005703000857030008570300085703000806
:100270005703000857030008570300080000000058
:100280005703000857030008570300080000000048
:10029000000000005703000800F002F800F03CF8EE
:1002A0000AA090E8000C82448344AAF10107DA45D1
:1002B00001D100F031F8AFF2090EBAE80F0013F0E7
:1002C000010F18BFFB1A43F001031847989C000068
:1002D000B89C0000103A24BF78C878C1FAD85207F9
:1002E00024BF30C830C144BF04680C6070470000B0
:1002F0000023002400250026103A28BF78C1FBD82F
:10030000520728BF30C148BF0B6070471FB509F0C6
:1003100009FE1FBD10B510BD00F0B0F81146FFF783
:10032000F5FF09F09BFD00F0CEF803B4FFF7F2FFF4
:1003300003BC00F0D5F800000A4880470A4880470F
:100340000A480047FEE7FEE7FEE7FEE7FEE7FEE7B6
:10035000FEE7FEE7FEE7FEE705480649064A074BCB
:100360007047000031060008497E00089902000825
:1003700018120024184200241822002418220024F5
:1003800010B5203AC0F00B80B1E81850203AA0E830
:100390001850B1E81850A0E81850BFF4F5AF5FEA64
:1003A000027C24BFB1E81850A0E8185044BF18C917
:1003B00018C0BDE810405FEA827C24BF51F8043BBE
:1003C00040F8043B08BF7047D20728BF31F8023B12
:1003D00048BF11F8012B28BF20F8023B48BF00F8A6
:1003E000012B70474FF000020429C0F0128010F07A
:1003F000030C00F01B80CCF1040CBCF1020F18BF01
:1004000000F8012BA8BF20F8022BA1EB0C0100F093
:100410000DB85FEAC17C24BF00F8012B00F8012B66
:1004200048BF00F8012B70474FF0000200B513469B
:1004300094469646203922BFA0E80C50A0E80C5004
:10044000B1F12001BFF4F7AF090728BFA0E80C50B5
:1004500048BF0CC05DF804EB890028BF40F8042BAE
:1004600008BF704748BF20F8022B11F0804F18BF1B
:1004700000F8012B7047704770477047754600F0D1
:100480002BF8AE4605006946534620F00700854626
:1004900018B020B5FFF760FFBDE820404FF0000620
:1004A0004FF000074FF000084FF0000B21F007015C
:1004B000AC46ACE8C009ACE8C009ACE8C009ACE89F
:1004C000C0098D46704710B50446AFF30080204642
:1004D000BDE81040FFF729BF00487047B411002461
:1004E00001491820ABBEFEE726000200704700005D
:1004F00070B53A4905460068884202D0384A9042B1
:1005000002D1D1F8080302E03648D0F8080310F40D
:10051000403F11D003F034FB04466868B0F5803FDB
:1005200006D0B0F5003F03D0B0F5403F27D101E041
:10053000000C18E0A40822E000214FF4002002F093
:1005400089FB044668688103890B18D181140C2942
:1005500015D2DFE801F0140606060606060B0D0F9D
:100560001113800C4000B4FBF0F408E0240906E00D
:10057000640904E0A40902E0E40900E0240A00F0B0
:1005800087FF41F20301884208D81748844228684F
:10059000816813D821F48071816070BD13496008AF
:1005A000884204D82868816821F44071F4E7104932
:1005B000884206D82868816821F4407141F480712E
:1005C000EAE70C4988422868816804D821F4407120
:1005D00041F40071E0E741F44071DDE700200240A2
:1005E0000021024000600258002D3101105E5F00C2
:1005F00020BCBE0040787D01FEE770474FF0B04060
:1006000010B5D0F88800000706D50748082100F08B
:100610002DFF30B107F0A4F9BDE81040082000F02C
:10062000FEBD07F08FF9F7E70010025872B6FEE73B
:10063000054805490839026842F00202026008686C
:100640008004FCD5704700000C4802582DE9F047A3
:100650000F4690F850109AB0044601294FF0000957
:1006600015D00026DFF8F880012084F85000159698
:100670001696216841450ED13A4D0095284605F061
:10068000D5F88246206805F0D1F860B10EE002206E
:100690001AB0BDE8F087606D84F8506040F020002B
:1006A00060650120F4E7BAF1000F09D0616D4FF0E9
:1006B000010941F020006065484684F85060E7E792
:1006C00020684146884201D0A84201D1264800E076
:1006D000264840F61F72D7F800C0254BBCF1000F2A
:1006E00023D0D0F808C0D7F804802CF4404C4CEA52
:1006F000080CC0F808C0D4F800C08C4501D0AC4547
:1007000007D18968AB6801F0010103F001031943C7
:1007100002E0996801F001010029CDD1BD68396876
:10072000836829439343194317E0876827F44047B8
:10073000876027688F4201D0AF4207D18968AB68D4
:1007400001F0010103F00103194302E0996801F08F
:1007500001010029B0D1816891438160ACE70000BC
:1007600000200240002102400023024000630258A2
:10077000006002582DE9F84F04460D460020DFF8CE
:10078000A8B30090074694F85010DFF8A0A32068A3
:100790000129E74E07D04FF0010984F8509005F089
:1007A00041F818B171E10220BDE8F88F28680028EF
:1007B0000EDB21680303CA6928D090FAA0F0B0FAD2
:1007C00080F000BF00F01F0309FA03F00243CA6182
:1007D000D5E900124FF00C0C20681F23C1F384618F
:1007E0000CEA921C02F01F02604493409140026B9D
:1007F0009A430A430263206805F014F88046206893
:1008000005F00CF858EA000003D08DE0C0F38460D6
:10081000D8E72A68042320684FF0070CA96803EA88
:10082000D25318444369C2F304520CFA02FC9140BB
:1008300023EA0C030B434361BE490968B9EB117FFE
:1008400006D121686869C968C1F38201490008E0DE
:100850002068C168C906C1686869F5D501F0100152
:1008600049088840296904292ED023682A6803EBA7
:10087000810102F0F8420B6E024303F00040104386
:100880000866697E22682869012917D05FF0000197
:1008900002EB8000026E22F000420A430266297ECB
:1008A00020682A6901290CD00021036902F01F0287
:1008B000914023F4F0420A43026135E04FF00041D9
:1008C000E6E74FF40061F0E720682978026E02F055
:1008D000F842B2EB816F03D1016E21F00041016655
:1008E00020682978426E02F0F842B2EB816F03D1A2
:1008F000416E21F00041416620682978826E02F045
:10090000F842B2EB816F03D1816E21F00041816624
:1009100020682978C26E02F0F842B2EB816F03D1F1
:10092000C16E21F00041C1662068816811F0010F9D
:1009300072D150F8C02F2B7BDFF8FCC1296803F07F
:1009400018032CFA03FCC1F3130822EA08020CEA8C
:10095000010C42EA0C020260E96859456CD1774803
:100960002268DFF8DCC1DFF8DCB18242DFF8D8E1D1
:100970007648774BDFF8DC8122D12968614524D0A5
:10098000B1EB4C0C38D0A1F1496CBCF1080C35D05E
:10099000A1F1865CBCF1100C32D0DFF8BCC161451E
:1009A00028D071453AD0814230D0994232D06B483C
:1009B000814201D16A4831E041452ED169482DE09C
:1009C000B2422AD12968614501D1012026E0A1F176
:1009D000066CBCF1040C0FD0A1F1496CBCF1080C01
:1009E0000CD0A1F1865CBCF1100C09D0DFF868C115
:1009F000614507D15C4811E058460FE05B480DE0C7
:100A00005B480BE0714509D0814201D1184605E0F1
:100A10009942D1D1574801E03CE00020D16903035D
:100A20001AD090FAA0F0B0FA80F000BF00F01F03D7
:100A300009FA03F00143D161D5F800C0BCF1000F01
:100A400028DA3E4B20684C49DFF83091984201D0BB
:100A5000B04203D10A4602E0800EE7E74A469268B8
:100A6000984202F0E07201D0B04209D19D68D6F8F8
:100A7000088005F0010508F0010845EA080503E0D3
:100A8000DAF8085005F001054DB1606D012740F01E
:100A900020006065002084F85000384684E6384D18
:100AA000AC451CD115021AD45045F3D1984202D05E
:100AB000B04200D049468B6842F4000023F0E07257
:100AC00002438A6030492F480968B1FBF0F04000CA
:100AD000801C00E0401E00900028FBD1DAE72B4D7F
:100AE000AC450CD1D5010AD45045D3D1984202D09F
:100AF000B04200D049468B6842F080700EE0244D31
:100B0000AC45C7D15502C5D45045C3D1984202D097
:100B1000B04200D049468B6842F4800023F0E07276
:100B200002438A60B6E700000000FF4700600258F9
:100B3000002102400010005CFFFF0F000020024077
:100B400002003004400020190004002A0008302E62
:100B5000001060320000844B2000F014000021439C
:100B6000000052470000B84F0002B0258000501D21
:100B700000018021002090360023024000630258CB
:100B8000000084CB400D03001C000024000052C76D
:100B90000000B8CFF8B54FF00006040035460096C7
:100BA00002D0606D10B107E00120F8BD204600F0D2
:100BB00005F9A66584F8506020688168C1F340712A
:100BC00019B18168704A1140816020688168C1F361
:100BD000007181B981686D4A114041F08051816096
:100BE0006C496B480968B1FBF0F0401C00E0401E06
:100BF00000900028FBD120688168C1F3007141B9E1
:100C0000616D012541F010016165A16D41F00101A7
:100C1000A16504F007FE616DC90600D420B1606DC6
:100C2000012540F0100093E0606D20F4807040F0EA
:100C3000020060652068816811F0010F1FD1564ADB
:100C4000564B904201D0984207D191689E6801F0BE
:100C5000010106F00106314303E05149896801F0C2
:100C6000010161B9904201D0984201D14D4800E0A4
:100C70004D488268616822F47C120A43826000F069
:100C800007FC41F20301884202D9A06810280CD069
:100C9000617D227FA368206B490341EA024118432A
:100CA0000843217F01290CD010E0607D227F216B59
:100CB000400340EA024241F01000104340F00C00B3
:100CC000EFE7218C394A02EB41410843616A29B1BF
:100CD000A26A01F47871014342EA01002168344BB1
:100CE000CA681A400243CA60206804F09BFD0646A9
:100CF000206804F093FD30431DD1216844F20303C2
:100D0000267DE26AC86842EA863298431043C8608A
:100D100094F8380001281ED02068016921F00101F3
:100D200001612068626B016921F07041114301612A
:100D30002046FFF7DDFBE068012820681CD0016B2E
:100D400021F00F010163606D20F0020040F001000E
:100D500060652846F8BD2068A28F164FD4E9101CA4
:100D6000154E07EB0247A36C026941EA0C013B43B5
:100D7000324019431143D3E7A269016B521E21F09F
:100D80000F011143DEE70000C0FFFF5FC0FFFF7FE0
:100D9000400D03001C0000240020024000210240FE
:100DA0000060025800230240006302580000FEFF6A
:100DB00003C0F0FF0100FFFF1EF800FC10B586B075
:100DC000044614216846FFF72FFB1149206888422A
:100DD0001BD11048016841F020010160006800F05B
:100DE000200005900B480830016841F001010160C6
:100DF00000680321002200F00100059001208DE829
:100E000007000548694600F017FA06B010BD00005B
:100E100000200240D844025800000258F0B50446B1
:100E2000C8074FF0000010D01E23012603F01F0753
:100E300006FA07F50D4201D15B1EF7D27AB1082AF6
:100E40000BD0102A06D0182A01D00120F0BD072BA4
:100E5000FBD204E0082BF8D201E0102BF5D2236876
:100E6000596121688B6823F0180313438B60F0BD30
:100E700010B5040010D0607F20B9002020772046F4
:100E800000F032F821790220607739B1D4E90212FA
:100E90002046FFF7C3FF48B1012010BD216811486B
:100EA00048612068816821F0180181606079A0B1F3
:100EB000216820690861012220686369816821F046
:100EC0006001194381602068A369816821F0800175
:100ED000194381606277002010BD21684FF0FF3018
:100EE000E8E70000B71DC10408B50068064988425C
:100EF00008D10648016841F400210160006800F44F
:100F00000020009008BD0000004C0258E044025848
:100F1000F0B590F86020012A22D0C1EBC102012770
:100F200080F86070022380F8613000EB8202284D67
:100F3000138F168EB2F83CC0D46A1B05283244EADF
:100F4000064643EA4C530A2C46EA03060AD0092C0B
:100F500008D0137B46EA036349B10B2C1AD01DE07D
:100F60000220F0BDD36803F07F433343F4E7016808
:100F70004C6AAC431C434C62016813688B61516836
:100F80000A2901D009291BD1D168026821F07F41CB
:100F9000916215E0118B0F4D43EA81430168CC69E2
:100FA000AC431C43CC61016813680B6151680A298A
:100FB00001D0092904D1D168026821F07F41116272
:100FC000002180F8617080F860100846F0BD0000D4
:100FD0000F0033FF0F003FFF2DE9F041040004D064
:100FE00094F86100002518B107E00120BDE8F08108
:100FF000204684F8605000F033F8184E022084F840
:1010000061000123D4E90010D4F81CC040F207129B
:101010000F6840EA0C003740384308602068A76931
:10102000A168466B39439643314341632068E268C7
:10103000016C6FF30F01114301642068218AA28AB9
:10104000466B090541EA425126F4401211434163BF
:10105000656684F861300020C8E70000BFFFF8FF34
:1010600008B500680649884208D10648016841F081
:1010700010010160006800F01000009008BD000041
:1010800000100052D444025870B5044600F006FA2D
:101090000546601C02D004480078044400F0FEF9C4
:1010A000401BA042FAD370BD100000242DE9F04F80
:1010B0004F4D00224FF0010A4FF00F0B92E000BF9E
:1010C0000AFA02F919EA01037ED022F0030606F1BA
:1010D000B0469407D6F808C4270FDFF818810BFA3A
:1010E00007FE40450EEA0C0402D14FF0000C40E030
:1010F000DFF804C1604502D14FF0010C39E0DFF8A0
:10110000FCC0604502D14FF0020C32E0DFF8F0C0C5
:10111000604502D14FF0030C2BE0DFF8E8C06045DA
:1011200002D14FF0040C24E0DFF8DCC0604502D1AE
:101130004FF0050C1DE0DFF8D4C0604502D14FF040
:10114000060C16E0DFF8C8C0604502D14FF0070C6E
:101150000FE0DFF8C0C0604502D14FF0080C08E096
:10116000DFF8B4C0604502D14FF0090C01E04FF048
:101170000A0C0CFA07FCA44513D12C689C432C6084
:101180006F684FF0B0449F436F6067689F4367602C
:1011900027689F432760D6F8084424EA0E04C6F85F
:1011A000084407680323D4084FEA42084FEA427C08
:1011B00003FA08F34FEADC6C1F4307600BFA0CF6E6
:1011C00000EB8404276A00E00BE0B7432762C468A1
:1011D0009C43C460446824EA0904446084689C43D6
:1011E0008460521C31FA02F37FF46AAFBDE8F08FDD
:1011F00080000058000002580004025800080258FD
:10120000000C02580010025800140258001802582E
:10121000001C0258002002580024025870474FF06A
:10122000B04110B5D1F88820024203D0C1F888003F
:10123000FFF7F4FF10BD00002DE9F84F03247F4DA8
:1012400000234FF001094FF0B04B4FF00F0AEDE0D3
:1012500009FA03F632407AD00F7907F00307012F1D
:1012600001D0022F19D187684FEA430ED1F80CC084
:1012700004FA0EF827EA08070CFA0EFC4CEA070CF1
:10128000C0F808C0D0F804C00F792CEA060CC7F3E8
:1012900000179F4047EA0C0747600E79F643B607F0
:1012A00002D18E68012E0BD0C6684FEA43088F68C2
:1012B00004FA08FC26EA0C0607FA08F73743C76069
:1012C0000E7906F00306022E12D1DE080F694FEAEE
:1012D000437C00EB8606B646366A4FEADC6C0AFAB7
:1012E0000CF807FA0CF726EA08063743CEF8207008
:1012F0000F7906684FEA430807F0030704FA08FC71
:1013000007FA08F726EA0C06374307604E6816F41A
:10131000403F1CD04A4E376847F0020737603668B6
:101320009F0706F00206009623F0030606F1B0467A
:10133000B6463F0FD6F80864DFF808810AFA07FCC2
:10134000404526EA0C0603D14FF0000C41E06CE06A
:10135000DFF8F4C0604502D14FF0010C39E0DFF84E
:10136000ECC0604502D14FF0020C32E0DFF8E0C083
:10137000604502D14FF0030C2BE0DFF8D8C0604588
:1013800002D14FF0040C24E0DFF8CCC0604502D15C
:101390004FF0050C1DE0DFF8C4C0604502D14FF0EE
:1013A000060C16E0DFF8B8C0604502D14FF0070C1C
:1013B0000FE0DFF8B0C0604502D14FF0080C08E044
:1013C000DFF8A4C0604502D14FF0090C01E04FF0F6
:1013D0000A0C0CFA07FC4CEA060CCEF808C44F685D
:1013E000DBF80060FF0226EA020600D516435F46DE
:1013F000CBF80060D1F804C0DBF804605FEA8C2C05
:1014000026EA020600D516437E606E684F6826EA1B
:101410000206BF0300D516436E602E684F6826EAA9
:101420000206FF0300D516432E605B1C0A6832FAE1
:1014300003F67FF40DAFBDE8F88F00008000005880
:10144000F4440258000002580004025800080258F0
:10145000000C0258001002580014025800180258DC
:10146000001C02580020025800240258006908405D
:1014700000D001207047426921EA02030A4043EA92
:101480000241816170470AB1816170470904FBE73D
:1014900001480068000C70470010005C014880683B
:1014A00070470000100000242DE9F041040004D032
:1014B00094F84D00002518B107E00120BDE8F08147
:1014C00084F84C50204600F0A7F8022084F84D0024
:1014D00020680168C90703D0016821F0010101609B
:1014E000206805656068042803D0062801D00A2812
:1014F0004DD16069022833D0E06808B1022700E0CE
:101500000127A068302824D0B02822D05FF0000640
:1015100000214FF4805001F09DFB2169B1F1007F63
:1015200019D02021D4F81420F1407943B0FBF1F018
:101530000A2100EB80004000B0FBF2F0401DB0FB40
:10154000F1F000F00101401A01294FEA50000AD0E1
:101550000BE00126DCE74FF480716269F140E5E7BA
:10156000022000210AE0012801D0FF2804D9206DC3
:1015700040F010002065A0E700B9012122680004B6
:10158000234B40EA0160116D194008431065A769BB
:1015900002CC94E809101843D4E90723E6684CEA22
:1015A000070C1C4F40EA0C00D1F850E010431843E0
:1015B00040F6F87C30430EEA070E40EA0E0040F099
:1015C0000100086554F8040CC0F818C054F8040D64
:1015D000016821F4803101602068E269C16821F46A
:1015E00000011143C1606068042803D0062801D0BF
:1015F0000A2806D12068A26AC16821F0004111437F
:10160000C1600120256584F84D00002056E70000E8
:10161000FFFF00FE4090FFFD70B5B6B004461421F8
:1016200030A8FEF701FFC0216846FEF7FDFE214904
:10163000206888423CD18114002018900446CDE9EE
:101640000010684601F06AFC08B1FEF7EFFF1A4887
:10165000016841F480410160006800F480403590E9
:1016600015480838016841F004010160016801F083
:1016700004013591016841F0020101600068022512
:101680003095052600F00200CDE9315430A933949D
:10169000CDE934600948FFF7CFFD4FF4405030905A
:1016A000CDE93154064830A9CDE93346FFF7C4FDF2
:1016B00036B070BD00380040E844025800080258B7
:1016C0000004025802488168027811448160704722
:1016D00010000024032010B500F022FA02F096FA60
:1016E0000F4A104914681368C4F3032203F00F0370
:1016F0008A5CC95C02F01F0201F01F01D0400A4A57
:1017000020FA01F11160094908600F2000F010F87B
:1017100008B1012010BD00F0B7F9002010BD000095
:10172000184402582E9F0008200000241C000024AA
:1017300010B5102804468AB02AD20022014675202E
:1017400000F0CEF9752000F0BEF915480460154888
:10175000016841F400310160006808A900F400301C
:101760000990684602F0DEF902F03EFA0E494000A8
:1017700000220E4CB0FBF1F10D4840F2E73304605B
:10178000C0E90332491EC0E9011203F0A5FC10B103
:1017900001200AB010BD064803F00AFDF9E7000079
:1017A00014000024F044025840420F00004401405D
:1017B000080500242DE9F041044690F8A0001646E3
:1017C0000F4601281DD0012584F8A050022084F87E
:1017D000A10006EB860000EBC600342204EB80007B
:1017E0003830FEF7CDFD32463946204604F022F867
:1017F000216800204D6284F8A15084F8A000BDE863
:10180000F0810220FBE72DE9F041040004D094F8B8
:10181000A100002518B107E00120BDE8F0812046B5
:1018200084F8A05000F050F8022084F8A10020684D
:101830000123816921F070418161D4E90010D4E96C
:1018400002722669384332438E69104330438861FF
:101850002268A08AA16941EA004191602268A08BB8
:10186000216A41EA0041D1602268A08CA16A41EA64
:10187000004111612268A08D216B41EA0041516154
:10188000226894F8351094F83600D66A000406F001
:101890007F46D662226840EA012094F83460D16A1B
:1018A00031430143D1622068416B41F0060141633D
:1018B0002068816941F001018161C4F8A45084F875
:1018C000A1300020A9E700002DE9F04186B00446D0
:1018D00014216846FEF7A8FD6149206888427DD141
:1018E0006048016841F008010160006800F00800EC
:1018F00005905C48001F016841F480710160016837
:1019000001F480710591016841F0200101600168D6
:1019100001F020010591016841F0040101600168B6
:1019200001F004010591016841F080010160016846
:1019300001F080010591016841F001010160016839
:1019400001F001010591016841F0020101600168A7
:1019500001F002010591016841F040010160016858
:1019600001F040010591016841F008010160006843
:1019700002250024694600F0080005900927A80206
:101980000090CDE901543848CDE90347FFF754FCF6
:101990000E26694668020090CDE901543348CDE92E
:1019A0000346FFF749FC41200090CDE9015430483F
:1019B0006946CDE90346FFF73FFC10200090CDE9D2
:1019C00001542C486946CDE90347FFF735FC4FF435
:1019D000BC700090CDE90154694600E03CE0264827
:1019E000CDE90346FFF728FC01200090DFF88C804A
:1019F0006946CDE90154CDE903474046FFF71CFC99
:101A0000F0010090CDE90154CDE903466946404616
:101A1000FFF712FC4FF40C600090DFF86480694619
:101A2000CDE90154CDE903464046FFF705FC082007
:101A30000090CDE9015413486946CDE90346FFF70C
:101A4000FBFB4FF4A0500090CDE90154CDE90347D2
:101A500069464046FFF7F0FB06B0BDE8F0810000A4
:101A600000100050E44402580020025800140258AC
:101A700000080258001C02580000025800040258D6
:101A800000180258000C0258054808B5016841F0DA
:101A900002010160006800F00200009008BD000033
:101AA000F444025800280DDB410900F01F028900B0
:101AB000012001F1E0219040C1F88001BFF34F8F78
:101AC000BFF36F8F7047002809DB410900F01F0248
:101AD0008900012001F1E0219040C1F80001704728
:101AE0000E4BF0B41B680D46C3F30223C3F1070687
:101AF000042E00D90426191D072901D2002300E075
:101B0000DB1E012404FA06F19C40491E2940641E94
:101B1000994014402143F0BC08F06DB90CED00E091
:101B2000064900F0070210B54FF6FF040868044BA1
:101B3000204040EA02201843086010BD0CED00E090
:101B40000000FA0501680123C0F8D834002280F8AB
:101B5000CC248869044A40F000608861486D1043D5
:101B600048650020704700000300001070470068BF
:101B7000416200207047F0B503685D6A39B19F6A21
:101B80004C1E00204FF4827605EB17450BE045EA2A
:101B90000240986210E0471C06EB800053F800C03A
:101BA000F8B205EB1C45A042F5D34FF4807000EB72
:101BB000810045EA02421A500020F0BDD0F8E0044E
:101BC00006F0B0BE01EBC10200EB8202D0F8E004E7
:101BD000126A06F000BE01EBC10200EB8202D0F8EF
:101BE000E004D2F8602206F052BED0F8E00406F01D
:101BF0009BBE0A0601F00F0101EBC10100EB810160
:101C000001D5143101E001F51571006807F006BF38
:101C100001F00F020B0670B502EBC20104464FF053
:101C200001004FF0000504EB810102D54875143125
:101C300003E081F8555201F515710A7094F8942467
:101C4000012A08D084F89404206807F005FC0020DD
:101C500084F8945470BD022070BD70B502790446BA
:101C600001F00F00904201D9012070BD01F00F0278
:101C70004FF000050B0602EBC2014FF0010204EB2E
:101C8000810102D54A75143103E081F8555201F5FE
:101C900015718D70087094F89404012808D084F8A8
:101CA0009424206807F042FD002084F8945470BD0D
:101CB000022070BD10B5044690F8940401280AD0A3
:101CC000012084F8940420680A0606D501F00F016B
:101CD00007F04DFF03E0022010BD07F02CFF0020AD
:101CE00084F8940410BD01F00F0101EBC10100EB79
:101CF0008100D0F8680270472DE9F04101F00F062D
:101D000004460D064FF0010006EBC6014FF000053A
:101D100004EB810102D54875143103E081F8555276
:101D200001F51571C2F30A024F780B718A600E70CB
:101D300007B14E83022B00D14D7194F89424012AEF
:101D400009D084F89404206807F0C4FA284684F87F
:101D50009454BDE8F0810220FBE770B501F00F0557
:101D6000002405EBC50100EB810101F5187181E844
:101D70001C0001F80B4C01F80C5D8379012B00D19C
:101D8000CA618279006807F029FD002070BD70B536
:101D90000D460179044605F00F00884201D9012063
:101DA00070BD29064FF000064FF0010206D500EB8A
:101DB000C00104EB81014A75143107E005EBC50150
:101DC00004EB810181F8556201F515718A70087084
:101DD00094F89404012807D084F89424206807F02C
:101DE000D1FC280702D007E0022070BDA17904F2DF
:101DF0009C42206807F06EFC002084F8946470BD5B
:101E000070B501F00F04002504EBC401012600EBBE
:101E10008101203181E82C0001F80B6C01F80C4D98
:101E20008379012B00D1CA618279006807F0D6FC62
:101E3000002070BD2DE9FC5F05680446284607F0C8
:101E4000C1FE00287ED1206807F0E8FE002879D086
:101E5000D5F80808C0F30D20C4F8D404206807F0B2
:101E6000DDFE800704D52068416901F0020141616F
:101E7000206807F0D3FEC10604F29C40009035D5DF
:101E80002068816921F0100181612F6A07F00F003D
:101E9000C7F3434100EBC000022904EB800606F5BE
:101EA000157602D0062912D01BE047F6F0700742E3
:101EB00017D0C7F30A12F1681746284607F0B2FE9A
:101EC0007169F068394471613844F06009E0009943
:101ED0000822284607F0A6FE7069C7F30A110844D5
:101EE00070612068816941F010018161206807F00C
:101EF00095FE00034FF0080B4FF0000A4FF0010968
:101F00007CD52068002607F068FE074674E0F807D5
:101F100070D02068F1B207F079FE8046C00707D084
:101F200005EB4611C1F8089B3146204604F000FA43
:101F30005FEA087024D505EB4611C1F808BBFE49DD
:101F4000206800E048E2026C00EB461001928A42F1
:101F5000D0F8081B05D9090403D54FF40041C0F897
:101F6000081B204600F029FBF3480199814207D95C
:101F7000A079012804D120680121009A07F0AAFB6A
:101F80005FEAC86004D505EB46111020C1F8080BC4
:101F90005FEA88701DD56869000605D5D5F8040884
:101FA00040F48061C5F8041806EBC60004EB80001D
:101FB00090F8571200F51570012905D180F803A09B
:101FC0002046F1B200F00EFA05EB46110220C1F8EE
:101FD000080B5FEA886004D505EB46112020C1F8A4
:101FE000080B5FEA884005D505EB46114FF4005019
:101FF000C1F8080B7F08761C002F88D1206807F0F5
:102000000DFE40036ED5206807F0E0FD0026074670
:1020100066E0F80762D02068F1B207F0E5FD80467F
:10202000C00723D0D5F8342806F00F0C05EB461373
:1020300009FA0CF08243C5F83428C3F80899A0794E
:1020400001280FD106EBC60004EB8000D0E9072180
:102050001144016236B9606A20B920680121009AF2
:1020600007F038FB2046F1B2FFF7ACFD5FEA0870DD
:1020700003D505EB4611C1F808B95FEAC86004D57D
:1020800005EB46111020C1F808095FEA486004D545
:1020900005EB46114020C1F808095FEA887016D5A3
:1020A0003146284607F063FD06EBC60004EB8000CE
:1020B000C17D1430012905D180F803A02046F1B27A
:1020C00000F08CF905EB46110220C1F808095FEA1F
:1020D000086003D53146204604F090F97F08761C4D
:1020E000002F96D1206807F099FD002811DAD5F865
:1020F000040820F00101C5F8041894F8CC04012864
:102100003BD0204600F03EFA2068416901F00041D2
:102110004161206807F082FD00050BD5D5F808085D
:10212000C00702D0204600F071FA2068416901F42E
:1021300000614161206807F071FD00010AD5206847
:10214000416901F00061416194F8CC04E0B120469E
:1021500000F05CFA206807F061FDC00473D5D5F883
:10216000040820F00101C5F804182068102107F0C8
:10217000FEFC00214FF67F322DE00021204684F83E
:10218000CCA4FFF7F3FCBFE784F8CC942068406D43
:102190000121C0F38300C4F8D0042046FFF7E6FC19
:1021A000D8E700BF05EB4110C0F80829D0F8003986
:1021B00023F40013C0F80039C0F8082BD0F8003B16
:1021C00023F40013C0F8003BD0F8003B43F0006359
:1021D000C0F8003B491C20798842E3D8D5F81C0898
:1021E000294640F00110C5F81C08E07B68B1D1F821
:1021F000840840F00B01C5F88418D5F8440840F075
:102200000B012846C5F844180DE0D5F8140842F231
:102210002B010843C5F81408D5F8100840F00B014D
:102220002846C5F81018D0F8000820F4FE61C5F85B
:102230000018A1792068009A07F04CFA20684169DB
:1022400001F480514161206807F0E8FC800415D555
:10225000206807F07FF8206807F0A7FCE07101F024
:102260008FFCE2790146206807F03CFD204600F033
:1022700073F92068416901F400514161206807F059
:10228000CDFC000707D5204600F080F920684169A1
:1022900001F008014161206807F0C0FC00061FD56D
:1022A000A969012021F08001A96116E000EBC001BD
:1022B00004EB810191F8571201290DD105EB401172
:1022C000D1F8002B42F00062C1F8002BD1F8002BAE
:1022D00042F08042C1F8002B401C21798142E5D8B0
:1022E000206807F09BFCC0021FD501264F4614E072
:1022F00006EBC60105EB461004EB8102D0F800099D
:10230000117E012908D1002806DAF0B2D77540F015
:1023100080012046FFF76DFC761C2079B042E7D89B
:102320002068416901F480114161206807F076FC62
:10233000800234D5012001E00A30544F4A4626E09D
:1023400000EBC00305EB401104EB8306D1F8001B42
:1023500096F85832012B19D1002917DA94F8D434A1
:10236000C1F3004103F001038B420FD186F85722DD
:10237000A96941F08003AB616969090606D4D5F803
:10238000040840F40070C5F8040803E0401C2179FB
:102390008142D5D82168486900F40010486120685E
:1023A00007F03CFC400007D52046FFF707FC2068FB
:1023B000416901F080414161206807F02FFC40072E
:1023C0000AD520684568680702D52046FFF70DFC4E
:1023D0002068416829434160BDE8FC9FD0F8E004D3
:1023E00006F001BBD0F8E00406F011BBF8B504001C
:1023F00004D094F89504002510B106E00120F8BD42
:10240000204684F8945400F057F8032084F895048B
:10241000206807F059F9207C8DF8000094E80F003F
:1024200006F0A6FF0226B0BB2068002107F01AFCC8
:1024300088BB002001270CE000EBC001421C04EB2C
:1024400081014F750D76CD610D624D620875C885AD
:10245000D0B221798142EFD8002011E000EBC00119
:10246000421C04EB810181F8555281F85852C1F8A1
:102470005C52C1F86052C1F8645281F85402D0B283
:1024800021798142EAD8207C8DF8000094E80F0081
:1024900007F064F810B184F89564AFE7207B6574A9
:1024A00084F89574012802D12046FFF74BFB206881
:1024B00007F046F80020F8BD10B5B6B00446142168
:1024C00030A8FDF7B1FFC0216846FDF7ADFF1F49F9
:1024D0002068884237D100204FF48021CDE90010D8
:1024E0008A006846229200F019FD08B1FEF79EF8B6
:1024F00000F0CEF81648016841F001010160006863
:102500000DF1C00C022100F00100359000220323E0
:102510000A244FF4C0508CE81F000E4830A9FEF783
:102520008BFE0B480838016841F0006101600068CB
:102530000022114600F0006035906520FFF7D0FAC8
:102540006520FFF7C0FA36B010BD0000000008405B
:10255000E04402580000025870B50446C0790125D5
:1025600070B1022801D0FEF761F8D4F8E0042946E2
:1025700006F0BDFAD4F8E004BDE8704006F070BA89
:102580000025F2E7D0F8E00406F09ABAD0F8E004AB
:1025900006F0A0BA10B5044690F8940401280AD0B9
:1025A0000120617484F89404206807F08AFB0020FD
:1025B00084F8940410BD022010BDD0F8E02400F28D
:1025C0009C41104606F09FBA10B590F8941404464A
:1025D0000068012909D0012184F89414C1684906D2
:1025E00009D5617B012902D005E0022010BD816B75
:1025F00041F480318163206807F097FA206806F083
:1026000091FF002084F8940410BD000010B504462A
:10261000D0F8E00406F0B9FA2068D0F8001E41F0C6
:102620000101C0F8001EE07A002804D002480168C9
:1026300041F00601016010BD10ED00E0134970B5D6
:102640000A68D243520705D5096801F007018142A3
:1026500013D118E00A6822F0070202430A60FEF76D
:102660001DFF0A4D4FF47A760446083D07E000BF8F
:10267000FEF714FF001BB04201D9012070BD28688D
:10268000C0438004F4D4002070BD00000C48025800
:102690000248016841F08071016070470C4802589F
:1026A000F8B50446FEF7FAFE05461CB194F8410061
:1026B00010B107E00120F8BD204600F047F841F2D4
:1026C0008830A06420686FF0FF02A168036802EB05
:1026D000012223F4F85111430160A06C0022202153
:1026E0002B460090204603F0FFFE0028E3D122682D
:1026F000D4E907352679E168176845EA0665DFF809
:1027000044C01943104B29430025012607EA0C0752
:10271000394311602268D4E90517B4F810C0D2F823
:1027200004E039430EEA030E4EEA0C4319435160AC
:1027300021680A6842F001020A60656484F8416019
:10274000F8BD00002FFFFF00FEF8E0FF2DE9F04785
:10275000B6B00446142130A8FDF766FEC0216846D5
:10276000FDF762FE3949206888426BD100204FF0A6
:10277000007110221392CDE90010684600F0CEFBE4
:1027800008B1FDF753FF3248016841F48041016010
:10279000006800F4804035902D480C30016841F00D
:1027A00010010160016801F010013591016841F0EC
:1027B00020010160016801F020013591016841F0BC
:1027C000020101600068002404273097022500F010
:1027D0000200CDE9315409263394CDE934601D4817
:1027E00030A9FEF729FDDFF870A04FF04008CDF8C2
:1027F000C08030A9CDE93154CDE933465046FEF7CB
:102800001BFD4FF440704FF00A09309030A9CDE91C
:102810003154CDE933495046FEF70EFD309730A9CB
:10282000CDE93154CDE933460C4E3046FEF704FD78
:10283000CDF8C08030A9CDE93154CDE933493046D7
:10284000FEF7FAFC36B0BDE8F087000000500052F9
:10285000D4440258001002580014025800040258D0
:1028600010B501F08DF905490968054AC1F3021157
:10287000515C01F01F01C84010BD00002044025807
:102880002E9F00084A4930B5494C0B1D0A680C348C
:1028900009681D68246802F0030305F00102C1F312
:1028A0000511C4F3CC04002914FB02F200EE102A37
:1028B000F8EE400A76D0414A9FED3E1ADFED3E1A0F
:1028C000B7EE000A23B1012B5AD0022B18D15CE0DD
:1028D000374C283C23689B0612D5394B246801EEFF
:1028E000901A1168C4F3C104F8EE612AE34001EEC6
:1028F000903AC1F30801F8EE611A81EEA22A07E0CE
:1029000002EE101A1168F8EE422A81EEA22A45E082
:1029100001EE901A1168F8EE611A40EE811A71EE1C
:10292000800A62EE200AC1F3462101EE101AB8EEC9
:10293000411A31EE001AC0EE811ABCEEE11A80EDA8
:10294000001A1168C1F3064101EE101AB8EE411ADF
:1029500031EE001AC0EE811ABCEEE11A80ED011AC8
:102960001168C1F3066101EE101AB8EE411A31EE9A
:10297000000A80EE801ABCEEC10A80ED020A30BD6A
:1029800001EE901ADFED0F2A03E001EE901ADFED61
:102990000E2A1168F8EE611A82EEA12AC1F308012D
:1029A000B6E7FFE7002101604160816030BD0000B3
:1029B00028440258000000390024744C3044025866
:1029C0000090D0030024744A20BCBE4B494930B566
:1029D000484C0B1D0A68143409681D68246802F00D
:1029E0000303C5F30012C1F30531C4F3CC0400297D
:1029F00014FB02F200EE102AF8EE400A75D03F4AAE
:102A00009FED3D1AB7EE000A6BB1DFED3D1A012BC9
:102A100001D0022B64D002EE101A1168F8EE422A9F
:102A200081EEA22A21E0334C283C23689B0612D574
:102A3000344B246801EE901A1168C4F3C104F8EE17
:102A4000612AE34001EE903AC1F30801F8EE611A01
:102A500081EEA22A0BE001EE901ADFED2B2A00BFD7
:102A6000F8EE611A116882EEA12AC1F3080101EEA5
:102A7000901A1168F8EE611A40EE811A71EE800A20
:102A800062EE200AC1F3462101EE101AB8EE411A97
:102A900031EE001AC0EE811ABCEEE11A80ED001A88
:102AA0001168C1F3064101EE101AB8EE411A31EE79
:102AB000001AC0EE811ABCEEE11A80ED011A11680D
:102AC000C1F3066101EE101AB8EE411A31EE000AA8
:102AD00080EE801ABCEEC10A80ED020A30BD04E02F
:102AE00001EE901ADFED092ABAE70021016041608A
:102AF0008160F3E728440258000000393844025846
:102B00000024744A0090D0030024744C20BCBE4BB7
:102B1000494930B5484C0B1D0A681C3409681D68CA
:102B2000246802F00303C5F30022C1F30551C4F386
:102B3000CC04002914FB02F200EE102AF8EE400A41
:102B400075D03F4A9FED3D1AB7EE000A6BB1DFED3D
:102B50003D1A012B01D0022B64D002EE101A11682D
:102B6000F8EE422A81EEA22A21E0334C283C236869
:102B70009B0612D5344B246801EE901A1168C4F3F9
:102B8000C104F8EE612AE34001EE903AC1F3080176
:102B9000F8EE611A81EEA22A0BE001EE901ADFED49
:102BA0002B2A00BFF8EE611A116882EEA12AC1F348
:102BB000080101EE901A1168F8EE611A40EE811AD0
:102BC00071EE800A62EE200AC1F3462101EE101A6E
:102BD000B8EE411A31EE001AC0EE811ABCEEE11ACD
:102BE00080ED001A1168C1F3064101EE101AB8EE2B
:102BF000411A31EE001AC0EE811ABCEEE11A80EDE6
:102C0000011A1168C1F3066101EE101AB8EE411AFB
:102C100031EE000A80EE801ABCEEC10A80ED020A95
:102C200030BD04E001EE901ADFED092ABAE7002179
:102C3000016041608160F3E72844025800000039D8
:102C4000404402580024744A0090D0030024744C7D
:102C500020BCBE4B2DE9F04FAC4A0546DFF8A8A2D8
:102C600080F48070DFF8AC9289B01311AA4C08434D
:102C7000A748AAF104064FF0805C4FF000582CD012
:102C800085F400770F4357D0DFF87CB285F4806776
:102C90000F430BF1080B61D085F400670F4374D02C
:102CA00085F480570F436ED085F400570F434FF4DF
:102CB00080394FF4003E67D085F400270F4371D070
:102CC00085F480370F436ED085F480460E436BD079
:102CD00085F400420A4368D02AE0DAF8001001F0D7
:102CE0000701052924D2DFE801F075BC7D25B1007C
:102CF00006A8FFF7C7FD079809B0BDE8F08F684642
:102D0000FFF764FE0098F7E703A8FFF701FF0398B9
:102D1000F2E72068C0F3C10022FA00F0ECE7226875
:102D2000D20571D561456FD11846E5E74145E3D03D
:102D30000020E1E74846DFE7DAF8001001F4E0712F
:102D400080294FD004DC002944D04029F0D188E00C
:102D5000C029EFD0B1F5807FEAD177E0DBF8001031
:102D600001F46001B1F5800F3CD004DC91B3B1F502
:102D7000001FDDD175E0B1F5C00FDBD0B1F5000F5C
:102D8000D6D163E001E018E030E0DBF8001001F09C
:102D9000E061B1F1007F25D008DCD9B1B1F1807FCD
:102DA000C6D15EE049E06CE079E09CE0B1F1407FA3
:102DB000C0D0B1F1806FBBD148E0DAF8001001F467
:102DC000E041B1F5005F0DD005DC19B1B1F5805FD0
:102DD000AED146E094E0B1F5405FABD0B1F5804FA5
:102DE000A6D133E020688000A2D58DE7DAF8001084
:102DF00001F4E021B1F5403F6CD006DC61B14945FA
:102E00007AD0714594D157E037E0B1F5802F65D085
:102E1000B1F5A02F8CD10CE000F0D4FE6CE7684631
:102E2000FFF7D4FD019867E703A8FFF771FE049848
:102E300062E721688903F1D47AE7DBF8001011F426
:102E400040310ED0494510D07145F5D13168256823
:102E500001F040516D077FF562AF00297FF45FAF4D
:102E600057E720680001E7D549E720688000E3D5EF
:102E700003A8FFF74DFE05983EE722689203DBD5D5
:102E800054E7306810F480303AD04845D4D12068F7
:102E90000001D1D56846FFF799FD02982CE7DBF8D1
:102EA000001001F0E041B1F1405F13D008DC71B1D6
:102EB000614521D04145BFD120688000B4D437E7B7
:102EC000B1F1804F0AD0B1F1A04FB2D030E7FFF797
:102ED000C7FC11E720684007AED51AE72068C00597
:102EE000AAD521E708E0DAF8001011F04051A0D08F
:102EF000614505D041459FD1206800018FD417E777
:102F00002068800198D5F3E6504402580090D00321
:102F100040787D010080BB00004402582DE9FE4F3F
:102F20000546DFF8E48350F8081B0024F64FC94338
:102F3000019005F12800264608F1240800900801B8
:102F40001DD4A86E50B1B0F5801F0CD0B0F5001F95
:102F50000ED0B0F5401F1ED001240FE0386840F4B9
:102F60000030386017E00198022103F0E1FA03E035
:102F70000098022103F06CFB04000CD02646288840
:102F8000C043C00523D4A86D05281ED2DFE800F099
:102F90000C11161B1B00AA6ED8F8001021F440116A
:102FA0001143C8F80010EAE7386840F40030386090
:102FB00009E00198002103F0BBFA03E0009800212A
:102FC00003F046FB044674B100E00124264628883D
:102FD000C043800528D4E86D80281ED00CDC90B159
:102FE00040280ED114E0AA6DD8F8001021F0070196
:102FF0001143C8F80010EAE7C02813D0B0F5807F6D
:1030000010D001240FE0386840F40030386009E047
:103010000198002103F08CFA03E00098002103F0EE
:1030200017FB04469CB126462888DFF8DC92C04393
:1030300009F12C0940052CD4D5F8A800B0F5800F73
:1030400020D00DDCA0B1B0F5001F0FD115E0EA6D66
:10305000D8F8001021F4E0711143C8F80010E3E73C
:10306000B0F5C00F13D0B0F5000F10D001240FE061
:10307000386840F40030386009E00198002103F01E
:1030800057FA03E00098002103F0E2FA04467CB10D
:1030900026462888C04300052DD4D5F8AC00B0F1F1
:1030A000007F21D00EDCA8B1B0F1807F10D116E0F6
:1030B000D5F8A820D9F8001021F460011143C9F80F
:1030C0000010E6E7B0F1407F13D0B0F1806F10D070
:1030D00001240FE0386840F40030386009E00198BE
:1030E000002103F025FA03E00098002103F0B0FA74
:1030F000044674B126462868C04380011FD4E86C9A
:10310000D8B110280FD0202812D0302815D0012493
:1031100014E0D5F8AC20D9F8001021F0E06111439B
:10312000C9F80010E7E7386840F40030386004E080
:103130000198022103F0FCF9044674B12646288860
:10314000C043C0042BD4286EB0F5005F20D00DDC46
:10315000A0B1B0F5805F0FD115E06B48EA6C20306C
:10316000016821F0300111430160E8E7B0F5405FEC
:1031700013D0B0F5804F10D001240FE0386840F430
:103180000030386009E00198002103F0D1F903E034
:103190000098002103F05CFA04468CB1264628888A
:1031A000C043800429D4686EB0F5403F23D010DCC2
:1031B00008B3B0F5803F14D0B0F5003F0FD115E053
:1031C0002A6ED8F8001021F4E0411143C8F800102D
:1031D000E5E7B0F5802F0ED0B0F5A02F0BD001247D
:1031E0000AE00198012103F0A3F903E0009801210E
:1031F00003F02EFA044694B126462888C0434004C2
:103200002AD4D5F8B000B0F1405F23D010DC08B369
:10321000B0F1805F14D0B0F1005F0FD115E06A6E9D
:10322000D8F8001021F4E0211143C8F80010E4E7B9
:10323000B0F1804F0ED0B0F1A04F0BD001240AE0C6
:103240000198012103F074F903E00098012103F0D3
:10325000FFF9044674B126462888C04300041FD4F1
:10326000286FD8B1B0F1805F0ED0B0F1005F10D000
:10327000012414E0D5F8B020D9F8001021F0E04185
:103280001143C9F80010E7E7386840F400303860AF
:1032900004E00198012103F04BF9044674B126467D
:1032A0002868C043C0011ED4A86CD0B101280ED03C
:1032B000022811D0032814D0012413E02A6FD8F873
:1032C000001021F040511143C8F80010E8E73868B9
:1032D00040F40030386004E00198022103F028F93E
:1032E0000446ACB126462868DFF81CB0C043ABF1F9
:1032F0001C0B400252D40548016841F48071016002
:10330000FEF7CCF8824611E02C44025800480258DF
:10331000FA48AA6C016821F0030111430160E2E759
:10332000FEF7BCF8A0EB0A00642835D8F448006822
:10333000C005F5D58CBBDFF8C4A3B5F8B4100AF10D
:10334000240ADAF8000001F4407100F44070884269
:1033500011D0DAF80010DAF8002021F4407142F4BC
:103360008032CAF80020DAF8002022F48032CAF84D
:103370000020CAF80010D5F8B400B0F5807F1AD14B
:10338000FEF78CF8029012E0FEF788F80299411AD5
:1033900041F2883081420AD9032426462878DFF892
:1033A0005CA3C0430AF1080AC00721D03CE0DAF868
:1033B00000008007E8D5D5F8B410C1F30120032838
:1033C00058460DD0016821F47C510160B5F8B42055
:1033D000DAF80010C2F30B021143CAF80010DDE75F
:1033E000C84A036802EA111223F47C511143ECE746
:1033F000E86F182816D005DCA0B1082808D01028DE
:1034000004D10AE020280DD028280BD001240AE09E
:103410000198012103F08CF803E00098012103F0EA
:1034200017F9044664B126462878C04380071ED4A5
:10343000A86F062819D2DFE800F0160C1116161630
:10344000EA6FDAF8001021F038011143CAF80010D1
:10345000EAE70198012103F06BF803E000980121ED
:1034600003F0F6F804467CB100E0012426462878F3
:10347000C04340071FD4D5F89400062819D2DFE8CE
:1034800000F0160C11161616AA6FDAF8001021F0CB
:1034900007011143CAF80010E9E70198012103F080
:1034A00047F803E00098012103F0D2F80446A4B1E4
:1034B00000E0012426462878C04380062BD4D5F8A6
:1034C0009000B0F1405F24D011DC10B3B0F1805F08
:1034D00015D0B0F1005F10D116E0D5F89420D9F8DE
:1034E000001021F007011143C9F80010E3E7B0F123
:1034F000804F0ED0B0F1A04F0BD001240AE001980C
:10350000002103F015F803E00098022103F0A0F871
:10351000044694B126462878C04340062BD4D5F8FB
:103520009C00B0F5406F24D011DC10B3B0F5806F73
:1035300015D0B0F5006F10D116E0D5F89020DAF86C
:10354000001021F0E0411143CAF80010E3E7B0F5A4
:10355000805F0ED0B0F5A05F0BD001240AE0019887
:10356000002102F0E5FF03E00098022103F070F86B
:10357000044694B126462878C04300062BD4D5F8DB
:10358000A000B0F5C04F24D011DC10B3B0F5005F3F
:1035900015D0B0F5804F10D116E0D5F89C20D9F8A1
:1035A000001021F4E0511143C9F80010E3E7B0F531
:1035B000004F0ED0B0F5204F0BD001240AE0019847
:1035C000002102F0B5FF03E00098022103F040F86B
:1035D000044654B126462878C04300071ED4D5F8C7
:1035E0008400B0F5805F0AD00FE0D5F8A020D9F8AC
:1035F000001021F460411143C9F80010EBE7009876
:10360000022103F025F800B10126D5F88420DAF86C
:10361000001021F440511143CAF800102878C0432B
:10362000C00613D4D5F89800B0F5807F05D1009876
:10363000022103F00DF800B10126D5F89820D9F841
:10364000001021F440711143C9F800102868C043EC
:10365000000316D4D5F8A40038B1B0F5803F09D0E6
:10366000B0F5003F0BD001240AE00198002102F0E0
:103670005FFF03E00098022102F0EAFF04468CB1EC
:1036800026462868C043400322D4D5F88800B0F508
:10369000801F11D0B0F5001F13D0B0F5401F15D01A
:1036A000012414E0D5F8A420D9F8001021F4403109
:1036B0001143C9F80010E4E7386840F4003038607E
:1036C00004E00098012102F0C3FF04465CB12646E5
:1036D0002868C043C00323D4286DA8B1B0F5803F4B
:1036E00017D001241BE0D5F88820DAF8001021F467
:1036F00040111143CAF80010EAE700004C44025898
:1037000000480258CFFFFF00386840F400303860AE
:1037100004E00198022102F00BFF0446E4B12646C2
:103720002868C043800005D40098022102F090FF71
:1037300000B101262868C04380031BD4D5F880005F
:10374000B0B1B0F5807F0FD0B0F5007F10D0B0F5EC
:10375000407F0DD001240CE05A482A6D016821F405
:10376000803111430160DBE7386840F40030386095
:10377000ECB326462868C043C00207D46A6FD8F865
:10378000001021F000411143C8F800102868C04320
:10379000C00008D4D5F8B820DBF8001021F480412F
:1037A0001143CBF800102868C043800207D4EA6EAA
:1037B000D8F8001021F080711143C8F80010286873
:1037C000C04340000CD4DBF8001021F40041CBF8DA
:1037D0000010DBF80010D5F8BC201143CBF8001026
:1037E0002868C04308D437486A6D016800E018E0D3
:1037F00021F04051114301602868C043000208D401
:10380000D5F88C20DAF8001021F440011143CAF8F1
:10381000001028790024C04300F0010020430AD0A2
:103820000FE0D5F88020DAF8001021F44071114340
:10383000CAF800109EE70198002102F079FE00B15D
:1038400006462879C04300F00200204305D10198C4
:10385000012102F06DFE00B106462879C04300F058
:103860000400204305D10198022102F061FE00B15D
:1038700006462879C04300F00800204305D100988F
:10388000002102F0E5FE00B106462879C04300F0B1
:103890001000204305D10098012102F0D9FE00B1AB
:1038A00006462879C04300F02000044304D1009864
:1038B000022102F0CDFE00B916B10120BDE8FE8F55
:1038C0000020FBE74C4402582DE9F05F04000F464E
:1038D0007ED0DFF83882D8F8000000F00F00B84240
:1038E0000CD2D8F8001021F00F013943C8F80010AD
:1038F000D8F8000000F00F00B84269D12078844D5C
:1039000040070AD52069296801F07001884204D96E
:10391000296821F070010143296020787C4E361D12
:1039200000070AD56069316801F07001884204D946
:10393000316821F07001014331602078C0060AD55A
:10394000A069316801F4E061884204D9316821F44A
:10395000E061014331602078DFF8B4B180060BF1FB
:10396000080B0CD5E1695846DBF8002002F0700224
:10397000914204D9026822F070020A430260207862
:1039800080070AD5E068296801F00F01884204D950
:10399000296821F00F01014329602078C0073ED03B
:1039A0005B49A2682868183920F4706010432860C9
:1039B0006068022818D0032819D00968012819D096
:1039C000490700294ADADFF848A1AAF1080A00E00D
:1039D00044E0DAF8002022F007020243CAF800208F
:1039E000FDF75CFD814612E009688903E9E7096893
:1039F0008901E6E7C905E4E7FDF750FDA0EB090101
:103A000041F28830814202D90320BDE8F09F61680D
:103A1000DAF8000000F03800B0EBC10FECD12078EC
:103A200080070AD5E068296801F00F01884204D2B6
:103A3000296821F00F0101432960D8F800104046A1
:103A400001F00F01B9420BD9016821F00F01394390
:103A50000160006800F00F00B84201D00120D4E7F7
:103A6000207840070AD52069296801F07001884252
:103A700004D2296821F070010143296020780007F1
:103A80000AD56069316801F07001884204D231685A
:103A900021F07001014331602078C0060AD5A06989
:103AA000316801F4E061884204D2316821F4E061B8
:103AB00001433160207880060CD5E1695846DBF877
:103AC000002002F07002914204D2026822F07002DB
:103AD0000A43026000F09AF80E492A682B68C2F384
:103AE000032203F00F038A5CC95C02F01F0201F09D
:103AF0001F01D040084A20FA01F11160074908600F
:103B000007480068BDE8F05FFDF712BE00200052D4
:103B1000184402582E9F0008200000241C00002496
:103B20001400002470B5144C3F220260124A24682D
:103B30000832131D114D04F00704446016681C1D63
:103B400006F470668660166806F00F06C660126896
:103B500002F0700202611A6802F0700242611A6893
:103B600002F4E0628261226802F07002C261286899
:103B700000F00F00086070BD104402580020005291
:103B800030B500F043F80B4A0B490C4B156814682C
:103B9000C5F3032204F00F048A5C095D02F01F02E2
:103BA00001F01F01D040064A20FA01F119601060AF
:103BB000084630BD184402582E9F000820000024FB
:103BC0001C00002400B5FFF7DBFF05490968054A22
:103BD000C1F30211515C01F01F01C84000BD00009B
:103BE0001C4402582E9F000800B5FFF7C9FF054985
:103BF0000968054AC1F30221515C01F01F01C84068
:103C000000BD00001C4402582E9F0008454970B5B5
:103C100045480968434B103B11F0380208D00111A8
:103C2000082A03D0102A0BD0182A0BD0084670BDE2
:103C300019688906FBD51968C1F3C101C84070BD78
:103C40003A4870BD3749374D18310C1D24350A6884
:103C5000096826682D6802F0030406F00102C1F32A
:103C60000511C5F3CC0515FB02F200EE102AB8EEE3
:103C7000400AE9B32F4ADFED2E0AB7EE001A6CB105
:103C8000DFED2D1A012C01D0022C43D002EE101AC8
:103C90001068F8EE422A81EEA22A1EE01C68A406F3
:103CA00011D51B6801EE901A1168C3F3C103F8EE39
:103CB000612AD84001EE900AC1F30800F8EE611ABB
:103CC00081EEA22A0BE001EE901ADFED1C2A00BF64
:103CD000F8EE611A106882EEA12AC0F3080001EE26
:103CE000900AF8EE611A40EE201A31EE810A00E0E7
:103CF00015E022EE000A1068C0F34620401C00EEDA
:103D0000900AF8EE600A80EE201ABCEEC10A10EEAE
:103D1000100A70BD01EE901ADFED092AD8E70020E5
:103D200070BD0000104402580090D00340787D011F
:103D300000000039304402580024744A0024744CB6
:103D400020BCBE4B2DE9F05F04007DD0FF4F2078F2
:103D5000FE4D1837DFF8F493103DC00748D0D9F86E
:103D60000000396800F03800102815D0182803D159
:103D700001F0030002280FD06068B0F5803F12D038
:103D800010B1B0F5A02F18D0286820F4803028603A
:103D9000286820F4802009E02868800328D560681E
:103DA0000028D2D024E0286840F480302860606881
:103DB00088B1FDF773FB064609E0286840F48020CF
:103DC0002860F0E7FDF76AFB801B64286FD828683D
:103DD0008003F7D50CE0FDF761FB064605E000BF68
:103DE000FDF75CFB801B6428F0D828688003F7D4BB
:103DF000207841F20308D54E0C3E800769D5D9F8EA
:103E00000000396810F038000ED0182801D188075A
:103E10000AD0E06890B3296821F0190101432960B4
:103E2000FDF73CFB824631E02868400702D5E06898
:103E300000288AD0E168286820F01900084328602B
:103E4000FDF72CFB824607E0DFE000BFFDF726FB15
:103E5000A0EB0A000228B9D828684007F6D500BFB1
:103E6000FDF716FB40451BD82069402812D0316869
:103E700021F47C3141EA003030602AE018E000BFD4
:103E8000FDF70CFBA0EB0A0002289FD8286840072A
:103E9000F6D5E5E7306820F47C3040F40030EBE7FD
:103EA000207C316821F0FE4141EA0060E4E70DE149
:103EB000286820F001002860FDF7F0FA824605E04E
:103EC000FDF7ECFAA0EB0A0002288DD8286840071D
:103ED000F6D42078C0065DD5D9F80000DFF86CB2C2
:103EE000396800F03800ABF1040B082810D018280E
:103EF00003D101F0030001280AD0E06900282868F6
:103F000038D040F080002860FDF7C8FA824623E0F0
:103F10002868C00523D5E069802876D11FE0206A93
:103F2000202821D0316821F0F84141EA80603060DA
:103F300030E000BF94F82010DBF8002022F07C5223
:103F400042EA0161CBF8001024E000BFFDF7A6FAB9
:103F5000A0EB0A00022898D82868C005F6D5FDF71E
:103F600097FA4045E6D8DAE7306820F0F84040F0AC
:103F70008040DCE720F080002860FDF78FFA0646DD
:103F800005E000BFFDF78AFA801B02289DD828684B
:103F9000C005F7D42078000729D56C4861696430E2
:103FA00000298046016811D041F001010160FDF750
:103FB00075FA064605E000BFFDF770FA801B02287F
:103FC000C9D8D8F800008007F6D510E021F001012B
:103FD0000160FDF763FA064605E000BFFDF75EFAF3
:103FE000801B022872D8D8F800008007F6D4207809
:103FF000800623D5A0690028286810D040F480509E
:104000002860FDF74BFA064605E036E1FDF746FA73
:10401000801B02285AD828688004F7D50EE020F4C7
:1040200080502860FDF73AFA064604E0FDF736FABC
:10403000801B02284AD828688004F7D420784007DB
:104040004FD5DFF80C81D8F8001041F48071C8F822
:104050000010FDF723FA064605E000BFFDF71EFA43
:10406000801B642832D8D8F80000C005F6D5374E3A
:10407000A068603601280AD008B1052813D030683E
:1040800020F001003060306820F0040002E0306869
:1040900040F001003060A06841F2883A90B1FDF72D
:1040A000FDF980460AE0306840F004003060EEE739
:1040B000FDF7F4F9A0EB0801514507D830688007F7
:1040C000F6D50EE0FDF7EAF9804607E084E000BF90
:1040D000FDF7E4F9A0EB080151457DD83068800771
:1040E000F6D4606AB0B3DFF86480D9F8001008F144
:1040F00020084FF6F87B08F10409C1F3C201032937
:10410000A8F1040A69D00228286820F0807028608D
:1041100003D0FDF7C3F9044684E0FDF7BFF9064676
:1041200005E000BFFDF7BAF9801B022877D82868A0
:104130008001F7D4E26A40F2F331386854F8283F3E
:10414000884340EA02101843386004E010440258E3
:1041500000480258B5E0217B434622894FF4FE0C0B
:10416000208A4FF0FE474902267D521E401EA1F5CF
:104170000071C2F308088AB2761E0CEA004042EAD7
:1041800008020243504607EA06610A431A60DAF859
:10419000002022F00102CAF80020D9F80020266A87
:1041A00022EA0B0242EAC602C9F80020DAF800103F
:1041B000A26921F00C011143CAF800100168E269FC
:1041C00021F0020111430160016841F48031016076
:1041D000016841F4003101E021E027E0016001685D
:1041E00041F480210160016841F00101016028680B
:1041F00040F080702860FDF751F9044605E000BFEB
:10420000FDF74CF9001B022809D828688001F7D572
:1042100057E000BFFDF742F9001B022802D9032036
:10422000BDE8F09F28688001F4D44AE0396801288D
:10423000D8F8000021D0A26A01F0030393421CD1F8
:10424000E26AC1F305118A4217D1216BC0F308025B
:10425000491E8A4211D1616BC0F34622491E914228
:104260000BD1A16BC0F30642491E914205D1E16B0F
:10427000C0F30660491E814201D00120D0E7A16C45
:104280004E46D9F80000C0F3CC00814219D0DAF8CC
:104290000000554620F00100CAF80000FDF7FEF8C6
:1042A0004FEA0007FDF7FAF8B842FBD0A26C30687D
:1042B00020EA0B0040EAC2003060286840F00100AC
:1042C00028600020ACE770477047704770470000D7
:1042D0002DE9FC5F0446806B0E46032184F8301004
:1042E000002703285CD0B6F5004F59D0B6F5804FB3
:1042F0004FF000054FF400684FF0806904D006B31A
:10430000606B40F000603FE000950021019520685F
:1043100003F0DAFA80011CD46946204603F02AFB38
:1043200070BB019840032DD5B4F8441020680904EF
:1043300002F07EFF20BB206802211DE0606B284355
:1043400022E0009500210195206803F0BDFA80016C
:1043500001D54546F2E76946204603F00BFB78B9E4
:104360000198C0030ED5B4F844102068090402F087
:104370005FFF28B92068002102F0A4FF0028DDD0EB
:104380000546DBE74D46D9E76063606B4FF4007B81
:10439000DFF8B8A040B121680127C1F838A042E099
:1043A000606B40F08050EFE700214FF48030FEF763
:1043B00051FC010032D0264D3346D4E904C0B1FB94
:1043C000F5F8D4E90192804510D9A66D5E450DD06F
:1043D000B6F5807F11D04FEA6506E0B14FEA40089C
:1043E000B1FBF8F8B04501D9B1FBF5F04946CDE98C
:1043F00000C0206803F06CFA15E0164E30B14FEAA9
:104400004008B1FBF8F8A84502D8EFE7A942EDD97A
:10441000B1FBF6F0EAE7B142E6D8E7E7606B0127C7
:1044200040F0006060632068594602F032FF30B10E
:1044300022680127C2F838A0616B01436163012043
:1044400084F830003846BDE8FC9F0000FF0FE01FF5
:1044500080F0FA0200E1F50510B504000DD003204C
:1044600084F83000206803F043FA204600F038FB5F
:104470000020606384F8300010BD012010BD70473B
:10448000F0B5C26D920F0A70C26DC2F383624A70BA
:10449000C26DC2F301628A70C26D120CCA70B0F8AC
:1044A0005C20120A0A7190F85C204A71026E120DAB
:1044B000CA80026EC2F303420A72B0F86020C2F3EF
:1044C000C0324A72B0F86020C2F380328A72B0F80B
:1044D0006020C2F34032CA72B0F860200026C2F3F6
:1044E00000320A734E730122836B4FF4007463B180
:1044F000012B3AD0036850499963416B41F08051D8
:10450000416380F830200120F0BDB0F86030456E86
:104510009B051B0D43EA95730B61436EC3F3C263A6
:104520000B75436EC3F302634B75436EC3F3425383
:104530008B75436EC3F38243CB75436EC3F3C233B3
:104540000B760D696D1C85640B7E03F007039B1CC5
:104550009D4085640B7A446503F00F0302FA03F370
:104560005F0A7D43C0E913350EE090F86050436E5A
:10457000AD06AD0A45EA13430B610B695B1C9B0258
:104580008364C0E913434465B0F86430C3F38033F7
:104590004B76B0F86430C3F3C6138B7690F8643072
:1045A00003F07F03CB76836EDB0F0B77836EC3F351
:1045B00041734B77836EC3F382638B77836EC3F350
:1045C0008353CB77836EC3F3405381F8203081F857
:1045D0002160836EC3F3004381F82230B0F8683065
:1045E000C3F3C03381F82330B0F86830C3F38033AD
:1045F00081F82430B0F86830C3F3403381F82530B7
:10460000B0F86830C3F3003381F82630B0F8683072
:10461000C3F3812381F82730B0F86830C3F3012356
:1046200081F8283090F86800C0F3460081F829002E
:1046300081F82A200020F0BDFF0FE01F70B5B0F810
:104640004410002504460068090402F028FF18B150
:10465000616B0143616304E02068002103F034F9D9
:104660000546C5F3432070BD2DE9F041054690F89D
:10467000300090B00C460026032810D0694628462A
:1046800003F0C0FA2A4F4FF0010860B12A680126F2
:1046900097636A6B02436A6385F8308039E00120D2
:1046A00010B0BDE8F08100994FF47F40C1F3811153
:1046B00021700099C1F340116170009900EA112244
:1046C00042EA11616180019909BA6160029921721F
:1046D0000299090A61720299C1F30351A172DDE9DD
:1046E000022100EA1240C9B20843A0810398C0F336
:1046F0008520A0730398C0F30120E0730398C0F3F2
:1047000003102074039800F00F0060740498000EEA
:10471000A07428684FF4007102F0BBFD28B12A682C
:1047200001269763686385F830803046B8E700005B
:10473000FF0FE01F2DE9F84304460068E56A416B6E
:1047400009041BD5290719D5D4E90950202813D30A
:104750000026206803F0D8F8020A2870010C6A705D
:10476000030EA970761CEB70082E05F10405F0D33A
:10477000A06A2038C4E90950BDE8F883416B0127DD
:10478000DFF8EC810026C90551D539024CF23A1206
:10479000816329072068C16B21EA0201C163206897
:1047A000C16B21F08051C1632068C16821F04001D4
:1047B000C16018D515F0220F09D0206802F0BCFEA8
:1047C00028B1616B014361632046FFF758FE216801
:1047D000AA07C1F8388084F83070E66223D12046F9
:1047E00000F0E5FAC8E72806C6D5206815F0220FC4
:1047F00086622068C6622068066509D0206802F0DB
:104800009BFE28B1616B014361632046FFF737FED1
:1048100015F0300F84F83070E66202D0204600F0C8
:10482000C6FAA807A8D0204600F0C0FAA4E7416B5A
:10483000490421D529071FD5D4E9075020289BD347
:10484000002628780090697840EA01200090A97835
:1048500040EA01400090E9782D1D40EA0160009097
:104860002068694603F068F8761C082EE9D3206AB0
:104870002038C4E907507FE7416B11F03A0F416BD4
:1048800058D0890703D5616B41F002016163416B28
:10489000090703D5616B41F008016163416B89062B
:1048A00003D5616B41F020016163416BC90603D5FB
:1048B000616B41F010016163C0F838802068C16B02
:1048C00021F49D71C1632068C16821F04001C1607D
:1048D0002068C16A41F40051C1622068C16841F09A
:1048E0008001C160206802F027FE626B2B074FF445
:1048F000006140EA020060632068C26822F0800222
:10490000C2602068816303D584F83070E6620DE0F0
:1049100028068BD5606B002888D02068C16B21F0F9
:104920008051C1632068066584F830702046FFF727
:10493000A6FD21E7C9009ED54FF080518163206814
:10494000006D40074FEA856008D40028204602DA4F
:10495000FFF7BCFC10E7FFF7B7FC0DE70028204687
:1049600002DAFFF7B2FC07E7FFF7ADFC04E700004F
:104970003A0F0018F0B5040085B020D094F830004C
:10498000002518B92046257600F0CCF8042084F8DC
:104990003000204600F03CF888B969462046FFF711
:1049A00063FE60B99DF81010A26B9DF81100012AFA
:1049B00008D0A5652046E168FFF78AFC58B10120C0
:1049C00005B0F0BD014302D04FF4007001E04FF498
:1049D0008070A065EEE7FCF761FD0127064604E064
:1049E000FCF75CFD801B401C0AD02046FFF726FE2A
:1049F0000428F5D16563E56284F830700020DFE7B4
:104A00004FF00040606384F830700320D8E7000066
:104A1000F0B587B00446142102A8FBF705FD002677
:104A200002964FF480303146039604960596FEF7C1
:104A300011F905004FF0010704D02548854207D839
:104A400006960AE04FF0006084F8307060633BE047
:104A50002048B5FBF0F0401C0690DDE9050102AEF0
:104A6000CDE9000196E80E00206802F031FF2068D1
:104A700002F044FF069818B14000B5FBF0F52DB1E7
:104A80001548B0FBF5F0401CFCF7FEFA204603F099
:104A90005FF828B184F83070616B0143616313E003
:104AA000204602F0D9FF0028F4D120684FF40071AD
:104AB00002F0EFFB002808D0226808499163616B7F
:104AC0000143616384F83070012007B0F0BD00003D
:104AD000801A060000350C0010210100FF0FE01FB6
:104AE00010B500680B49884212D10B48016821F4C7
:104AF0000071016009484CF21801FCF7D7FA084828
:104B0000C021FCF7D3FABDE810407C20FCF7CABFF7
:104B100010BD000000240248DC4402580004025882
:104B2000000C025870B5B6B00446142130A8FBF74B
:104B30007BFCC0216846FBF777FC27492068884248
:104B400048D1002014904FF480310446CDE9001084
:104B50006846FEF7E3F908B1FBF768FD1F480168F6
:104B600041F400710160006800F4007035901B484A
:104B7000001D016841F002010160016801F00201BD
:104B80003591016841F008010160006809210225A2
:104B9000329400F00800359003264CF21800CDE95D
:104BA0003361CDE930050E4830A9FCF745FB0B21F8
:104BB0003294C020CDE93361CDE93005094830A9F0
:104BC000FCF73AFB00227C201146FCF789FF7C2091
:104BD000FCF779FF36B070BD00240248DC4402586F
:104BE00000040258000C02582DE9F04F87B0994696
:104BF00017460D460446FCF751FC06903DB194F86B
:104C00003000012807D0606B40F000500DE0606B71
:104C100040F0006009E0226D002007EB09016063AD
:104C2000914204D9606B40F000706063A8E00321FA
:104C300084F830102168C862A16B012900D07F027E
:104C40004FF0020ACDE903A090264FF0FF324FEA61
:104C5000492305908DE84C0080462068694602F0A3
:104C6000C9FC2068B9F1010F4FF00106C16841F09D
:104C70004001C16006D9C4F82CA03946206802F072
:104C800079FB04E0E6623946206802F08DFBDFF82C
:104C900014A150B12368C3F838A0616B014361636C
:104CA00084F83060C4F82C806AE0DDF804B01FE0BE
:104CB000406B000414D5BBF1200F11D300272068EE
:104CC00002F022FE020A2870010C6A70030EA9701D
:104CD0007F1CEB70082F05F10405F0D3ABF1200B1E
:104CE000FCF7DCFB0699411A1098814221D200B3EF
:104CF0002068416B11F4957FDAD0C16821F0400142
:104D0000C1602068416BC90522D5B9F1010F1FD9D7
:104D1000A16B03291CD002F00FFCC8B12368C3F8B3
:104D200038A0626B0243626384F83060C4F82C8060
:104D300026E02268C2F838A0606B40F00040606353
:104D400084F83060C4F82C80032007B0BDE8F08FF1
:104D50002068416B090706D5C0F838A0616B404652
:104D600041F0080108E0416B89070BD5C0F838A075
:104D7000616B404641F00201616384F83060E0629B
:104D80000120E2E7416B890606D5C0F838A0616BC7
:104D9000404641F02001EFE70349816384F8306029
:104DA0000020D2E7FF0FE01F3A0F0018704770474E
:104DB0002DE9F04F89B09A4616460D460446FCF799
:104DC0006DFB06903DB194F83000012807D0606B70
:104DD00040F000500DE0606B40F0006009E0226D93
:104DE000002006EB0A016063914204D9606B40F039
:104DF00000706063B2E0032184F830102168C8625B
:104E0000A16B012900D076024FF0FF314FEA4A2210
:104E1000059090230490CDE90230CDE90012804640
:104E20002068694602F0E6FB2068C168BAF1010F0C
:104E300041F04002C26006D92020E062206831467D
:104E400002F0A4FB05E01020E0622068314602F089
:104E5000B7FBDFF830B106004FF001090AD0236834
:104E6000C3F838B0606B3043606384F83090C4F8A6
:104E70002C8073E00198089027E0406B40041CD51B
:104E80000898202819D3002728780790697840EAE5
:104E900001200790A97840EA01400790E9782D1D8C
:104EA00040EA01600790206807A902F045FD7F1CD9
:104EB000082FE9D3089820380890FCF7EFFA0699F4
:104EC000411A1298814221D200B32068416B11F43B
:104ED0008D7FD2D0C16821F04001C1602068416B54
:104EE000C90521D5BAF1010F1ED9A16B03291BD029
:104EF00002F022FBC0B12568C5F838B0616B0143F0
:104F0000616384F83090C4F82C8027E02368C3F8EC
:104F100038B0626B3243626384F83090C4F82C80FE
:104F2000032009B0BDE8F08F2068416B090707D561
:104F30004946C0F838B0626B404642F0080209E0CA
:104F4000416B89070CD54946C0F838B0626B4046C2
:104F500042F00202626384F83010E0620120E0E770
:104F6000416BC90607D54946C0F838B0626B404668
:104F700042F01002EEE7044A826384F83090002089
:104F8000CFE70000FF0FE01F3A0F0018704770478F
:104F9000704700002DE9F04390F83C20012A42D0F0
:104FA000012280F83C2051F80C4BDFF880804FF054
:104FB000000991E8680051E9022723F44073B1F831
:104FC0000CC03B43CF6923F480631343026823F48E
:104FD0000063234323F4805343EA050323F400537F
:104FE00043EA060323F4804343EA07030C3923F41E
:104FF0007023424543EA0C4302D00D4CA2420CD12F
:105000008D8C23F47006D1E9073446EA055121F06E
:105010008071194321F000732343536480F83C905E
:105020000020BDE8F0830220FBE700000000014003
:1050300000040140F0B590F83C20012A3BD01F4EFF
:10504000012480F83C40022280F83D2002681C4D7B
:105050005368B242D2F808C001D0AA4203D14F68C7
:1050600023F470033B430F6823F070031F43576022
:105070000268B24213D0B2F1804F10D0114B9A4265
:105080000DD0114B9A420AD0104B9A4207D0AA4237
:1050900005D00F4B9A4202D00E4B9A4204D1896838
:1050A0002CF0800319439160002180F83D4080F886
:1050B0003C100846F0BD0220F0BD00000000014099
:1050C000000401400004004000080040000C0040C3
:1050D000001800400040014010B5040003D094F8CF
:1050E0003D0010B107E0012010BD002084F83C0015
:1050F000204600F023F8022084F83D002068211D9E
:1051000002F02EFF012084F8480084F83E0084F865
:105110003F0084F8400084F8410084F8420084F89D
:10512000430084F8440084F8450084F8460084F87D
:10513000470084F83D00002010BD000008B5184A63
:1051400001681848914207D1016841F040010160AF
:10515000006800F0400009E0134A914208D101685C
:1051600041F480710160006800F48070009008BD17
:105170000E488142FBD10B480830016841F4802180
:10518000016000680022114600F480200090762023
:10519000FCF7A6FCBDE808407620FCF794BC0000B4
:1051A00000180040E8440258002000400048014038
:1051B00090F83D10012901D001207047174A0221C3
:1051C00080F83D100168CB6843F00103CB600068B4
:1051D000904214D0B0F1804F11D0114988420ED0C6
:1051E000104988420BD01049884208D00F498842A4
:1051F00005D00F49884202D00E49884207D1816804
:105200000D4A1140062906D0B1F5803F03D0016850
:1052100041F00101016000207047000000000140E2
:105220000004004000080040000C00400004014061
:1052300000180040004001400700010070B504461E
:1052400090F83C000025012814D03A4B012684F840
:105250003C60022084F83D0022689068184020F4E9
:105260007F409060086870282FD010DC10F00F0F7E
:1052700003D022E04FF0020070BD4FEA2012072A4F
:105280001BD2DFE802F0535353534B394100B0F1C6
:10529000101F4BD009DCB0F5805F0FD0B0F5005F78
:1052A0001ED0B0F5801F08D140E0A0F58011203954
:1052B0003CD010293AD0202938D0012584F83D600F
:1052C000002084F83C00284670BD4A682068D1E977
:1052D000021302F0B8FE2068816841F0770109E00E
:1052E0004A682068D1E9021302F0ADFE20688168A7
:1052F00041F480418160E1E7CA684968206803F0B1
:1053000057F82068502106E0CA684968206803F011
:105310007DF82068602102F09FFECFE7CA684968E7
:10532000206803F045F820684021F4E72268014630
:105330001046F0E788FFCEFF70472DE9F0410446A4
:1053400000680027C6680569A90713D5B10711D5FC
:10535000FA1E0261012121772068806980072046BA
:1053600002D0FFF7E9FF04E000F0CEF8204600F09D
:10537000A3F92777680716D5700714D5226802208D
:105380006FF00401116120772068806910F4407F7C
:10539000204602D0FFF7D0FF04E000F0B5F8204629
:1053A00000F08AF92777280715D5300713D522682A
:1053B00004206FF00801116120772068C069800720
:1053C000204602D0FFF7B8FF04E000F09DF8204629
:1053D00000F072F92777E80616D5F00614D5226892
:1053E00008206FF01001116120772068C06910F467
:1053F000407F204602D0FFF79FFF04E000F084F8D2
:10540000204600F059F92777E80708D0F00706D0C2
:1054100021686FF001000861204600F0D7F92806E6
:1054200001D4A80408D5300606D521686FF40250CF
:1054300008612046FFF7ABFDE80508D5300606D524
:1054400021686FF4807008612046FFF79FFD6806B1
:1054500008D5700606D521686FF040000861204627
:1054600000F0BEF9A8060AD5B00608D521686FF08D
:10547000200008612046BDE8F041FFF789BDBDE886
:10548000F081000010B586B0044614216846FAF792
:10549000CBFF184A00202368174993424FF00202BD
:1054A00011D10B6843F004030B60096801F004019B
:1054B00005918021009103236946CDE90120CDE9C2
:1054C00003030E4812E00E4CA34211D10B6843F0C7
:1054D00080030B60096801F0800105914021009173
:1054E000CDE90120CDE9030206486946FBF7A4FE99
:1054F00006B010BD00040140E04402580008025804
:1055000000180040001C0258704770B5044690F81F
:105510003C0000260D4601280BD0012084F83C00F9
:105520000C2A4AD007DC82B1042A20D0082A06D1EE
:1055300031E0022070BD102A53D0142A63D0012616
:10554000002084F83C00304670BD206802F08EFDDB
:105550002068816941F0080181612068816921F03A
:105560000401816120682A698169114311E0206882
:1055700002F0D2FD2068816941F4006181612068F8
:10558000816921F48061816120682969826942EA28
:1055900001218161D4E7206802F00CFE2068C16916
:1055A00041F00801C1612068C16921F00401C161B5
:1055B00020682A69C169114311E0206802F048FEA1
:1055C0002068C16941F40061C1612068C16921F4AA
:1055D0008061C16120682969C26942EA0121C16113
:1055E000AEE7206802F070FE2068416D41F00801CE
:1055F00041652068416D21F00401416520682A69F8
:10560000416D114311E0206802F098FE2068416D61
:1056100041F4006141652068416D21F4806141657C
:1056200020682969426D42EA0121416588E710B589
:10563000040003D094F83D0010B107E0012010BD34
:10564000002084F83C00204600F022F8022084F874
:105650003D002068211D02F083FC012084F84800F1
:1056600084F83E0084F83F0084F8400084F841004C
:1056700084F8420084F8430084F8440084F845002C
:1056800084F8460084F8470084F83D00002010BDEF
:1056900008B500680649884208D10648016841F00B
:1056A00002010160006800F00200009008BD0000E7
:1056B00000040140F04402587047000030B5044631
:1056C0004FF0020269B1042912D0082917D00C2921
:1056D0001CD0102921D094F84300012824D00120A7
:1056E00030BD94F83E000128F9D184F83E201DE039
:1056F00094F83F000128F2D184F83F2016E094F896
:1057000040000128EBD184F840200FE094F84100DC
:105710000128E4D184F8412008E094F842000128EF
:10572000DDD184F8422001E084F843200122206882
:1057300002F07CFC1B4B20681B491C4A984209D094
:10574000884207D0904205D0194DA84202D0194D89
:10575000A84203D1456C45F4004545642068984251
:1057600012D0B0F1804F0FD0134B98420CD0134B96
:10577000984209D0124B984206D0884204D0114971
:10578000884201D0904207D181680F4A1140062912
:1057900006D0B1F5803F03D0016841F001010160FE
:1057A000002030BD000001400004014000400140E5
:1057B000004401400048014000040040000800404F
:1057C000000C004000180040070001000068034979
:1057D000884201D1FBF776BF7047000000440140CA
:1057E0007047FEE7F0B500230A251C463026372710
:1057F00011E000BFB5EB107F02D906EB107C01E091
:1058000007EB107C01F813C001EB430C00015B1C9B
:105810008CF80140DBB29342ECD3F0BD8068C0F35A
:10582000C00070478068C0F3800070478068C0F394
:10583000800070472DE9FC4F82468D88894693464B
:105840008820DAF800108C2300EBCB149422A646B3
:10585000C868C0F30B4028440D59040403EBCB1077
:1058600005F47045CDE9000441F80E509C23D9F8A9
:10587000004003EBCB164FF0AC0C982340F20777B7
:1058800002EBCB11A02503EBCB1205EBCB13DAF81F
:1058900000500CEBCB1CD5F80C80C8F30B4808F17A
:1058A0000108A044019C48EA040845F80E80DAF893
:1058B0000040B9F80C50D4F80C802058C8F30A08FE
:1058C000454400F47048009844F80080DAF800403D
:1058D000D9F80800D4F80C80C8F30A0808F10108C8
:1058E0008044009848EA054844F80080DAF800004F
:1058F000445824F007044450DAF80040D9F8100066
:10590000605099F8310099F81810040299F83200A3
:10591000000440EA016099F8301021430143DAF8AD
:1059200000008151DAF80000815821F0FF01815018
:10593000DAF80000D9F814108150DAF80000C158E4
:10594000B943C150DAF80010D9E907021043C85032
:10595000DAF80010D9F8240041F80C00D9F810004A
:10596000C8B301283AD004283AD0022838D00328F6
:1059700036D0072834D00120DAF80030B02505EB06
:10598000CB11B42284245D5802EBCB1205F0E02544
:105990005D50D9E9003504EBCB14EB1AB9F8285067
:1059A00043434543DAF80000DB1D43EA0543435017
:1059B000DAF8000081586FF30A018150DAF800002C
:1059C000D9F82C108150DAF80000015941F001019A
:1059D0000151BDE8FC8FFFE70420CDE70320CBE7B2
:1059E0000220C9E72DE9F0410546D0F8D40205EBC5
:1059F0008000D0F8C042002C1ED094F81C020F4E3C
:105A000040B9D4F8180228B1607A18B9317828461C
:105A100003F0A9F80A4F2846397803F0A4F8607A11
:105A2000022809D13978284603F09DF831782846B4
:105A3000BDE8F04103F097B8BDE8F081D50000243F
:105A4000D40000242DE9F0410546D0F8D40205EB3E
:105A50008000D0F8C042002C66D0D4F81402C4F8FC
:105A60003402D4F81802C4F83802304801782846C5
:105A700002F073FF1F280ED12D49D4F8100288427E
:105A800009D194F81D122068814204D894F81E02AE
:105A900008B1102809D994F81D12202305222846A0
:105AA00001F06BFA0220607209E004F21F2228461E
:105AB00000F0B6FE0028207A08DA052804D028462F
:105AC000BDE8F041FFF78EBF012128E002282BD06E
:105AD000012829D0032827D0E668FEB1D5F8D412D2
