:020000040800F2
:100000000052002481030008336000083F530008B9
:100010003160000809090008FD87000800000000A1
:100020000000000000000000000000009D650008C6
:100030007D09000800000000AF610008ED650008C0
:100040009F0300089F0300089F0300089F03000808
:100050009F0300089F0300089F0300089F030008F8
:100060009F0300089F0300089F0300089F030008E8
:100070009F0300089F0300089F0300089F030008D8
:100080009F0300089F0300089F0300089F030008C8
:100090009F0300089F0300089F0300089F030008B8
:1000A0009F0300089F0300089F0300089F030008A8
:1000B0009F0300089F0300089F0300089F03000898
:1000C0009F0300089F0300089F0300089F03000888
:1000D0009F0300089F0300089F0300089F03000878
:1000E0009F0300089F030008000000009F03000812
:1000F0009F0300089F0300089F0300089F03000858
:100100009F0300089F0300089F0300089F03000847
:100110009F0300089F0300089F0300089F03000837
:100120009F0300089F0300089F0300089F03000827
:100130009F0300089F0300089F0300089F03000817
:1001400000000000000000000000000000000000AF
:100150009F0300089F0300089F0300089F030008F7
:100160009F0300089F0300089F0300089F030008E7
:100170009F0300089F0300089F0300080000000081
:100180009F0300089F0300089F0300089F030008C7
:100190009F0300089F0300089F0300089F030008B7
:1001A0009F0300089F0300089F0300089F030008A7
:1001B0009F0300089F0300089F0300089F03000897
:1001C0009F0300089F0300089F0300089F03000887
:1001D0009F030008356000089F0300089F03000884
:1001E0009F0300089F0300089F0300089F03000867
:1001F0009F0300089F0300089F0300089F03000857
:100200009F0300089F0300089F0300089F03000846
:100210009F03000895670008A96700089F0300086E
:100220009F0300089F0300089F03000800000000D0
:100230009F0300089F030008000000009F030008C0
:100240009F0300089F0300089F0300089F03000806
:100250009F0300089F0300089F0300089F030008F6
:100260009F0300089F0300089F0300089F030008E6
:100270009F0300089F0300089F0300080000000080
:100280009F0300089F0300089F0300080000000070
:10029000000000009F03000800F002F800F061F881
:1002A0000AA090E8000C82448344AAF10107DA45D1
:1002B00001D100F056F8AFF2090EBAE80F0013F0C2
:1002C000010F18BFFB1A43F00103184798440C00B4
:1002D000B8440C000A444FF0000C10F8013B13F036
:1002E000070408BF10F8014B1D1108BF10F8015B8F
:1002F000641E05D010F8016B641E01F8016BF9D182
:1003000013F0080F1EBF10F8014BAD1C0C1B09D1D8
:100310006D1E58BF01F801CBFAD505E014F8016B4A
:1003200001F8016B6D1EF9D59142D6D370470000DC
:100330000023002400250026103A28BF78C1FBD8EE
:10034000520728BF30C148BF0B607047642900F0D6
:100350008380002070471FB508F036FD1FBD10B523
:1003600010BD00F0CCF91146FFF7F5FF08F06EFA6A
:1003700000F0EAF903B4FFF7F2FF03BC00F0F2F972
:100380000A4880470A4880470A480047FEE7FEE7D8
:10039000FEE7FEE7FEE7FEE7FEE7FEE7FEE7FEE735
:1003A00005480649064A074B704700009D090008AA
:1003B0009D660008990200080022002400520024D3
:1003C00000320024003200240FB41CB5074B06AAEB
:1003D0007B4469460090059800F079F90020694651
:1003E00000F088F91CBC5DF814FB0000210300003C
:1003F0002DE9F0410E460446002020622046E168C7
:10040000884730B3252805D0D4E901219047206AD8
:10041000401CF2E7E168204600278847050018D015
:10042000A5F14100192802D820354FF40067324663
:10043000294620462760FFF789FF40B1012804D0F4
:10044000F61D26F007060836D8E7361DD6E72846FB
:10045000DAE7206ABDE8F0812DE9F0410646002484
:1004600010687529314616A510D0AFF3008000281A
:1004700002DA404213A507E031688A0701D512A5C8
:1004800002E0490704D511A5012401E0AFF3008083
:1004900000210A2206F1240709E0B0FBF2FCB0FBC0
:1004A000F2F302FB1C00303078541846491C002837
:1004B000F3D123462A463046BDE8F04100F0A9B802
:1004C000000000002D0000002B00000020000000B4
:1004D000032A40F2308010F0030C00F0158011F870
:1004E000013BBCF1020F624498BF11F801CB00F848
:1004F000013B38BF11F8013BA2F1040298BF00F89C
:1005000001CB38BF00F8013B11F0030300F0258058
:10051000083AC0F0088051F8043B083A51F804CB7F
:10052000A0E80810F5E7121D5CBF51F8043B40F845
:10053000043BAFF30080D20724BF11F8013B11F850
:1005400001CB48BF11F8012B24BF00F8013B00F894
:1005500001CB48BF00F8012B704710B5203AC0F01E
:100560000B80B1E81850203AA0E81850B1E81850B4
:10057000A0E81850BFF4F5AF5FEA027C24BFB1E8F1
:100580001850A0E8185044BF18C918C0BDE8104062
:100590005FEA827C24BF51F8043B40F8043B08BF6B
:1005A0007047D20728BF31F8023B48BF11F8012B32
:1005B00028BF20F8023B48BF00F8012B70474FF0DE
:1005C000000200B5134694469646203922BFA0E8A3
:1005D0000C50A0E80C50B1F12001BFF4F7AF0907AF
:1005E00028BFA0E80C5048BF0CC05DF804EB8900A0
:1005F00028BF40F8042B08BF704748BF20F8022BE3
:1006000011F0804F18BF00F8012B704770477047FA
:1006100070472DE9F0470D4699469246044600F191
:1006200024080168880604D5E06921F010012160E2
:1006300000E00120A84201DD471B00E00027A1697E
:100640007A1902EB0900081AA0612078C00602D4CA
:100650002046AFF30080002608E0D4E901211AF813
:1006600006009047206A401C761C20624E45F4DB51
:100670002078C0060AD52046AFF3008006E0D4E912
:10068000012130209047206A401C2062381EA7F1CB
:100690000107F4DC07E0D4E9012118F805009047D0
:1006A000206A401C2062281EA5F10105F3DC2046CB
:1006B000AFF300802078000602D50220BDE8F08765
:1006C0000120FBE701694A1C02610878704700B508
:1006D0008FB0CDE901310021059105497944CDE97B
:1006E000031011466846FFF783FE0FB000BD0000FF
:1006F000E5FFFFFF0A6802F8010B0A6070477546C4
:1007000000F02CF8AE4605006946534620F007007D
:10071000854618B020B5FFF743FEBDE820404FF0F6
:1007200000064FF000074FF000084FF0000B21F0DB
:100730000701AC46ACE8C009ACE8C009ACE8C009A8
:10074000ACE8C0098D46704710B50446AFF3008091
:100750002046BDE81040FFF70DBE0000004870477E
:100760009C21002401491820ABBEFEE726000200B0
:100770007047000070B53A4905460068884202D0CB
:10078000384A904202D1D1F8080302E03648D0F846
:10079000080310F4403F11D003F058FE0446686887
:1007A000B0F5803F06D0B0F5003F03D0B0F5403F34
:1007B00027D101E0000C18E0A40822E000214FF44A
:1007C000002002F0ADFE044668688103890B18D151
:1007D00081140C2915D2DFE801F01406060606067E
:1007E000060B0D0F1113800C4000B4FBF0F408E071
:1007F000240906E0640904E0A40902E0E40900E039
:10080000240A01F049F841F20301884208D8174848
:1008100084422868816813D821F48071816070BD9A
:1008200013496008884204D82868816821F440711F
:10083000F4E71049884206D82868816821F440719D
:1008400041F48071EAE70C4988422868816804D83D
:1008500021F4407141F40071E0E741F44071DDE7BB
:10086000002002400021024000600258002D3101AA
:10087000105E5F0020BCBE0040787D012DE9F8438A
:10088000204C102700254FF6FF78012600952146C1
:100890008146C4E90067C4E9026501F124004246CB
:1008A00004F0BAF9012000F04FFE02202146C4E90D
:1008B0000007C4E9026501F12400424604F0ACF9E6
:1008C00003214246C4E9001708202146C4E9020575
:1008D00001F1240004F0A0F94FF408700090042105
:1008E0004246C4E90260C4E90017214601F1240030
:1008F00004F092F904F124004946BDE8F84304F0FD
:1009000073B9000098020024FEE700207047002021
:100910007047000005490022054810B506F082FB2B
:100920000449034806F071FB002010BD9812002412
:10093000BC050024980A00240146044810B506F0BE
:1009400064FB024806F03AFB002010BDBC05002401
:100950000020704707480168C90103D4016841F0CD
:1009600080710160044800214160016841F001018B
:1009700001607047FCED00E0001000E0704772B6C7
:10098000FEE70000014B83E80700FEE7400000247B
:10099000014B83E80700FEE74000002405480549B5
:1009A0000839026842F00202026008688004FCD53F
:1009B000704700000C480258F0B5D1E90843CD69F2
:1009C0000A68C2B10268254322F4F84213431D436A
:1009D0000560D1E90125D1E903364C692A43456810
:1009E000334389691A43EB0B2243DB030A431A435F
:1009F00042600020F0BDD1E9012ED1E9036CD1E9BC
:100A0000057142EA0E0246EA0C0632433A430A43B3
:100A100001682A4322431A436FF30E010A4302601E
:100A2000E7E7426943F6FE739A4342EA41014161B6
:100A30000020704770B591E81C00C9686FF01F0571
:100A400006691A4305EB441444EA41210A4306EAC5
:100A500045431A430261002070BD00002DE9F04FAC
:100A60008B8A6FF00F05264C4FF07F4BD1F80C901E
:100A700004EB03536FF0FF044FEA042A1AB38668AD
:100A80004FEA09321F4FA2F580521A433E403243CB
:100A90008260D1E900278E68521E05EB07150F8A88
:100AA0002A43C56804EB06240E7E0AEB0743224363
:100AB0001A430BEB06610A4305F070431A43C26008
:100AC0000020BDE8F08F91E804110F4E521E0F8AEE
:100AD00005EB08152A4304EB0C2C06EB09350E7EBA
:100AE00042EA0C022A4385680AEB074422431A4370
:100AF0000BEB06610A4305F070431A438260DFE79F
:100B00000000F0FFFF0F0FFF00F0FFFF2DE9F0479F
:100B10000F4690F850109AB0044601294FF0000992
:100B200015D00026DFF8F880012084F850001596D3
:100B30001696216841450ED13A4D0095284604F09D
:100B4000ADFE8246206804F0A9FE60B10EE00220EE
:100B50001AB0BDE8F087606D84F8506040F0200066
:100B600060650120F4E7BAF1000F09D0616D4FF024
:100B7000010941F020006065484684F85060E7E7CD
:100B800020684146884201D0A84201D1264800E0B1
:100B9000264840F61F72D7F800C0254BBCF1000F65
:100BA00023D0D0F808C0D7F804802CF4404C4CEA8D
:100BB000080CC0F808C0D4F800C08C4501D0AC4582
:100BC00007D18968AB6801F0010103F00103194303
:100BD00002E0996801F001010029CDD1BD683968B2
:100BE000836829439343194317E0876827F44047F4
:100BF000876027688F4201D0AF4207D18968AB6810
:100C000001F0010103F00103194302E0996801F0CA
:100C100001010029B0D1816891438160ACE70000F7
:100C200000200240002102400023024000630258DD
:100C3000006002582DE9F84F04460D460020DFF809
:100C4000A8B30090074694F85010DFF8A0A32068DE
:100C50000129E74E07D04FF0010984F8509004F0C5
:100C600019FE18B171E10220BDE8F88F286800284C
:100C70000EDB21680303CA6928D090FAA0F0B0FA0D
:100C800080F000BF00F01F0309FA03F00243CA61BD
:100C9000D5E900124FF00C0C20681F23C1F38461CA
:100CA0000CEA921C02F01F02604493409140026BD8
:100CB0009A430A430263206804F0ECFD80462068F2
:100CC00004F0E4FD58EA000003D08DE0C0F3846036
:100CD000D8E72A68042320684FF0070CA96803EAC4
:100CE000D25318444369C2F304520CFA02FC9140F7
:100CF00023EA0C030B434361BE490968B9EB117F3A
:100D000006D121686869C968C1F38201490008E019
:100D10002068C168C906C1686869F5D501F010018D
:100D200049088840296904292ED023682A6803EBE2
:100D3000810102F0F8420B6E024303F000401043C1
:100D40000866697E22682869012917D05FF00001D2
:100D500002EB8000026E22F000420A430266297E06
:100D600020682A6901290CD00021036902F01F02C2
:100D7000914023F4F0420A43026135E04FF0004114
:100D8000E6E74FF40061F0E720682978026E02F090
:100D9000F842B2EB816F03D1016E21F00041016690
:100DA00020682978426E02F0F842B2EB816F03D1DD
:100DB000416E21F00041416620682978826E02F080
:100DC000F842B2EB816F03D1816E21F00041816660
:100DD00020682978C26E02F0F842B2EB816F03D12D
:100DE000C16E21F00041C1662068816811F0010FD9
:100DF00072D150F8C02F2B7BDFF8FCC1296803F0BB
:100E000018032CFA03FCC1F3130822EA08020CEAC7
:100E1000010C42EA0C020260E96859456CD177483E
:100E20002268DFF8DCC1DFF8DCB18242DFF8D8E10C
:100E30007648774BDFF8DC8122D12968614524D0E0
:100E4000B1EB4C0C38D0A1F1496CBCF1080C35D099
:100E5000A1F1865CBCF1100C32D0DFF8BCC1614559
:100E600028D071453AD0814230D0994232D06B4877
:100E7000814201D16A4831E041452ED169482DE0D7
:100E8000B2422AD12968614501D1012026E0A1F1B1
:100E9000066CBCF1040C0FD0A1F1496CBCF1080C3C
:100EA0000CD0A1F1865CBCF1100C09D0DFF868C150
:100EB000614507D15C4811E058460FE05B480DE002
:100EC0005B480BE0714509D0814201D1184605E02D
:100ED0009942D1D1574801E03CE00020D169030399
:100EE0001AD090FAA0F0B0FA80F000BF00F01F0313
:100EF00009FA03F00143D161D5F800C0BCF1000F3D
:100F000028DA3E4B20684C49DFF83091984201D0F6
:100F1000B04203D10A4602E0800EE7E74A469268F3
:100F2000984202F0E07201D0B04209D19D68D6F833
:100F3000088005F0010508F0010845EA080503E00E
:100F4000DAF8085005F001054DB1606D012740F059
:100F500020006065002084F85000384684E6384D53
:100F6000AC451CD115021AD45045F3D1984202D099
:100F7000B04200D049468B6842F4000023F0E07292
:100F800002438A6030492F480968B1FBF0F0400005
:100F9000801C00E0401E00900028FBD1DAE72B4DBA
:100FA000AC450CD1D5010AD45045D3D1984202D0DA
:100FB000B04200D049468B6842F080700EE0244D6C
:100FC000AC45C7D15502C5D45045C3D1984202D0D3
:100FD000B04200D049468B6842F4800023F0E072B2
:100FE00002438A60B6E700000000FF470060025835
:100FF000002102400010005CFFFF0F0000200240B3
:1010000002003004400020190004002A0008302E9D
:10101000001060320000844B2000F01400002143D7
:10102000000052470000B84F0002B0258000501D5C
:101030000001802100209036002302400063025806
:10104000000084CB400D030074000024000052C750
:101050000000B8CFF8B54FF0000604003546009602
:1010600002D0606D10B107E00120F8BD204600F00D
:1010700005F9A66584F8506020688168C1F3407165
:1010800019B18168704A1140816020688168C1F39C
:10109000007181B981686D4A114041F080518160D1
:1010A0006C496B480968B1FBF0F0401C00E0401E41
:1010B00000900028FBD120688168C1F3007141B91C
:1010C000616D012541F010016165A16D41F00101E3
:1010D000A16504F0DFFB616DC90600D420B1606D2D
:1010E000012540F0100093E0606D20F4807040F026
:1010F000020060652068816811F0010F1FD1564A17
:10110000564B904201D0984207D191689E6801F0F9
:10111000010106F00106314303E05149896801F0FD
:10112000010161B9904201D0984201D14D4800E0DF
:101130004D488268616822F47C120A43826000F0A4
:10114000ABFB41F20301884202D9A06810280CD001
:10115000617D227FA368206B490341EA0241184365
:101160000843217F01290CD010E0607D227F216B94
:10117000400340EA024241F01000104340F00C00EE
:10118000EFE7218C394A02EB41410843616A29B1FA
:10119000A26A01F47871014342EA01002168344BEC
:1011A000CA681A400243CA60206804F073FB06460E
:1011B000206804F06BFB30431DD1216844F2030327
:1011C000267DE26AC86842EA863298431043C860C6
:1011D00094F8380001281ED02068016921F001012F
:1011E00001612068626B016921F070411143016166
:1011F0002046FFF7BFFAE068012820681CD0016B89
:1012000021F00F010163606D20F0020040F0010049
:1012100060652846F8BD2068A28F164FD4E9101CDF
:10122000154E07EB0247A36C026941EA0C013B43F0
:10123000324019431143D3E7A269016B521E21F0DA
:101240000F011143DEE70000C0FFFF5FC0FFFF7F1B
:10125000400D0300740000240020024000210240E1
:101260000060025800230240006302580000FEFFA5
:1012700003C0F0FF0100FFFF1EF800FC10B586B0B0
:10128000044614216846FFF79AF9114920688842FC
:101290001BD11048016841F020010160006800F096
:1012A000200005900B480830016841F00101016001
:1012B00000680321002200F00100059001208DE864
:1012C00007000548694600F0BBF906B010BD0000F4
:1012D00000200240D844025800000258F0B50446ED
:1012E000C8074FF0000010D01E23012603F01F078F
:1012F00006FA07F50D4201D15B1EF7D27AB1082A32
:101300000BD0102A06D0182A01D00120F0BD072BDF
:10131000FBD204E0082BF8D201E0102BF5D22368B1
:10132000596121688B6823F0180313438B60F0BD6B
:1013300010B5040010D0607F20B90020207720462F
:1013400000F032F821790220607739B1D4E9021235
:101350002046FFF7C3FF48B1012010BD21681148A6
:1013600048612068816821F0180181606079A0B12E
:10137000216820690861012220686369816821F081
:101380006001194381602068A369816821F08001B0
:10139000194381606277002010BD21684FF0FF3053
:1013A000E8E70000B71DC10408B500680649884297
:1013B00008D10648016841F400210160006800F48A
:1013C0000020009008BD0000004C0258E044025884
:1013D000F0B590F86020012A22D0C1EBC1020127AC
:1013E00080F86070022380F8613000EB8202284DA3
:1013F000138F168EB2F83CC0D46A1B05283244EA1B
:10140000064643EA4C530A2C46EA03060AD0092C46
:1014100008D0137B46EA036349B10B2C1AD01DE0B8
:101420000220F0BDD36803F07F433343F4E7016843
:101430004C6AAC431C434C62016813688B61516871
:101440000A2901D009291BD1D168026821F07F4106
:10145000916215E0118B0F4D43EA81430168CC691D
:10146000AC431C43CC61016813680B6151680A29C5
:1014700001D0092904D1D168026821F07F411162AD
:10148000002180F8617080F860100846F0BD00000F
:101490000F0033FF0F003FFF2DE9F041040004D09F
:1014A00094F86100002518B107E00120BDE8F08143
:1014B000204684F8605000F033F8184E022084F87B
:1014C00061000123D4E90010D4F81CC040F20712D7
:1014D0000F6840EA0C003740384308602068A7696D
:1014E000A168466B39439643314341632068E26803
:1014F000016C6FF30F01114301642068218AA28AF5
:10150000466B090541EA425126F4401211434163FA
:10151000656684F861300020C8E70000BFFFF8FF6F
:1015200008B500680649884208D10648016841F0BC
:1015300010010160006800F01000009008BD00007C
:1015400000100052D444025870B5044600F0AAF9C5
:101550000546601C02D004480078044400F0A2F95B
:10156000401BA042FAD370BD68000024F0B5B7B0AC
:10157000142130A8FFF723F82948016900294DD12B
:1015800001240461C0216846FFF719F80020129475
:101590002106CDE90010684602F026F908B1FFF7F0
:1015A000EEF92048016841F480510160006830A9DB
:1015B000022400F480503590002540F2FF6003269D
:1015C0000C2781E8F100184800F03AF830A94FF6EE
:1015D0003F0081E8F100154800F032F830A94FF6DD
:1015E0002C7081E8F100124800F02AF830A948F286
:1015F000331081E8F1000F4800F022F830A94FF6CF
:10160000837081E8F1000C4800F01AF830A94CF220
:10161000037081E8F100094800F012F837B0F0BD1E
:1016200018000024D4440258002002580014025824
:10163000001C02580018025800100258000C0258F2
:101640002DE9F84F03247F4D00234FF001094FF09F
:10165000B04B4FF00F0AEDE009FA03F632407AD0B2
:101660000F7907F00307012F01D0022F19D18768E6
:101670004FEA430ED1F80CC004FA0EF827EA080727
:101680000CFA0EFC4CEA070CC0F808C0D0F804C0F5
:101690000F792CEA060CC7F300179F4047EA0C07A6
:1016A00047600E79F643B60702D18E68012E0BD043
:1016B000C6684FEA43088F6804FA08FC26EA0C065D
:1016C00007FA08F73743C7600E7906F00306022EC3
:1016D00012D1DE080F694FEA437C00EB8606B6465E
:1016E000366A4FEADC6C0AFA0CF807FA0CF726EABD
:1016F00008063743CEF820700F7906684FEA430892
:1017000007F0030704FA08FC07FA08F726EA0C06B4
:10171000374307604E6816F4403F1CD04A4E376886
:1017200047F00207376036689F0706F0020600960A
:1017300023F0030606F1B046B6463F0FD6F808641C
:10174000DFF808810AFA07FC404526EA0C0603D1B7
:101750004FF0000C41E06CE0DFF8F4C0604502D1CE
:101760004FF0010C39E0DFF8ECC0604502D14FF0DA
:10177000020C32E0DFF8E0C0604502D14FF0030C0C
:101780002BE0DFF8D8C0604502D14FF0040C24E014
:10179000DFF8CCC0604502D14FF0050C1DE0DFF84A
:1017A000C4C0604502D14FF0060C16E0DFF8B8C0A7
:1017B000604502D14FF0070C0FE0DFF8B0C0604584
:1017C00002D14FF0080C08E0DFF8A4C0604502D158
:1017D0004FF0090C01E04FF00A0C0CFA07FC4CEA40
:1017E000060CCEF808C44F68DBF80060FF0226EA5A
:1017F000020600D516435F46CBF80060D1F804C05E
:10180000DBF804605FEA8C2C26EA020600D516435A
:101810007E606E684F6826EA0206BF0300D5164355
:101820006E602E684F6826EA0206FF0300D5164355
:101830002E605B1C0A6832FA03F67FF40DAFBDE838
:10184000F88F000080000058F4440258000002584D
:101850000004025800080258000C025800100258F8
:101860000014025800180258001C025800200258A8
:10187000002402580069084000D0012070474269E6
:1018800021EA02030A4043EA0241816170470AB13A
:10189000816170470904FBE701480068000C70474C
:1018A0000010005C01488068704700006800002458
:1018B00030B590F84120202A24D190F84020012A08
:1018C00020D0012380F84030242280F841202023BA
:1018D00000240268156825F0010515600268156886
:1018E00025F480551560026815680D431560016880
:1018F0000A6842F001020A6080F8413080F84040F6
:10190000002030BD022030BD30B590F84120202AA3
:1019100022D190F84020012A1ED0012380F84030C7
:10192000242280F84120202400250268136823F037
:10193000010313600268136823F4706343EA012112
:10194000116001680A6842F001020A6080F84140B3
:1019500080F84050002030BD022030BD70B504003A
:1019600004D094F84100002510B106E0012070BDBC
:10197000204684F8405000F013FA242084F84100F7
:101980002068016821F001010160D4E9001020F015
:10199000706008612068816821F400418160E0681E
:1019A00021680128A06830D040F404408860E068D5
:1019B0000228206841682BD021F400614160206832
:1019C0002021154A4368134343602068C26822F40B
:1019D0000042C26054F8106B0DCC104340EA032063
:1019E000F06054F81C3CD4E900021043186054F82D
:1019F0001C0D026842F001020260656484F8411027
:101A0000256384F84250002070BD40F40040CDE7CB
:101A100041F40061D2E70000008000022DE9FC479C
:101A2000002504461E4692460195894690F84100DD
:101A3000202872D120688069C04300046DD594F8D5
:101A40004000012869D0012184F8401024204FF083
:101A5000200884F841006564E06801280AD0304A13
:101A6000304949EA0200084021684860FFF71AFF40
:101A700007460DE02C492D4A49EA01001040F3E7E2
:101A8000701C05D0FFF70EFFC01BB0423AD8CEB392
:101A9000206881698269C1F34010C2F300110843D4
:101AA000EED020688169C943C90619D500223346A2
:101AB00020212046009703F00FFD38B1606C042808
:101AC0001BD12168C1F81C80656416E02168C1F84B
:101AD0001C8084F84180002084F84050BDE8FC87D9
:101AE0001021C1610022334620212046009703F0D7
:101AF000F3FC10B92168C1F81C800198401C0190CA
:101B00005045A9D384F84180606C84F8405040F07F
:101B1000200060640120E1E7FFE70220DEE700002B
:101B200000280002FF2B000200200002FF23000219
:101B30002DE9F84F044690F841001F469046DDF825
:101B400028A08B4620287ED194F8400001287AD026
:101B5000012084F84000FFF7A5FE01220646192364
:101B60000090D103204603F0B7FCE0BB0025222102
:101B700084F84110102084F8420065646785618D07
:101B8000FF2732484FF00079C4F82480FF294FF036
:101B90008078656303D927853A46009039E0618DE6
:101BA000218500903AE05946204603F07DFC13E081
:101BB00003F0D0FCB8B92068616A406A0870606AB6
:101BC000401C6062208D401E81B22185608D401EC8
:101BD0006085608D00B169B1608D32465146002844
:101BE0002046E5D100E002E003F008FDD0B101207D
:101BF000BDE8F88F0022534680212046009603F06E
:101C00006BFC0028F3D1608DFF2804D927853A4664
:101C100000954346C7E7608D208500954B4694F8B4
:101C20002820C0E720682021094AC1612068436854
:101C30001340436084F8411084F84250002084F837
:101C40004050D5E7FFE70220D2E7000000240080E3
:101C500000E800FE2DE9FF4F81B0044690F84100F6
:101C600099469046DDF838B020287BD194F84000A2
:101C7000012877D0012084F84000FFF713FE0122ED
:101C8000064619230090D103204603F025FC0028C6
:101C900053D1414921220025C4F82480102084F822
:101CA0004120FF2784F842006564A4F82A90608DE3
:101CB0004FF080794FF0007A6563FF2802D94B46D8
:101CC000278505E0608D534620850004000C10D068
:101CD000226898F800009062606A401C6062608D23
:101CE000401E6085208D401E2085401C0091C2B2A0
:101CF00001E0002200910299204603F0D5FB13E099
:101D000003F0A8FCC8B9606A216800788862606A3C
:101D1000401C6062608D401E6085208D401E80B238
:101D20002085618D01B160B1608D32465946002831
:101D30002046E5D103F062FCE0B1012005B0BDE82A
:101D4000F08F00225B4680212046009603F0C4FB02
:101D50000028F2D1608DFF2805D927853A464B46E9
:101D60000095C8E716E0608D53462085009594F8ED
:101D70002820C0E721682020084AC86121684B68F4
:101D800013404B6084F8410084F84250002084F8EE
:101D90004050D3E70220D1E70020008000E800FE99
:101DA00010B5B6B00446142130A8FEF708FCC021D7
:101DB0006846FEF704FC1949206888422CD10020AF
:101DC000269010210446CDE90010684601F00CFD74
:101DD00008B1FEF7D4FD1248016841F00801016026
:101DE00000680DF1C00C122100F0080035900122AE
:101DF000042334934FF440508CE81700094830A96D
:101E0000FFF71EFC06481430016841F080010160B4
:101E1000006800F08000359036B010BD001C0058FE
:101E2000E0440258000C02582DE9F041040004D0AF
:101E300094F84D00002518B107E00120BDE8F081BD
:101E400084F84C50204600F0A7F8022084F84D009A
:101E500020680168C90703D0016821F00101016011
:101E6000206805656068042803D0062801D00A2888
:101E70004DD16069022833D0E06808B1022700E044
:101E80000127A068302824D0B02822D05FF00006B7
:101E900000214FF4805001F043FB2169B1F1007F34
:101EA00019D02021D4F81420F1407943B0FBF1F08F
:101EB0000A2100EB80004000B0FBF2F0401DB0FBB7
:101EC000F1F000F00101401A01294FEA50000AD058
:101ED0000BE00126DCE74FF480716269F140E5E731
:101EE000022000210AE0012801D0FF2804D9206D3A
:101EF00040F010002065A0E700B90121226800042D
:101F0000234B40EA0160116D194008431065A76931
:101F100002CC94E809101843D4E90723E6684CEA98
:101F2000070C1C4F40EA0C00D1F850E01043184356
:101F300040F6F87C30430EEA070E40EA0E0040F00F
:101F40000100086554F8040CC0F818C054F8040DDA
:101F5000016821F4803101602068E269C16821F4E0
:101F600000011143C1606068042803D0062801D035
:101F70000A2806D12068A26AC16821F000411143F5
:101F8000C1600120256584F84D00002056E700005F
:101F9000FFFF00FE4090FFFD70B586B0044614219F
:101FA0006846FEF70CFB1C492068884231D11B486B
:101FB000016841F480410160006800F480400590B0
:101FC00016480838016841F004010160016801F019
:101FD00004010591016841F00201016000680024DC
:101FE0000225009500F002006946CDE9015405265E
:101FF0000394CDE904600A48FFF722FB4FF44050F8
:102000000090CDE9015407486946CDE90346FFF742
:1020100017FB06B070BD000000380040E8440258CD
:1020200000080258000402580248816802781144EE
:102030008160704768000024032010B500F012FA98
:1020400002F04AFA0F4A104914681368C4F30322D5
:1020500003F00F038A5CC95C02F01F0201F01F014C
:10206000D0400A4A20FA01F11160094908600F20A6
:1020700000F010F808B1012010BD00F0B7F9002001
:1020800010BD000018440258D2450C087800002406
:102090007400002410B5102804468AB02AD2002209
:1020A0000146752000F0BEF9752000F0ADF9154825
:1020B00004601548016841F400310160006808A916
:1020C00000F400300990684602F092F902F0F2F94B
:1020D0000E49400000220E4CB0FBF1F10D4840F2D9
:1020E000E7330460C0E90332491EC0E9011202F07F
:1020F00007FE10B101200AB010BD064802F09EFE96
:10210000F9E700006C000024F044025840420F0040
:1021100000440140700500242DE9F041044690F888
:10212000A00016460F4601281DD0012584F8A050B6
:10213000022084F8A10006EB860000EBC6003422E2
:1021400004EB80003830FEF708FA32463946204664
:1021500003F0A8FB216800204D6284F8A15084F8A8
:10216000A000BDE8F0810220FBE72DE9F04104006A
:1021700004D094F8A100002518B107E00120BDE8C3
:10218000F081204684F8A05000F050F8022084F836
:10219000A10020680123816921F070418161D4E9A7
:1021A0000010D4E902722669384332438E69104325
:1021B000304388612268A08AA16941EA00419160A8
:1021C0002268A08B216A41EA0041D1602268A08C7C
:1021D000A16A41EA004111612268A08D216B41EAA8
:1021E00000415161226894F8351094F83600D66A9F
:1021F000000406F07F46D662226840EA012094F887
:102200003460D16A31430143D1622068416B41F0AF
:10221000060141632068816941F001018161C4F8D0
:10222000A45084F8A1300020A9E700002DE9F04176
:1022300086B0044614216846FEF7C1F9614920685A
:1022400088427DD16048016841F008010160006862
:1022500000F0080005905C48001F016841F480719F
:102260000160016801F480710591016841F020016D
:102270000160016801F020010591016841F004014D
:102280000160016801F004010591016841F08001DD
:102290000160016801F080010591016841F00101D0
:1022A0000160016801F001010591016841F002013E
:1022B0000160016801F002010591016841F04001EF
:1022C0000160016801F040010591016841F00801D9
:1022D0000160006802250024694600F008000590AE
:1022E0000927A8020090CDE901543848CDE90347F9
:1022F000FFF7A6F90E26694668020090CDE9015461
:102300003348CDE90346FFF79BF941200090CDE922
:10231000015430486946CDE90346FFF791F9102092
:102320000090CDE901542C486946CDE90347FFF7F9
:1023300087F94FF4BC700090CDE90154694600E084
:102340003CE02648CDE90346FFF77AF901200090EA
:10235000DFF88C806946CDE90154CDE9034740465A
:10236000FFF76EF9F0010090CDE90154CDE9034685
:1023700069464046FFF764F94FF40C600090DFF8BF
:1023800064806946CDE90154CDE903464046FFF734
:1023900057F908200090CDE9015413486946CDE96A
:1023A0000346FFF74DF94FF4A0500090CDE90154DA
:1023B000CDE9034769464046FFF742F906B0BDE85C
:1023C000F081000000100050E44402580020025840
:1023D0000014025800080258001C0258000002585D
:1023E0000004025800180258000C0258054808B5AD
:1023F000016841F002010160006800F002000090F5
:1024000008BD0000F4440258002809DB410900F02F
:102410001F028900012001F1E0219040C1F8000174
:10242000704700000E4BF0B41B680D46C3F3022347
:10243000C3F10706042E00D90426191D072901D26D
:10244000002300E0DB1E012404FA06F19C40491E33
:102450002940641E994014402143F0BC06F0CFB9D6
:102460000CED00E0064900F0070210B54FF6FF043E
:102470000868044B204040EA02201843086010BD61
:102480000CED00E00000FA0501680123C0F8D83423
:10249000002280F8CC248869044A40F000608861FA
:1024A000486D10434865002070470000030000108D
:1024B00070470068416200207047F0B503685D6AAC
:1024C00039B19F6A4C1E00204FF4827605EB174508
:1024D0000BE045EA0240986210E0471C06EB8000E2
:1024E00053F800C0F8B205EB1C45A042F5D34FF4F9
:1024F000807000EB810045EA02421A500020F0BDD6
:10250000D0F8E00405F082B801EBC10200EB8202D2
:10251000D0F8E004126A04F0D2BF01EBC10200EB74
:102520008202D0F8E004D2F8602205F024B8D0F896
:10253000E00405F06DB80A0601F00F0101EBC101DE
:1025400000EB810101D5143101E001F5157100683E
:1025500005F068BF01F00F020B0670B502EBC20177
:1025600004464FF001004FF0000504EB810102D555
:102570004875143103E081F8555201F515710A7060
:1025800094F89424012A08D084F89404206805F073
:1025900067FC002084F8945470BD022070BD70B5B3
:1025A0000279044601F00F00904201D9012070BD6C
:1025B00001F00F024FF000050B0602EBC2014FF0D5
:1025C000010204EB810102D54A75143103E081F860
:1025D000555201F515718D70087094F89404012816
:1025E00008D084F89424206805F0A4FD002084F825
:1025F000945470BD022070BD01F00F0101EBC101C8
:1026000000EB8100D0F8680270472DE9F04101F03D
:102610000F0604460D064FF0010006EBC6014FF011
:10262000000504EB810102D54875143103E081F8FF
:10263000555201F51571C2F30A024F780B718A6089
:102640000E7007B14E83022B00D14D7194F8942483
:10265000012A09D084F89404206805F03FFB28463D
:1026600084F89454BDE8F0810220FBE770B501F0D6
:102670000F05002405EBC50100EB810101F5187180
:1026800081E81C0001F80B4C01F80C5D8379012BEB
:1026900000D1CA618279006805F0A4FD002070BDF8
:1026A00070B50D460179044605F00F00884201D946
:1026B000012070BD29064FF000064FF0010206D53B
:1026C00000EBC00104EB81014A75143107E005EB12
:1026D000C50104EB810181F8556201F515718A701D
:1026E000087094F89404012807D084F89424206892
:1026F00005F04CFD280702D007E0022070BDA1794B
:1027000004F29C42206805F0E9FC002084F89464FF
:1027100070BD70B501F00F04002504EBC401012663
:1027200000EB8101203181E82C0001F80B6C01F8ED
:102730000C4D8379012B00D1CA618279006805F0C4
:1027400051FD002070BD00002DE9FC5F05680446C6
:10275000284605F03BFF00287ED1206805F062FF87
:10276000002879D0D5F80808C0F30D20C4F8D404A7
:10277000206805F057FF800704D52068416901F003
:1027800002014161206805F04DFFC10604F29C4042
:10279000009035D52068816921F0100181612F6A90
:1027A00007F00F00C7F3434100EBC000022904EB20
:1027B000800606F5157602D0062912D01BE047F6F2
:1027C000F070074217D0C7F30A12F168174628467F
:1027D00005F02CFF7169F068394471613844F0608C
:1027E00009E000990822284605F020FF7069C7F328
:1027F0000A11084470612068816941F0100181610B
:10280000206805F00FFF00034FF0080B4FF0000A9F
:102810004FF001097CD52068002605F0E2FE07464E
:1028200074E0F80770D02068F1B205F0F3FE80463E
:10283000C00707D005EB4611C1F8089B314620467A
:1028400003F0FEFB5FEA087024D505EB4611C1F8E2
:1028500008BBFE49206800E048E2026C00EB46102D
:1028600001928A42D0F8081B05D9090403D54FF418
:102870000041C0F8081B204600F017FBF3480199FF
:10288000814207D9A079012804D120680121009A4A
:1028900005F024FC5FEAC86004D505EB4611102062
:1028A000C1F8080B5FEA88701DD56869000605D578
:1028B000D5F8040840F48061C5F8041806EBC6009A
:1028C00004EB800090F8571200F51570012905D12E
:1028D00080F803A02046F1B200F00EFA05EB461195
:1028E0000220C1F8080B5FEA886004D505EB4611A9
:1028F0002020C1F8080B5FEA884005D505EB46119A
:102900004FF40050C1F8080B7F08761C002F88D1C7
:10291000206805F087FE40036ED5206805F05AFE5A
:102920000026074666E0F80762D02068F1B205F09D
:102930005FFE8046C00723D0D5F8342806F00F0C80
:1029400005EB461309FA0CF08243C5F83428C3F8A6
:102950000899A07901280FD106EBC60004EB80008E
:10296000D0E907211144016236B9606A20B92068B4
:102970000121009A05F0B2FB2046F1B2FFF7C4FD39
:102980005FEA087003D505EB4611C1F808B95FEAA4
:10299000C86004D505EB46111020C1F808095FEAAC
:1029A000486004D505EB46114020C1F808095FEAEC
:1029B000887016D53146284605F0DDFD06EBC600C9
:1029C00004EB8000C17D1430012905D180F803A0FB
:1029D0002046F1B200F08CF905EB46110220C1F857
:1029E00008095FEA086003D53146204603F08EFBF4
:1029F0007F08761C002F96D1206805F013FE002872
:102A000011DAD5F8040820F00101C5F8041894F88B
:102A1000CC0401283BD0204600F02CFA2068416904
:102A200001F000414161206805F0FCFD00050BD577
:102A3000D5F80808C00702D0204600F05FFA2068E9
:102A4000416901F400614161206805F0EBFD00017E
:102A50000AD52068416901F00061416194F8CC0415
:102A6000E0B1204600F04AFA206805F0DBFDC00422
:102A700073D5D5F8040820F00101C5F804182068C2
:102A8000102105F078FD00214FF67F322DE0002166
:102A9000204684F8CCA4FFF70BFDBFE784F8CC9464
:102AA0002068406D0121C0F38300C4F8D0042046A3
:102AB000FFF7FEFCD8E700BF05EB4110C0F808297E
:102AC000D0F8003923F40013C0F80039C0F8082BFF
:102AD000D0F8003B23F40013C0F8003BD0F8003BD3
:102AE00043F00063C0F8003B491C20798842E3D8DA
:102AF000D5F81C08294640F00110C5F81C08E07BF9
:102B000068B1D1F8840840F00B01C5F88418D5F8F5
:102B1000440840F00B012846C5F844180DE0D5F8EC
:102B2000140842F22B010843C5F81408D5F8100820
:102B300040F00B012846C5F81018D0F8000820F422
:102B4000FE61C5F80018A1792068009A05F0C6FA60
:102B50002068416901F480514161206805F062FDFF
:102B6000800415D5206805F0F9F8206805F021FDEE
:102B7000E07101F06BFCE2790146206805F0B6FDDA
:102B8000204600F061F92068416901F4005141617B
:102B9000206805F047FD000707D5204600F06EF9D4
:102BA0002068416901F008014161206805F03AFDA3
:102BB00000061FD5A969012021F08001A96116E056
:102BC00000EBC00104EB810191F8571201290DD1EE
:102BD00005EB4011D1F8002B42F00062C1F8002B48
:102BE000D1F8002B42F08042C1F8002B401C217923
:102BF0008142E5D8206805F015FDC0021FD50126E9
:102C00004F4614E006EBC60105EB461004EB8102CB
:102C1000D0F80009117E012908D1002806DAF0B2A7
:102C2000D77540F080012046FFF785FC761C20799F
:102C3000B042E7D82068416901F480114161206801
:102C400005F0F0FC800234D5012001E00A30544F39
:102C50004A4626E000EBC00305EB401104EB830677
:102C6000D1F8001B96F85832012B19D1002917DA38
:102C700094F8D434C1F3004103F001038B420FD127
:102C800086F85722A96941F08003AB61696909069A
:102C900006D4D5F8040840F40070C5F8040803E031
:102CA000401C21798142D5D82168486900F4001080
:102CB0004861206805F0B6FC400007D52046FFF7C4
:102CC0001FFC2068416901F080414161206805F0E6
:102CD000A9FC40070AD520684568680702D5204648
:102CE000FFF725FC2068416829434160BDE8FC9F4F
:102CF000D0F8E00404F0E1BCD0F8E00404F0F1BC4A
:102D0000F8B5040004D094F89504002510B106E04D
:102D10000120F8BD204684F8945400F057F80320B1
:102D200084F89504206805F0D3F9207C8DF8000024
:102D300094E80F0005F020F80226B0BB20680021BF
:102D400005F094FC88BB002001270CE000EBC001DB
:102D5000421C04EB81014F750D76CD610D624D6211
:102D60000875C885D0B221798142EFD8002011E0E2
:102D700000EBC001421C04EB810181F8555281F83F
:102D80005852C1F85C52C1F86052C1F8645281F8DF
:102D90005402D0B221798142EAD8207C8DF800001B
:102DA00094E80F0005F0DEF810B184F89564AFE701
:102DB000207B657484F89574012802D12046FFF7C2
:102DC00063FB206805F0C0F80020F8BD10B586B0A0
:102DD000044614216846FDF7F2FB18492068884232
:102DE0002AD100F0CDF81648016841F001010160D8
:102DF00000680A23022200F00100059000204FF431
:102E0000C05100916946CDE90120CDE903030D4889
:102E1000FEF716FC0A480838016841F000610160BD
:102E200000680022114600F0006005906520FFF761
:102E3000F9FA6520FFF7E8FA06B010BD0000084077
:102E4000E04402580000025870B50446C0790125DC
:102E500070B1022801D0FDF792FDD4F8E0042946B4
:102E600004F0AFFCD4F8E004BDE8704004F062BCAC
:102E70000025F2E7D0F8E00404F08CBCD0F8E004C0
:102E800004F092BC10B5044690F8940401280AD0CE
:102E90000120617484F89404206805F016FC002079
:102EA00084F8940410BD022010BDD0F8E02400F294
:102EB0009C41104604F091BC10B590F8941404465F
:102EC0000068012909D0012184F89414C1684906D9
:102ED00009D5617B012902D005E0022010BD816B7C
:102EE00041F480318163206805F023FB206805F000
:102EF0001DF8002084F8940410BD000010B50446AD
:102F0000D0F8E00404F0ABFC2068D0F8001E41F0DB
:102F10000101C0F8001EE07A002804D002480168D0
:102F200041F00601016010BD10ED00E0134970B5DD
:102F30000A68D243520705D5096801F007018142AA
:102F400013D118E00A6822F0070202430A60FEF774
:102F5000A9FC0A4D4FF47A760446083D07E000BF0D
:102F6000FEF7A0FC001BB04201D9012070BD28680B
:102F7000C0438004F4D4002070BD00000C48025807
:102F80000248016841F08071016070470C480258A6
:102F9000F8B50446FEF786FC05461CB194F84100DE
:102FA00010B107E00120F8BD204600F047F841F2DB
:102FB0008830A06420686FF0FF02A168036802EB0C
:102FC000012223F4F85111430160A06C002220215A
:102FD0002B460090204603F023F90028E3D1226815
:102FE000D4E907352679E168176845EA0665DFF810
:102FF00044C01943104B29430025012607EA0C075A
:10300000394311602268D4E90517B4F810C0D2F82A
:1030100004E039430EEA030E4EEA0C4319435160B3
:1030200021680A6842F001020A60656484F8416020
:10303000F8BD00002FFFFF00FEF8E0FF2DE9F0478C
:1030400086B0044614216846FDF7B9FA3249206873
:1030500088425ED13148016841F4804101600068D6
:1030600000F4804005902D480C30016841F01001BB
:103070000160016801F010010591016841F0200133
:103080000160016801F020010591016841F0020131
:10309000016000680024042700970225694600F0BB
:1030A0000200CDE9015409260394CDE904601C48CF
:1030B000FEF7C6FADFF86CA04FF04008CDF80080AC
:1030C0006946CDE90154CDE903465046FEF7B8FA0A
:1030D0004FF440704FF00A0900906946CDE9015461
:1030E000CDE903495046FEF7ABFA00976946CDE9B2
:1030F0000154CDE903460C4E3046FEF7A1FACDF857
:1031000000806946CDE90154CDE903493046FEF718
:1031100097FA06B0BDE8F08700500052D444025838
:1031200000100258001402580004025810B501F0B3
:103130008DF905490968054AC1F30211515C01F096
:103140001F01C84010BD000020440258D2450C08A1
:103150004A4930B5494C0B1D0A680C3409681D6892
:10316000246802F0030305F00102C1F30511C4F362
:10317000CC04002914FB02F200EE102AF8EE400AFB
:1031800076D0414A9FED3E1ADFED3E1AB7EE000AB7
:1031900023B1012B5AD0022B18D15CE0374C283CCC
:1031A00023689B0612D5394B246801EE901A1168EA
:1031B000C4F3C104F8EE612AE34001EE903AC1F392
:1031C0000801F8EE611A81EEA22A07E002EE101A59
:1031D0001168F8EE422A81EEA22A45E001EE901A2B
:1031E0001168F8EE611A40EE811A71EE800A62EE03
:1031F000200AC1F3462101EE101AB8EE411A31EE51
:10320000001AC0EE811ABCEEE11A80ED001A1168B6
:10321000C1F3064101EE101AB8EE411A31EE001A60
:10322000C0EE811ABCEEE11A80ED011A1168C1F3FB
:10323000066101EE101AB8EE411A31EE000A80EE76
:10324000801ABCEEC10A80ED020A30BD01EE901A70
:10325000DFED0F2A03E001EE901ADFED0E2A116870
:10326000F8EE611A82EEA12AC1F30801B6E7FFE782
:10327000002101604160816030BD00002844025897
:10328000000000390024744C304402580090D003F0
:103290000024744A20BCBE4B494930B5484C0B1D34
:1032A0000A68143409681D68246802F00303C5F332
:1032B0000012C1F30531C4F3CC04002914FB02F25F
:1032C00000EE102AF8EE400A75D03F4A9FED3D1AF5
:1032D000B7EE000A6BB1DFED3D1A012B01D0022BD6
:1032E00064D002EE101A1168F8EE422A81EEA22A8A
:1032F00021E0334C283C23689B0612D5344B2468CC
:1033000001EE901A1168C4F3C104F8EE612AE3409B
:1033100001EE903AC1F30801F8EE611A81EEA22A9B
:103320000BE001EE901ADFED2B2A00BFF8EE611AD8
:10333000116882EEA12AC1F3080101EE901A11680A
:10334000F8EE611A40EE811A71EE800A62EE200AF0
:10335000C1F3462101EE101AB8EE411A31EE001AFF
:10336000C0EE811ABCEEE11A80ED001A1168C1F3BB
:10337000064101EE101AB8EE411A31EE001AC0EE05
:10338000811ABCEEE11A80ED011A1168C1F30661E1
:1033900001EE101AB8EE411A31EE000A80EE801AE2
:1033A000BCEEC10A80ED020A30BD04E001EE901AC5
:1033B000DFED092ABAE70021016041608160F3E78F
:1033C0002844025800000039384402580024744A46
:1033D0000090D0030024744C20BCBE4B494930B54A
:1033E000484C0B1D0A681C3409681D68246802F0EB
:1033F0000303C5F30022C1F30551C4F3CC04002933
:1034000014FB02F200EE102AF8EE400A75D03F4A93
:103410009FED3D1AB7EE000A6BB1DFED3D1A012BAF
:1034200001D0022B64D002EE101A1168F8EE422A85
:1034300081EEA22A21E0334C283C23689B0612D55A
:10344000344B246801EE901A1168C4F3C104F8EEFD
:10345000612AE34001EE903AC1F30801F8EE611AE7
:1034600081EEA22A0BE001EE901ADFED2B2A00BFBD
:10347000F8EE611A116882EEA12AC1F3080101EE8B
:10348000901A1168F8EE611A40EE811A71EE800A06
:1034900062EE200AC1F3462101EE101AB8EE411A7D
:1034A00031EE001AC0EE811ABCEEE11A80ED001A6E
:1034B0001168C1F3064101EE101AB8EE411A31EE5F
:1034C000001AC0EE811ABCEEE11A80ED011A1168F3
:1034D000C1F3066101EE101AB8EE411A31EE000A8E
:1034E00080EE801ABCEEC10A80ED020A30BD04E015
:1034F00001EE901ADFED092ABAE700210160416070
:103500008160F3E728440258000000394044025823
:103510000024744A0090D0030024744C20BCBE4B9D
:103520002DE9F04FAC4A0546DFF8A8A280F4807080
:10353000DFF8AC9289B01311AA4C0843A748AAF14E
:1035400004064FF0805C4FF000582CD085F40077D3
:103550000F4357D0DFF87CB285F480670F430BF13F
:10356000080B61D085F400670F4374D085F4805751
:103570000F436ED085F400570F434FF480394FF45A
:10358000003E67D085F400270F4371D085F4803763
:103590000F436ED085F480460E436BD085F4004215
:1035A0000A4368D02AE0DAF8001001F00701052983
:1035B00024D2DFE801F075BC7D25B10006A8FFF735
:1035C000C7FD079809B0BDE8F08F6846FFF764FEB5
:1035D0000098F7E703A8FFF701FF0398F2E72068D8
:1035E000C0F3C10022FA00F0ECE72268D20571D5E1
:1035F00061456FD11846E5E74145E3D00020E1E79A
:103600004846DFE7DAF8001001F4E07180294FD076
:1036100004DC002944D04029F0D188E0C029EFD053
:10362000B1F5807FEAD177E0DBF8001001F46001AA
:10363000B1F5800F3CD004DC91B3B1F5001FDDD1B2
:1036400075E0B1F5C00FDBD0B1F5000FD6D163E066
:1036500001E018E030E0DBF8001001F0E061B1F1CA
:10366000007F25D008DCD9B1B1F1807FC6D15EE002
:1036700049E06CE079E09CE0B1F1407FC0D0B1F16D
:10368000806FBBD148E0DAF8001001F4E041B1F5F9
:10369000005F0DD005DC19B1B1F5805FAED146E019
:1036A00094E0B1F5405FABD0B1F5804FA6D133E0E7
:1036B00020688000A2D58DE7DAF8001001F4E0213F
:1036C000B1F5403F6CD006DC61B149457AD0714517
:1036D00094D157E037E0B1F5802F65D0B1F5A02F38
:1036E0008CD10CE000F0D4FE6CE76846FFF7D4FD07
:1036F000019867E703A8FFF771FE049862E7216865
:103700008903F1D47AE7DBF8001011F440310ED0D0
:10371000494510D07145F5D13168256801F0405117
:103720006D077FF562AF00297FF45FAF57E7206830
:103730000001E7D549E720688000E3D503A8FFF73B
:103740004DFE05983EE722689203DBD554E73068CA
:1037500010F480303AD04845D4D120680001D1D54A
:103760006846FFF799FD02982CE7DBF8001001F09E
:10377000E041B1F1405F13D008DC71B1614521D067
:103780004145BFD120688000B4D437E7B1F1804F04
:103790000AD0B1F1A04FB2D030E7FFF7C7FC11E774
:1037A00020684007AED51AE72068C005AAD521E7F2
:1037B00008E0DAF8001011F04051A0D0614505D0C2
:1037C00041459FD1206800018FD417E72068800110
:1037D00098D5F3E6504402580090D00340787D011C
:1037E0000080BB00004402582DE9FE4F0546DFF87B
:1037F000E48350F8081B0024F64FC943019005F1FB
:103800002800264608F12408009008011DD4A86E5F
:1038100050B1B0F5801F0CD0B0F5001F0ED0B0F540
:10382000401F1ED001240FE0386840F4003038609B
:1038300017E00198022102F017FD03E00098022131
:1038400002F0A2FD04000CD026462888C043C00523
:1038500023D4A86D05281ED2DFE800F00C11161B3A
:103860001B00AA6ED8F8001021F440111143C8F8CB
:103870000010EAE7386840F40030386009E0019849
:10388000002102F0F1FC03E00098002102F07CFD31
:10389000044674B100E0012426462888C043800510
:1038A00028D4E86D80281ED00CDC90B140280ED1C1
:1038B00014E0AA6DD8F8001021F007011143C8F8F0
:1038C0000010EAE7C02813D0B0F5807F10D00124A3
:1038D0000FE0386840F40030386009E001980021BA
:1038E00002F0C2FC03E00098002102F04DFD044606
:1038F0009CB126462888DFF8DC92C04309F12C09E8
:1039000040052CD4D5F8A800B0F5800F20D00DDCF0
:10391000A0B1B0F5001F0FD115E0EA6DD8F8001086
:1039200021F4E0711143C8F80010E3E7B0F5C00FCF
:1039300013D0B0F5000F10D001240FE0386840F428
:103940000030386009E00198002102F08DFC03E0AE
:103950000098002102F018FD04467CB12646288814
:10396000C04300052DD4D5F8AC00B0F1007F21D0C4
:103970000EDCA8B1B0F1807F10D116E0D5F8A820F8
:10398000D9F8001021F460011143C9F80010E6E7EE
:10399000B0F1407F13D0B0F1806F10D001240FE060
:1039A000386840F40030386009E00198002102F0E6
:1039B0005BFC03E00098002102F0E6FC044674B1D1
:1039C00026462868C04380011FD4E86CD8B110286F
:1039D0000FD0202812D0302815D0012414E0D5F8BB
:1039E000AC20D9F8001021F0E0611143C9F80010B3
:1039F000E7E7386840F40030386004E001980221BD
:103A000002F032FC044674B126462888C043C00444
:103A10002BD4286EB0F5005F20D00DDCA0B1B0F53E
:103A2000805F0FD115E06B48EA6C2030016821F00F
:103A3000300111430160E8E7B0F5405F13D0B0F505
:103A4000804F10D001240FE0386840F40030386017
:103A500009E00198002102F007FC03E00098002132
:103A600002F092FC04468CB126462888C0438004AC
:103A700029D4686EB0F5403F23D010DC08B3B0F510
:103A8000803F14D0B0F5003F0FD115E02A6ED8F872
:103A9000001021F4E0411143C8F80010E5E7B0F54B
:103AA000802F0ED0B0F5A02F0BD001240AE0019892
:103AB000012102F0D9FB03E00098012102F064FC2F
:103AC000044694B126462888C04340042AD4D5F839
:103AD000B000B0F1405F23D010DC08B3B0F1805FDC
:103AE00014D0B0F1005F0FD115E06A6ED8F8001065
:103AF00021F4E0211143C8F80010E4E7B0F1804F51
:103B00000ED0B0F1A04F0BD001240AE001980121A2
:103B100002F0AAFB03E00098012102F035FC044604
:103B200074B126462888C04300041FD4286FD8B13A
:103B3000B0F1805F0ED0B0F1005F10D0012414E02E
:103B4000D5F8B020D9F8001021F0E0411143C9F8B0
:103B50000010E7E7386840F40030386004E001986E
:103B6000012102F081FB044674B126462868C04357
:103B7000C0011ED4A86CD0B101280ED0022811D0EB
:103B8000032814D0012413E02A6FD8F8001021F084
:103B900040511143C8F80010E8E7386840F400309D
:103BA000386004E00198022102F05EFB0446ACB1EB
:103BB00026462868DFF81CB0C043ABF11C0B40025E
:103BC00052D40548016841F480710160FDF76AFE36
:103BD000824611E02C44025800480258FA48AA6C68
:103BE000016821F0030111430160E2E7FDF75AFE8D
:103BF000A0EB0A00642835D8F4480068C005F5D564
:103C00008CBBDFF8C4A3B5F8B4100AF1240ADAF8C3
:103C1000000001F4407100F44070884211D0DAF8DD
:103C20000010DAF8002021F4407142F48032CAF822
:103C30000020DAF8002022F48032CAF80020CAF806
:103C40000010D5F8B400B0F5807F1AD1FDF72AFE38
:103C5000029012E0FDF726FE0299411A41F28830E7
:103C600081420AD9032426462878DFF85CA3C043A2
:103C70000AF1080AC00721D03CE0DAF8000080070A
:103C8000E8D5D5F8B410C1F30120032858460DD06B
:103C9000016821F47C510160B5F8B420DAF8001015
:103CA000C2F30B021143CAF80010DDE7C84A0368EB
:103CB00002EA111223F47C511143ECE7E86F182853
:103CC00016D005DCA0B1082808D0102804D10AE0DD
:103CD00020280DD028280BD001240AE001980121CA
:103CE00002F0C2FA03E00098012102F04DFB044605
:103CF00064B126462878C04380071ED4A86F0628E2
:103D000019D2DFE800F0160C11161616EA6FDAF871
:103D1000001021F038011143CAF80010EAE70198B9
:103D2000012102F0A1FA03E00098012102F02CFB2E
:103D300004467CB100E0012426462878C0434007B1
:103D40001FD4D5F89400062819D2DFE800F0160C2D
:103D500011161616AA6FDAF8001021F007011143A8
:103D6000CAF80010E9E70198012102F07DFA03E0AA
:103D70000098012102F008FB0446A4B100E00124F0
:103D800026462878C04380062BD4D5F89000B0F1A1
:103D9000405F24D011DC10B3B0F1805F15D0B0F1DA
:103DA000005F10D116E0D5F89420D9F8001021F06A
:103DB00007011143C9F80010E3E7B0F1804F0ED0BE
:103DC000B0F1A04F0BD001240AE00198002102F0CD
:103DD0004BFA03E00098022102F0D6FA044694B1AF
:103DE00026462878C04340062BD4D5F89C00B0F571
:103DF000406F24D011DC10B3B0F5806F15D0B0F552
:103E0000006F10D116E0D5F89020DAF8001021F0FC
:103E1000E0411143CAF80010E3E7B0F5805F0ED02F
:103E2000B0F5A05F0BD001240AE00198002102F058
:103E30001BFA03E00098022102F0A6FA044694B1AE
:103E400026462878C04300062BD4D5F8A000B0F54C
:103E5000C04F24D011DC10B3B0F5005F15D0B0F521
:103E6000804F10D116E0D5F89C20D9F8001021F42D
:103E7000E0511143C9F80010E3E7B0F5004F0ED050
:103E8000B0F5204F0BD001240AE00198002102F088
:103E9000EBF903E00098022102F076FA044654B1EF
:103EA00026462878C04300071ED4D5F88400B0F514
:103EB000805F0AD00FE0D5F8A020D9F8001021F4D7
:103EC00060411143C9F80010EBE70098022102F0AD
:103ED0005BFA00B10126D5F88420DAF8001021F44D
:103EE00040511143CAF800102878C043C00613D4CB
:103EF000D5F89800B0F5807F05D10098022102F036
:103F000043FA00B10126D5F89820D9F8001021F421
:103F100040711143C9F800102868C043000316D44B
:103F2000D5F8A40038B1B0F5803F09D0B0F5003F16
:103F30000BD001240AE00198002102F095F903E07A
:103F40000098022102F020FA04468CB12646286827
:103F5000C043400322D4D5F88800B0F5801F11D0AB
:103F6000B0F5001F13D0B0F5401F15D0012414E0A8
:103F7000D5F8A420D9F8001021F440311143C9F834
:103F80000010E4E7386840F40030386004E000983E
:103F9000012102F0F9F904465CB126462868C043C5
:103FA000C00323D4286DA8B1B0F5803F17D00124F9
:103FB0001BE0D5F88820DAF8001021F440111143F5
:103FC000CAF80010EAE700004C44025800480258C2
:103FD000CFFFFF00386840F40030386004E00198FB
:103FE000022102F041F90446E4B126462868C043A4
:103FF000800005D40098022102F0C6F900B1012624
:104000002868C04380031BD4D5F88000B0B1B0F558
:10401000807F0FD0B0F5007F10D0B0F5407F0DD07D
:1040200001240CE05A482A6D016821F480311143C3
:104030000160DBE7386840F400303860ECB32646B6
:104040002868C043C00207D46A6FD8F8001021F076
:1040500000411143C8F800102868C043C00008D4CC
:10406000D5F8B820DBF8001021F480411143CBF8DB
:1040700000102868C043800207D4EA6ED8F8001008
:1040800021F080711143C8F800102868C043400037
:104090000CD4DBF8001021F40041CBF80010DBF861
:1040A0000010D5F8BC201143CBF800102868C0439D
:1040B00008D437486A6D016800E018E021F04051EB
:1040C000114301602868C043000208D4D5F88C2051
:1040D000DAF8001021F440011143CAF800102879E1
:1040E0000024C04300F0010020430AD00FE0D5F8BF
:1040F0008020DAF8001021F440711143CAF8001052
:104100009EE70198002102F0AFF800B10646287939
:10411000C04300F00200204305D10198012102F0C4
:10412000A3F800B106462879C04300F004002043FC
:1041300005D10198022102F097F800B106462879CE
:10414000C04300F00800204305D10098002102F090
:104150001BF900B106462879C04300F01000204347
:1041600005D10098012102F00FF900B10646287927
:10417000C04300F02000044304D10098022102F063
:1041800003F900B916B10120BDE8FE8F0020FBE75E
:104190004C4402582DE9F05F04000F467ED0DFF852
:1041A0003882D8F8000000F00F00B8420CD2D8F8DE
:1041B000001021F00F013943C8F80010D8F80000B2
:1041C00000F00F00B84269D12078844D40070AD52D
:1041D0002069296801F07001884204D9296821F01A
:1041E00070010143296020787C4E361D00070AD5F6
:1041F0006069316801F07001884204D9316821F0AA
:104200007001014331602078C0060AD5A069316889
:1042100001F4E061884204D9316821F4E06101438E
:1042200031602078DFF8B4B180060BF1080B0CD5B3
:10423000E1695846DBF8002002F07002914204D98F
:10424000026822F070020A430260207880070AD5D3
:10425000E068296801F00F01884204D9296821F03B
:104260000F01014329602078C0073ED05B49A26856
:104270002868183920F470601043286060680228AC
:1042800018D0032819D00968012819D04907002936
:104290004ADADFF848A1AAF1080A00E044E0DAF8B7
:1042A000002022F007020243CAF80020FDF7FAFAC4
:1042B000814612E009688903E9E709688901E6E7B0
:1042C000C905E4E7FDF7EEFAA0EB090141F28830F9
:1042D000814202D90320BDE8F09F6168DAF800004E
:1042E00000F03800B0EBC10FECD1207880070AD580
:1042F000E068296801F00F01884204D2296821F0A2
:104300000F0101432960D8F80010404601F00F0169
:10431000B9420BD9016821F00F01394301600068EF
:1043200000F00F00B84201D00120D4E72078400708
:104330000AD52069296801F07001884204D22968F1
:1043400021F0700101432960207800070AD56069D7
:10435000316801F07001884204D2316821F07001A7
:10436000014331602078C0060AD5A069316801F4A4
:10437000E061884204D2316821F4E0610143316098
:10438000207880060CD5E1695846DBF8002002F061
:104390007002914204D2026822F070020A43026065
:1043A00000F09AF80E492A682B68C2F3032203F042
:1043B0000F038A5CC95C02F01F0201F01F01D040AC
:1043C000084A20FA01F111600749086007480068AF
:1043D000BDE8F05FFDF75EBE0020005218440258B1
:1043E000D2450C0878000024740000246C000024DE
:1043F00070B5144C3F220260124A24680832131D23
:10440000114D04F00704446016681C1D06F4706624
:104410008660166806F00F06C660126802F0700229
:1044200002611A6802F0700242611A6802F4E062E6
:104430008261226802F07002C261286800F00F00F9
:10444000086070BD104402580020005230B500F0E2
:1044500043F80B4A0B490C4B15681468C5F303224B
:1044600004F00F048A5C095D02F01F0201F01F01D5
:10447000D040064A20FA01F119601060084630BDAC
:1044800018440258D2450C08780000247400002417
:1044900000B5FFF7DBFF05490968054AC1F30211C2
:1044A000515C01F01F01C84000BD00001C440258CF
:1044B000D2450C0800B5FFF7C9FF05490968054A50
:1044C000C1F30221515C01F01F01C84000BD000092
:1044D0001C440258D2450C08454970B54548096846
:1044E000434B103B11F0380208D00111082A03D0C9
:1044F000102A0BD0182A0BD0084670BD19688906FF
:10450000FBD51968C1F3C101C84070BD3A4870BD00
:104510003749374D18310C1D24350A68096826685B
:104520002D6802F0030406F00102C1F30511C5F382
:10453000CC0515FB02F200EE102AB8EE400AE9B3F2
:104540002F4ADFED2E0AB7EE001A6CB1DFED2D1AFF
:10455000012C01D0022C43D002EE101A1068F8EEA4
:10456000422A81EEA22A1EE01C68A40611D51B680F
:1045700001EE901A1168C3F3C103F8EE612AD84026
:1045800001EE900AC1F30800F8EE611A81EEA22A4A
:104590000BE001EE901ADFED1C2A00BFF8EE611A65
:1045A000106882EEA12AC0F3080001EE900AF8EE2E
:1045B000611A40EE201A31EE810A00E015E022EE89
:1045C000000A1068C0F34620401C00EE900AF8EE86
:1045D000600A80EE201ABCEEC10A10EE100A70BD0F
:1045E00001EE901ADFED092AD8E7002070BD000027
:1045F000104402580090D00340787D01000000393B
:10460000304402580024744A0024744C20BCBE4B31
:104610002DE9F05F04007DD0FF4F2078FE4D183764
:10462000DFF8F493103DC00748D0D9F8000039688E
:1046300000F03800102815D0182803D101F003002D
:1046400002280FD06068B0F5803F12D010B1B0F5ED
:10465000A02F18D0286820F480302860286820F423
:10466000802009E02868800328D560680028D2D01F
:1046700024E0286840F480302860606888B1FDF745
:1046800011F9064609E0286840F480202860F0E728
:10469000FDF708F9801B64286FD828688003F7D5D8
:1046A0000CE0FDF7FFF8064605E000BFFDF7FAF85D
:1046B000801B6428F0D828688003F7D4207841F262
:1046C0000308D54E0C3E800769D5D9F8000039683B
:1046D00010F038000ED0182801D188070AD0E06801
:1046E00090B3296821F0190101432960FDF7DAF838
:1046F000824631E02868400702D5E06800288AD069
:10470000E168286820F0190008432860FDF7CAF81E
:10471000824607E0DFE000BFFDF7C4F8A0EB0A0027
:104720000228B9D828684007F6D500BFFDF7B4F8CD
:1047300040451BD82069402812D0316821F47C31D3
:1047400041EA003030602AE018E000BFFDF7AAF827
:10475000A0EB0A0002289FD828684007F6D5E5E7B5
:10476000306820F47C3040F40030EBE7207C316886
:1047700021F0FE4141EA0060E4E70DE1286820F005
:1047800001002860FDF78EF8824605E0FDF78AF803
:10479000A0EB0A0002288DD828684007F6D42078BC
:1047A000C0065DD5D9F80000DFF86CB2396800F0BA
:1047B0003800ABF1040B082810D0182803D101F001
:1047C000030001280AD0E0690028286838D040F0AA
:1047D00080002860FDF766F8824623E02868C0055F
:1047E00023D5E069802876D11FE0206A202821D0D7
:1047F000316821F0F84141EA8060306030E000BF6C
:1048000094F82010DBF8002022F07C5242EA01618B
:10481000CBF8001024E000BFFDF744F8A0EB0A003D
:10482000022898D82868C005F6D5FDF735F8404528
:10483000E6D8DAE7306820F0F84040F08040DCE766
:1048400020F080002860FDF72DF8064605E000BF47
:10485000FDF728F8801B02289DD82868C005F7D4EA
:104860002078000729D56C486169643000298046AA
:10487000016811D041F001010160FDF713F806460F
:1048800005E000BFFDF70EF8801B0228C9D8D8F854
:1048900000008007F6D510E021F001010160FDF76E
:1048A00001F8064605E000BFFCF7FCFF801B02286C
:1048B00072D8D8F800008007F6D42078800623D577
:1048C000A0690028286810D040F480502860FCF7C8
:1048D000E9FF064605E036E1FCF7E4FF801B02280D
:1048E0005AD828688004F7D50EE020F4805028605C
:1048F000FCF7D8FF064604E0FCF7D4FF801B022833
:104900004AD828688004F7D4207840074FD5DFF8CC
:104910000C81D8F8001041F48071C8F80010FCF741
:10492000C1FF064605E000BFFCF7BCFF801B642802
:1049300032D8D8F80000C005F6D5374EA0686036EA
:1049400001280AD008B1052813D0306820F00100F2
:104950003060306820F0040002E0306840F0010070
:104960003060A06841F2883A90B1FCF79BFF804626
:104970000AE0306840F004003060EEE7FCF792FF98
:10498000A0EB0801514507D830688007F6D50EE046
:10499000FCF788FF804607E084E000BFFCF782FF59
:1049A000A0EB080151457DD830688007F6D4606AD5
:1049B000B0B3DFF86480D9F8001008F120084FF692
:1049C000F87B08F10409C1F3C2010329A8F1040A24
:1049D00069D00228286820F08070286003D0FCF796
:1049E00061FF044684E0FCF75DFF064605E000BF7A
:1049F000FCF758FF801B022877D828688001F7D47D
:104A0000E26A40F2F331386854F8283F884340EABC
:104A100002101843386004E010440258004802585D
:104A2000B5E0217B434622894FF4FE0C208A4FF0EB
:104A3000FE474902267D521E401EA1F50071C2F3B9
:104A400008088AB2761E0CEA004042EA08020243D5
:104A5000504607EA06610A431A60DAF8002022F09D
:104A60000102CAF80020D9F80020266A22EA0B02C7
:104A700042EAC602C9F80020DAF80010A26921F063
:104A80000C011143CAF800100168E26921F002012B
:104A900011430160016841F480310160016841F413
:104AA000003101E021E027E00160016841F480214C
:104AB0000160016841F001010160286840F08070E8
:104AC0002860FCF7EFFE044605E000BFFCF7EAFEB5
:104AD000001B022809D828688001F7D557E000BFDD
:104AE000FCF7E0FE001B022802D90320BDE8F09F7E
:104AF00028688001F4D44AE039680128D8F8000019
:104B000021D0A26A01F0030393421CD1E26AC1F3EF
:104B100005118A4217D1216BC0F30802491E8A424F
:104B200011D1616BC0F34622491E91420BD1A16B9A
:104B3000C0F30642491E914205D1E16BC0F3066005
:104B4000491E814201D00120D0E7A16C4E46D9F820
:104B50000000C0F3CC00814219D0DAF800005546BD
:104B600020F00100CAF80000FCF79CFE4FEA0007A5
:104B7000FCF798FEB842FBD0A26C306820EA0B002C
:104B800040EAC2003060286840F001002860002040
:104B9000ACE7000070B504000D4603D094F82C007B
:104BA00010B107E0012070BD002084F82D002046E0
:104BB00000F018F8022084F82C002068211DFBF773
:104BC000FBFED4E900022946FBF748FF0448012117
:104BD000026842F00042026084F82C10002070BD90
:104BE00000400052FCF7C2BC10B5044690F82C00FF
:104BF000022804D094F82C00012801D0012010BD17
:104C0000022084F82C002068FBF70BFF012084F8B9
:104C10002C00002010BD000070B5044690F82C0058
:104C20000D46022804D0012803D0052801D0012018
:104C300070BD022084F82C002068FBF7FBFE28687A
:104C4000022805D05FF0010084F82C00002070BD20
:104C50000520F9E77047704770470000F0B590F8FD
:104C60003C20012A3BD01F4E012480F83C40022208
:104C700080F83D2002681C4D5368B242D2F808C04B
:104C800001D0AA4203D14F6823F470033B430F685D
:104C900023F070031F4357600268B24213D0B2F191
:104CA000804F10D0114B9A420DD0114B9A420AD02E
:104CB000104B9A4207D0AA4205D00F4B9A4202D01D
:104CC0000E4B9A4204D189682CF0800319439160FD
:104CD000002180F83D4080F83C100846F0BD0220DD
:104CE000F0BD00000000014000040140000400404D
:104CF00000080040000C0040001800400040014047
:104D000010B5040003D094F83D0010B107E0012075
:104D100010BD002084F83C00204600F023F802205B
:104D200084F83D002068211D01F044FD012084F835
:104D3000480084F83E0084F83F0084F8400084F87E
:104D4000410084F8420084F8430084F8440084F869
:104D5000450084F8460084F8470084F83D000020B0
:104D600010BD000008B500681149884209D11148FA
:104D7000016841F480710160006800F48070009067
:104D800008BD0D498842FBD10A480830016841F44A
:104D90008021016000680022114600F4802000900C
:104DA0007620FDF73FFBBDE808407620FDF72CBBE1
:104DB00000200040E84402580048014090F83D10AF
:104DC000012901D001207047144B0222016880F8AC
:104DD0003D20994214D0B1F1804F11D0104881424A
:104DE0000ED0104881420BD00F48814208D00F48A6
:104DF000814205D00E48814202D00E48814207D13F
:104E000088680D4A1040062806D0B0F5803F03D0D0
:104E1000086840F001000860002070470000014071
:104E20000004004000080040000C00400004014065
:104E300000180040004001400700010090F83D10BC
:104E4000012901D001207047174A022180F83D1046
:104E50000168CB6843F00103CB600068904214D036
:104E6000B0F1804F11D0114988420ED010498842CC
:104E70000BD01049884208D00F49884205D00F490D
:104E8000884202D00E49884207D181680D4A1140FC
:104E9000062906D0B1F5803F03D0016841F0010139
:104EA0000160002070470000000001400004004045
:104EB00000080040000C00400004014000180040C1
:104EC000004001400700010070472DE9F041044611
:104ED00000680027C6680569A90713D5B10711D571
:104EE000FA1E02610121217720688069800720462F
:104EF00002D0FFF7E9FF04E000F0B4F8204600F02C
:104F000089F92777680716D5700714D5226802201B
:104F10006FF00401116120772068806910F4407FF0
:104F2000204602D0FFF7D0FF04E000F09BF82046B7
:104F300000F070F92777280715D5300713D52268B8
:104F400004206FF00801116120772068C069800794
:104F5000204602D0FFF7B8FF04E000F083F82046B7
:104F600000F058F92777E80616D5F00614D5226820
:104F700008206FF01001116120772068C06910F4DB
:104F8000407F204602D0FFF79FFF04E000F06AF860
:104F9000204600F03FF92777E80708D0F00706D051
:104FA00021686FF001000861204600F0BDF9280675
:104FB00001D4A80408D5300606D521686FF4025044
:104FC00008612046FFF747FEE80508D5300606D5FC
:104FD00021686FF4807008612046FFF73BFE680689
:104FE00008D5700606D521686FF04000086120469C
:104FF00000F0A4F9A8060AD5B00608D521686FF01C
:10500000200008612046BDE8F041FFF725BEBDE85D
:10501000F081000010B586B0044614216846FBF705
:10502000CEFA0D492068884214D10C48016841F03D
:105030008001016000680021402200F0800005909E
:1050400002200092CDE90101CDE903100448694630
:10505000FCF7F6FA06B010BD00180040E044025814
:10506000001C0258704770B5044690F83C000026BA
:105070000D4601280BD0012084F83C000C2A4AD0B0
:1050800007DC82B1042A20D0082A06D131E00220B0
:1050900070BD102A53D0142A63D00126002084F852
:1050A0003C00304670BD206801F0F8FB2068816943
:1050B00041F0080181612068816921F0040181616A
:1050C00020682A698169114311E0206801F03CFCE5
:1050D0002068816941F4006181612068816921F45F
:1050E0008061816120682969826942EA01218161C8
:1050F000D4E7206801F076FC2068C16941F008011E
:10510000C1612068C16921F00401C16120682A6978
:10511000C169114311E0206801F0B2FC2068C16947
:1051200041F40061C1612068C16921F48061C161FD
:1051300020682969C26942EA0121C161AEE720689D
:1051400001F0DAFC2068416D41F0080141652068FA
:10515000416D21F00401416520682A69416D1143C8
:1051600011E0206801F002FD2068416D41F400610A
:1051700041652068416D21F480614165206829699D
:10518000426D42EA0121416588E710B5040003D071
:1051900094F83D0010B107E0012010BD002084F814
:1051A0003C00204600F022F8022084F83D002068F0
:1051B000211D01F0FFFA012084F8480084F83E0028
:1051C00084F83F0084F8400084F8410084F84200ED
:1051D00084F8430084F8440084F8450084F84600CD
:1051E00084F8470084F83D00002010BD08B5006831
:1051F0000649884208D10648016841F04001016033
:10520000006800F04000009008BD00000018004059
:10521000E84402587047000030B504464FF00202DF
:1052200069B1042912D0082917D00C291CD01029E3
:1052300021D094F84300012824D0012030BD94F8F7
:105240003E000128F9D184F83E201DE094F83F008B
:105250000128F2D184F83F2016E094F8400001289C
:10526000EBD184F840200FE094F841000128E4D10C
:1052700084F8412008E094F842000128DDD184F848
:10528000422001E084F843200122206801F0F8FA6E
:105290001B4B20681B491C4A984209D0884207D002
:1052A000904205D0194DA84202D0194DA84203D111
:1052B000456C45F4004545642068984212D0B0F131
:1052C000804F0FD0134B98420CD0134B984209D00B
:1052D000124B984206D0884204D01149884201D02E
:1052E000904207D181680F4A1140062906D0B1F5D6
:1052F000803F03D0016841F001010160002030BD12
:105300000000014000040140004001400044014011
:10531000004801400004004000080040000C00402C
:10532000001800400700010000680349884201D1CD
:10533000FCF77ABE70470000004401407047FEE76A
:1053400001688A69D243920701D400228A62006808
:105350008169C943C90703D0816941F001018161B5
:10536000704700002DE9F047044600680026894692
:1053700017464FF0200835468169C90641D51021EE
:10538000C1612FE0B9F1FF3F2CD0FCF78BFAC11BB4
:10539000494502D8B9F1000F24D12068426894F839
:1053A0004210836902F48042DB431B0415D4B2F53A
:1053B000804F12D0202910D0416841F480414160D3
:1053C000FCF770FA074608E0FCF76CFAC01B1928D6
:1053D00003D9012645F0200504E020688069C04318
:1053E0008006F1D420688069C043800602D5002E73
:1053F000C8D003E016B92168C1F81C80012645F029
:10540000040521688869C20505D54FF48072CA6118
:1054100045F00105012641050AD5216880054FF4B4
:10542000806245F00805CA614FF0010602D40AE027
:10543000800507D5206801264FF4007145F002056C
:10544000C16100E08EB12046FFF77AFF206800219D
:10545000074F43683B404360606C2843606484F8B6
:10546000418084F8421084F840103046BDE8F0874F
:1054700000E800FE2DE9F0410A4E00250124074610
:105480000523384661000122FCF7C8FA20B9042D33
:10549000745501D26D1CEDB2641CE4B27F2CEFD3C5
:1054A000BDE8F0811000002470B50068C1F3090167
:1054B00041EA0241074D049C19434FF4806642685B
:1054C000214306EA54532B439A4321F000410A43F7
:1054D000426070BDFF63FF032DE9F0411D46174692
:1054E0000E460446DDF8188028E04246294620464C
:1054F000FFF738FF10B10120BDE8F081681C1DD016
:10550000FCF7D0F9A0EB0800A84200D8B5B9206894
:10551000806936EA00000FD00020B8420ED1626CDC
:10552000002084F84000202142F02002626484F8C8
:10553000411084F84200DEE70120EEE72068806930
:1055400036EA000004D00020B842CED00020D3E7D5
:105550000120F9E72DE9F0470026914620278846EB
:10556000044635463DE04A4641462046FFF7FAFEEE
:1055700000B1012520688169C943890619D4C5B9DC
:1055800081698169C943C90612D41021C16104220D
:105590001949626401252068C761206842680A4091
:1055A000426084F8417084F8426084F8406000E012
:1055B0006664FCF777F9A0EB0901414502D8B8F120
:1055C000000F0ED16DB920688069C043400708D52F
:1055D000606C012584F8406040F02000606484F82D
:1055E000417020688069C043400701D5002DBAD0C2
:1055F0002846BDE8F087000000E800FE70B51646BA
:105600000D4604461FE0324629462046FFF7AAFE13
:1056100008B1012070BDFCF745F9801BA84200D8F5
:105620008DB920688069C04380060CD5626C00206B
:1056300084F84000202142F02002626484F8411086
:1056400084F84200E5E720688069C0438006DAD428
:10565000002070BD70B516460D46044621E0324666
:1056600029462046FFF77EFE08B1012070BD681C68
:1056700017D0FCF717F9801BA84200D88DB9206815
:105680008069C04380070CD5626C002084F840001C
:10569000202142F02002626484F8411084F8420024
:1056A000E3E720688069C0438007D8D4002070BD3C
:1056B000F0B500230A251C463026372711E000BF2D
:1056C000B5EB107F02D906EB107C01E007EB107CF4
:1056D00001F813C001EB430C00015B1C8CF8014086
:1056E000DBB29342ECD3F0BD044B00214A00A2F19F
:1056F0008042491C99421080F8D3704700DC0500B5
:105700002DE9FF4F83468A46A2F120005F2820D270
:10571000114902EB420000254FF0800801EB8000A8
:10572000A0F5C0795FF000040AEB050719F80560E1
:1057300028FA04F0304206D00BEB0400039AB9B209
:1057400080B200F080F8641C082CF1DB6D1C0C2D7D
:10575000E8DBBDE8FF8F0000E2450C082DE9FF4FB4
:105760005FEA030A0E4682B0074669D0002064E073
:1057700004980024A0EB09010DB20320694200EB5C
:1057800041000FFA80F854E038190F9A06EB050B28
:10579000019080B21FFA8BF100F055F8381B009091
:1057A00080B20F9A1FFA8BF100F04DF80198A6EB2A
:1057B000050B1FFA8BF10F9A80B200F044F80098A5
:1057C0001FFA8BF10F9A80B200F03DF878190F9A0A
:1057D00006EB040B019080B21FFA8BF100F033F856
:1057E000781B00901FFA8BF10F9A80B200F02BF813
:1057F0000198A6EB040B1FFA8BF10F9A80B200F010
:1058000022F800981FFA8BF10F9A80B200F01BF873
:10581000B8F1000F03DA08EB8400801D05E0611B7E
:105820006D1E08EB81002DB20A30641C0FFA80F85F
:1058300024B2AC42A8DD09F101005045814697DB56
:1058400006B0BDE8F08FB0F5487F0CD2B1F5F07F1F
:1058500009D201EBC10303EB011100EB4110400041
:10586000A0F1804002807047F0B51E4614460F46F6
:10587000054607E0334639462846FFF741FF08351D
:10588000ADB2641C2278002AF4D1F0BD8068C0F368
:10589000C00070478068C0F3800070478068C0F324
:1058A000800070472DE9FC4F82468D8889469346DB
:1058B0008820DAF800108C2300EBCB149422A64643
:1058C000C868C0F30B4028440D59040403EBCB1007
:1058D00005F47045CDE9000441F80E509C23D9F839
:1058E000004003EBCB164FF0AC0C982340F2077747
:1058F00002EBCB11A02503EBCB1205EBCB13DAF8AF
:1059000000500CEBCB1CD5F80C80C8F30B4808F109
:105910000108A044019C48EA040845F80E80DAF822
:105920000040B9F80C50D4F80C802058C8F30A088D
:10593000454400F47048009844F80080DAF80040CC
:10594000D9F80800D4F80C80C8F30A0808F1010857
:105950008044009848EA054844F80080DAF80000DE
:10596000445824F007044450DAF80040D9F81000F5
:10597000605099F8310099F81810040299F8320033
:10598000000440EA016099F8301021430143DAF83D
:1059900000008151DAF80000815821F0FF018150A8
:1059A000DAF80000D9F814108150DAF80000C15874
:1059B000B943C150DAF80010D9E907021043C850C2
:1059C000DAF80010D9F8240041F80C00D9F81000DA
:1059D000C8B301283AD004283AD0022838D0032886
:1059E00036D0072834D00120DAF80030B02505EB96
:1059F000CB11B42284245D5802EBCB1205F0E025D4
:105A00005D50D9E9003504EBCB14EB1AB9F82850F6
:105A100043434543DAF80000DB1D43EA05434350A6
:105A2000DAF8000081586FF30A018150DAF80000BB
:105A3000D9F82C108150DAF80000015941F0010129
:105A40000151BDE8FC8FFFE70420CDE70320CBE741
:105A50000220C9E730B58BB0002468461C210794AA
:105A600008940994FAF7ABFD1C4804251A4A012151
:105A7000C0E900248460C0E9034504754475816170
:105A8000047744628462C4620463446380F83840EB
:105A9000C163FBF7DFFA08B1FAF771FF0F4807A9F6
:105AA0000794FBF733F808B1FAF769FF0C480621B1
:105AB00040F2FF7203928DE8130008486946CDE971
:105AC00004548DF81940FBF7B5F8002801D0FAF717
:105AD00056FF0BB030BD000000200240A80100249A
