:020000040800F2
:1000000018410024B102000803350008F32F00084E
:100010000135000811050008F93E00080000000045
:10002000000000000000000000000000453700084C
:1000300013050008000000000535000847370008D8
:10004000CB020008CB020008CB020008CB0200085C
:10005000CB020008CB020008CB020008CB0200084C
:10006000CB020008CB020008CB020008CB0200083C
:10007000CB020008CB020008CB020008CB0200082C
:10008000CB020008CB020008CB020008CB0200081C
:10009000CB020008CB020008CB020008CB0200080C
:1000A000CB020008CB020008CB020008CB020008FC
:1000B000CB020008CB020008CB020008CB020008EC
:1000C000CB020008CB020008CB020008CB020008DC
:1000D000CB020008CB020008CB020008CB020008CC
:1000E000650B0008CB02000800000000CB020008EE
:1000F000CB020008CB020008CB020008CB020008AC
:10010000CB020008CB020008CB020008CB0200089B
:10011000CB020008CB020008CB020008CB0200088B
:10012000CB020008CB020008CB020008CB0200087B
:10013000CB02000815050008CB020008CB0200081E
:1001400000000000000000000000000000000000AF
:10015000CB020008CB020008CB020008CB0200084B
:10016000CB020008CB020008CB020008CB0200083B
:10017000CB020008CB020008CB0200080000000000
:10018000CB020008CB020008CB020008CB0200081B
:10019000CB020008CB020008CB020008CB0200080B
:1001A000CB020008CB020008CB020008CB020008FB
:1001B000CB020008CB020008CB020008CB020008EB
:1001C000CB020008CB020008CB020008CB020008DB
:1001D000CB020008CB020008CB020008CB020008CB
:1001E000CB020008CB020008CB020008CB020008BB
:1001F000CB020008CB020008CB020008CB020008AB
:10020000CB020008CB020008CB020008CB0200089A
:10021000CB020008CB020008CB020008CB0200088A
:10022000CB020008CB020008CB020008000000004F
:10023000CB020008CB02000800000000CB0200083F
:10024000CB020008CB020008CB020008CB0200085A
:10025000CB020008CB020008CB020008CB0200084A
:10026000CB020008CB020008CB020008CB0200083A
:10027000CB020008CB020008CB02000800000000FF
:10028000CB02000800000000CB02000800000000C4
:1002900000000000CB020008DFF810D000F0F2F8F8
:1002A00000480047D9760008AFF3008018410024C9
:1002B0000648804706480047FEE7FEE7FEE7FEE700
:1002C000FEE7FEE7FEE7FEE7FEE7FEE7013800088F
:1002D000990200082DE9F05F0546002092469B46F2
:1002E00088460646814640241BE02846414647464C
:1002F000224600F0B6F853465A46C01A914110D330
:1003000011461846224600F09DF82D1A67EB0108A9
:100310004F4622460120002100F094F817EB000917
:100320004E41201EA4F10104DFDC484631462A4636
:100330004346BDE8F09F40EA01039B0703D009E074
:1003400008C9121F08C0042AFAD203E011F8013BC1
:1003500000F8013B521EF9D27047D2B201E000F81A
:10036000012B491EFBD270470022F6E710B5134659
:100370000A4604461946FFF7F0FF204610BD30B587
:1003800005462A460B4612F8010B13F8014B08B13B
:10039000A042F8D01CB1002802D06D1CF1E728461D
:1003A00030BDCAB2401E10F8011F8A4202D0002997
:1003B000F9D100207047421C10F8011B0029FBD125
:1003C000801A704710B5002200E0521C835C8C5CE0
:1003D000A34201D1002BF8D1D8B2E1B2401A10BD2E
:1003E00030B504460020034600E05B1C934203D274
:1003F000E05CCD5C401BF8D030BD30B50546002038
:10040000034600E05B1C934205D2EC5CC85C201AFA
:1004100001D1002CF6D130BD30B50B46014600208D
:100420002022012409E021FA02F59D4205D303FAB6
:1004300002F5491B04FA02F52844151EA2F1010237
:10044000F1DC30BD202A04DB203A00FA02F1002062
:1004500070479140C2F1200320FA03F31943904002
:100460007047202A04DB203A21FA02F0002170476D
:1004700021FA02F3D040C2F120029140084319460C
:1004800070470000064C074D06E0E06840F00103AD
:1004900094E8070098471034AC42F6D3FFF700FF0A
:1004A00044E6010864E6010870B508B1002070BD9B
:1004B00002224FF47A70B2FBF0F06FF07C066425F4
:1004C0004FF47A740A23C0B210FB06F610FB04F452
:1004D0003030087002EBC602B2FBF5F2D2B202F184
:1004E0003000487002EBC20505EB021204EB8202F9
:1004F000C2F10200B0FBF3F0C0B200EB8003303079
:10050000887002EB43020420C2F13202CA7070BD4F
:10051000FEE77047014800F0E5BC000048010024F8
:1005200070B5A2B0064600244FF4C36001258DF8D3
:100530000F5002238DF81D4069038DF80E50099469
:100540008DF81F400D9020208DF804508DF832500A
:1005500042028DF8605006914FF040518DF83840BE
:1005600002948DF861408DF81C408DF828408DF87C
:1005700062408DF80C400B948DF81E500F948DF84E
:10058000115012948DF840408DF831408DF8124092
:1005900014948DF856401790304616938DF82050DD
:1005A00005928DF854408DF830408DF81050009130
:1005B00069468DF80D408DF8554011948DF84C50DA
:1005C00000F0FCF91B9568058DF871404FF4067139
:1005D0008DF8685019948DF880408DF870401F9008
:1005E0008DF878401D9030468DF88140219119A9F1
:1005F00000F08AF922B070BD0020704701F076B992
:10060000024810B500F02AFF002010BD4801002468
:1006100013460A460146044810B500F0DFFE0028E4
:1006200001D04FF0FF3010BD4801002413460A46A8
:100630000146044810B501F01FF8002801D04FF022
:10064000FF3010BD480100242DE9F04F836A00F10E
:10065000180593468C6800271E4655F82320D2F8CB
:100660000CC0BCF1000F63DB91F800805FEA4878B2
:1006700037D5D1F824806FF30F0C4CEA080C4CF4FA
:10068000803CC2F80CC0D0F800C0DCF8608048F4B0
:100690008018CCF8608091F800C05FEA0C7C20D50F
:1006A000B1F82CC0A2F80AC0D2F80CC04CF4003C3F
:1006B000C2F80CC0D1F830802CF4402C4CEA080C65
:1006C000C2F80CC0D0F800C0DCF8648048F4801890
:1006D000CCF864800068D0F850C04CF0806CC0F852
:1006E00050C00878C0060BD59068D1F818C06FF3D9
:1006F0000D0040EA0C009060D06840F08060D0604F
:10070000087810F0140F14D0D0685B1C042B40F054
:100710004040D06000D31B1F012755F82320D0682C
:10072000002806DA55F82600C16821F00041C160B2
:100730008DE020687F1C10604FF000099068D4F8AD
:100740000480DFF8C0C16FF30D0040EA080090603C
:10075000D4F80880B8F1000F0BD04446D8F80080D8
:10076000C2F8048000EA0C00B4F8048040EA0840B3
:1007700003E000EA0C00C2F8049090600878C0061C
:10078000D0680FD5B1F8208020F4F00040EAC840CE
:10079000D060D1F81C806FF3110040EA080040F4EB
:1007A00080201CE0D1F804806FF30E0040EA0800BE
:1007B000D06091F800805FEAC87806D0D1F8148044
:1007C00020F4403040EA0800D0600878800607D561
:1007D000D068D1F8108020F0406040EA0800D06076
:1007E0000878400707D59068D1F8288020F4404069
:1007F00040EA08009060D06820F0804040F020403F
:10080000D06091F800805FEA887864D5D1F80C80D8
:1008100020F0607040EA08005CE05B1C042B00D311
:100820001B1F55F82320D068002813DA55F826102E
:1008300000200AE0CA68761C042E22F00042CA603A
:1008400000D3361F401C55F82610B842F2D30220C0
:10085000BDE8F08F20687F1C10609068D4F8048099
:100860006FF30D0040EA080AC2F808A0A06840B182
:100870000446006850600AEA0C08A08848EA004074
:1008800003E00AEA0C00C2F8049090600878C00601
:10089000D06808D5D1F81C806FF3110040EA080039
:1008A00040F4802010E0D1F804806FF30E0040EA9D
:1008B000080AC2F80CA00878C00716D0D1F8148036
:1008C0002AF4403040EA0800C2F80C0020F08040D2
:1008D00040F00040D060A468002C9ED19068BBF12D
:1008E000000F04D040F0004003E0D068EEE720F0B5
:1008F00000409060D06840F08050D06000202B61B4
:10090000A6E70000FFFF00C0F0B5026847F6020E40
:10091000274E4DF2010702F58052264DD1F800C056
:100920001368254C23EA0E0343EA0C0313600B798A
:10093000026891F80CE002F58052D1F808C01B0360
:1009400043EACE3343EA0C03D2F804C02CEA070C86
:100950004CEA030CC2F804C002684F7B02F58052D7
:100960000B6A43EA0747D2F8003133403B43C2F8F1
:10097000003102680B7D02F5805291F81DC00F69AD
:10098000D2F804611B0143EA0C332E403B431E4363
:10099000C2F8046100680B7F00F580508A69D0F8C6
:1009A000081142EAC37221401143C0F80811F0BD9A
:1009B00000C0FEFFEFEFC0FFFFFFC07FF0B50B7977
:1009C0000C7B0F688A68DB064D7B43EAC4533A43CD
:1009D0008E7B1A43CF7B91F810C042EA855242EADF
:1009E0004652BCF1000F42EA07537CD000224C7CF7
:1009F000002C43EAC24278D000238E7C0D7F42EA6D
:100A000043428F7FD1E9053442EA06424E7F1A43C2
:100A1000224342EA0532002F42EAC62466D0002271
:100A2000CD7F91F8203044EA8222002B42EA452211
:100A30007ED0002504684B6A42EA052291F82870AE
:100A4000464D1A43CE6A236842EA071232432B40CE
:100A50001343236091F83C2091F8383091F83050DE
:100A600091F83140520642EA036291F8326042EA5C
:100A7000854242EA4444BEB300220368384E4F6BBD
:100A800044EA02425C683A4340F20F153440144392
:100A90005C60036891F840604C6CDA6844EA0624B4
:100AA000AA432243DA6091F854300A6D91F84C4021
:100AB00042EA4302ECB300240368B1F848504FF611
:100AC0000D76E7011C6F47EA05452A43344014437D
:100AD0001C67026891F8563091F8555052F8904FC3
:100AE00043EA450303E02BE032E02BE02CE024F066
:100AF00003041C43146002688C6DD2F8003D23F09F
:100B000072032343C2F8003D91F86020CC6D1AB304
:100B10005FF00003026891F8615091F8621044EAB6
:100B20008310D2F8303D2C0144EAC101084301E0B2
:100B30000CE00FE023F07B010143C2F8301DF0BD53
:100B4000012254E7012358E7012269E7012571E7F3
:100B5000012292E70124AFE70123DBE78380040051
:100B60000080F8C04FF4006000F0B9BD01A003F0B0
:100B7000C5B900004572726F725F48616E646C6542
:100B8000720D0A0000F12C02F0B5D2E9053452F8DA
:100B9000231024B1D56905B1641C002523E0012090
:100BA000F0BD0F694FF080760F60CE604E692EB1B8
:100BB0004E698E60CE6846F00076CE60CE6846F014
:100BC0000046CE60166A1EB1CE6846F08046CE6002
:100BD0009669761EAE4205D95B1C042B00D31B1F01
:100BE00052F823106D1CA542DBD30068002300F5EA
:100BF0008050C0F8281118469361F0BD704710B5B9
:100C000000EB8104E46A0AB1042903D301214165A0
:100C1000084610BD22602261E06840F08070E0600C
:100C200023B1A36040F000706361E06040F00040D9
:100C3000E060002010BD704700297DD00268126876
:100C400002F00C02CA6202681268C2F3001281F854
:100C500028200268126802F060024A620268126884
:100C600042F30022521C81F8202002681268C2F36D
:100C70004022CA770268126842F38022521C8A77A7
:100C800002681268C2F3C0224A7702681268C2F38F
:100C900000320A770268126802F400528A61026820
:100CA000126802F480424A6102681268C2F300428C
:100CB0008A740268126842F34042521C4A74026805
:100CC000126842F3C042521C0A7402681268C2F3EE
:100CD0000052CA7302681268C2F340528A730268F3
:100CE0001268C2F380524A7302681268C2F3C0529B
:100CF0000A730268126802F0E0628A600268126891
:100D0000C2F3C0620A710268126802F0E0420A602F
:100D100002685268C2F30D024A630268526842F3E5
:100D20000042521C81F8322002685268C2F34042ED
:100D300081F83120026800E062E05268C2F380422C
:100D400081F8302002685268C2F3006281F83820CE
:100D500002685268C2F34462CA630268D268C2F38E
:100D6000002281F840200268D26802F00F024A6433
:100D70000268126FC2F3400281F854200268126FB9
:100D800042F3C012521C81F84C200268126F02F02C
:100D900070020A650268126F120C8A640268D2F847
:100DA000902002F0010281F856200268D2F89020CB
:100DB000C2F3400281F855200268D2F8002D02F0FB
:100DC00072028A650268D2F8302D02F02302CA65E9
:100DD0000268D2F8302DC2F3C00281F862200268A6
:100DE000D2F8302DC2F3001281F861200068D0F8EB
:100DF000300D40F38010401C81F8600000207047E7
:100E0000012070472DE9F04300F12C0680460C4686
:100E10004FF00009D6E9057056F8275018B940463A
:100E200000F00EFA78B3002019E0696949B354B3B1
:100E300029692160D8F814106160A4681CB369693D
:100E40002160D8F814106160E9687F1C042FC1F399
:100E50000E0900D33F1FA468401C56F82750B16903
:100E6000491E8142E1D874B1EA68D8F81410C2F37F
:100E70000E02A2EB0900814206D32969C4E90010E1
:100E800011E02969DCE711E0696979B1296921601C
:100E9000D8F814106160A16841B16A690A60D8F895
:100EA0001420801A48600020BDE8F0830120FBE791
:100EB00070B500F12C040D46D4E9056111B900F0BC
:100EC000BFF968B1A069761E3044042800D3001F22
:100ED00054F82000C068C0F30E002860002070BDE8
:100EE000012070BD70B50446006800F58050D0F850
:100EF0006011490612D5D0F8340140060ED52046BF
:100F000000F09EF9012802D1204600F099FA2068ED
:100F100048F2400100F58050C0F86011206800F5EB
:100F20008050D0F86011C9070DD0D0F83401C00747
:100F300009D0204600F09EFB206848F2010100F530
:100F40008050C0F86011E026206800F58050D0F88D
:100F5000601149042AD5D0F83411490426D5616DB1
:100F600041F008016165D0F86011D0F86021C90432
:100F700010D541F2021191430AD00021A165D0F8A9
:100F8000341121F44041C0F8341184F851600AE072
:100F90000121F3E74FF4CD4131EA02020FD00022E4
:100FA000A265C0F860112046FFF728FE20680025E2
:100FB000D0F8B010C1F34131032902D00AE0012278
:100FC000EEE7D0F8B800E06584F85160204600F004
:100FD0009CF9E5652068D0F8B010C90608D5D0F8AE
:100FE000C00000F060002066204600F0F5F925669C
:100FF0002068D0F8B010890608D5D0F8C00000F0FD
:101000000F0060662046FFF716FE65664FF0B040A1
:10101000D0F8A810490206D54FF48001C0F8A810F6
:10102000204600F028FB70BDF8B5040003D094F80A
:10103000510010B104E00120F8BD204600F066F92F
:10104000232084F851007448016841F002010160D6
:10105000006800F002000090207A08B14FF4000010
:1010600001F0E6FE206800F58050016841F00101C2
:10107000016000F03BFCE02605464FF4FA7706E0FD
:1010800000F034FC401BB84201D9042049E020683C
:1010900000F580500068C007F2D12068D0F8000247
:1010A00020F4706501F094FB5C495D4A0144914273
:1010B00002D245F4007516E05A4A5B4902448A425E
:1010C00002D245F440750EE05849594A0144914214
:1010D00009D35849584A0844904202D245F48075D1
:1010E00001E045F480652068C0F8005201F070FB13
:1010F000524A2168B0FBF2F0401EC1F8DC002046E5
:10110000FFF70EFA206800F58050D0F8001121F4A6
:10111000E01141F40021C0F800116169880704D092
:101120000120606584F8516085E7206847F6FE730A
:1011300000F58050D0F808219A4342EA4101C0F8F6
:10114000081100214FEA0102E06802EB420504EBBE
:10115000820300EBC500521C042A016041608160DB
:10116000C1609861F0D3A1620323206800F580502C
:10117000C0F82C312068E26800F58050C0F81421D6
:101180002068E26800F58050C0F820215FF000027E
:10119000206902EB420604EB820500EBC600521CFC
:1011A000042A016041608160C16001614161E862BF
:1011B000EED3E16321646164E164A164206800F519
:1011C0008050C0F830312068226900F58050C0F8A6
:1011D0001C212268206902F580524830C2F828019B
:1011E0001022D4E900308088C3F80003D4E900302D
:1011F0008578C77890F801C006782D0446EA076024
:1012000045EA0C252843C3F80403616584F851209E
:1012100084F852200020F8BDF444025800D3CEFEDA
:10122000C0E1E40040F1E9FD40787D0100796CFC0B
:10123000005A6202001F0AFA80F0FA0240420F00D0
:10124000F0B5C16B0024466C2C302246234650F882
:1012500021503EB30020F0BDEE0004F1010419D589
:10126000521C012A00D10B46491C042900D3091F36
:1012700050F82140E468002C07DB640005D5012408
:10128000C461491C042900D3091F8261C0E9041309
:101290000120F0BDAD0013D50B46491C012211E021
:1012A00050F82150ED68002D01DB042CD4D34AB353
:1012B00050F8231000244FF080764FF040771FE065
:1012C000491C521C0429EBD3091FE9E70D690D6085
:1012D000CE604D690DB18D60CF60CD6845F00045A1
:1012E000CD60D0F820C0BCF1000F02D045F08045A1
:1012F000CD605B1C042B00D31B1F641C50F8231013
:101300009442E3D300218161A4E770472DE9F041C5
:10131000006886B02A4988424FD12A48016841F4C2
:1013200000410160016801F400410591016841F448
:1013300080310160016801F480310591016841F458
:1013400000310160006800250224009400F40030A0
:10135000DFF874800B266946CDE90145CDE90460CC
:101360004046039500F0C8F9032704968620694695
:101370008DE8B100154800F0BFF9302004968DE8E3
:10138000B1006946404600F0B7F9A00204968DE826
:10139000B1000F48694600F0AFF9780304968DE874
:1013A000B1000C48694600F0A7F900223D20114623
:1013B00000F042FB3D2000F031FB06B0BDE8F081BB
:1013C00000800240D8440258000802580000025829
:1013D0000004025800180258704700002DE9F0413F
:1013E000044600681E46D0F80032DB0719D1D0F859
:1013F000003223F0787343EA415121F4F81141EAB5
:10140000024141F00D01C0F8001200F06FFA4FF4F4
:101410007A77054608E000BF00F068FA401BB84242
:1014200002D90120BDE8F0812068D0F80002C00791
:10143000F2D12068D0F8040280B230600020F1E7D9
:10144000704710B519B190F85220102A01D0012030
:1014500010BDFFF7B3FA002010BD000070B50546BF
:101460000068D0F8000220F4706401F0B1F911496D
:10147000114A0144914202D244F4007416E00F4A2A
:101480000F4902448A4202D244F440740EE00D4AED
:101490000D4902448A4209D30C4A0D49104488423E
:1014A00002D244F4807401E044F480642868C0F8F7
:1014B000004270BD00D3CEFEC0E1E40040F1E9FD82
:1014C00040787D0100796CFC005A6202001F0AFA24
:1014D00080F0FA0210B590F85110102901D00120C7
:1014E00010BD232180F851101022016822230C68BE
:1014F00044F002040C6001680C6844F001040C60C4
:101500000168D1F8004D44F00104C1F8004D0168B4
:1015100001F58051D1F8044144F00104C1F80441BF
:10152000016801F58051D1F8084144F00104C1F887
:101530000841016801F58051D1F8604144F481749B
:10154000C1F8604180F8512080F85230002010BD71
:1015500090F8511061B3232180F8511010220168D6
:1015600001F58051D1F8043123F00103C1F80431B1
:10157000016801F58051D1F8083123F00103C1F869
:10158000083101680B6823F001030B600168D1F892
:10159000003D43F00103C1F8003D01680B6823F0F2
:1015A00002030B6080F8512080F852200020704721
:1015B000012070472DE9F0419046044621B194F88E
:1015C0005100102804D053E0606D40F0010007E0A6
:1015D00000222046FFF738F820B1606D40F002008D
:1015E000606545E0A06A04EB8001401C04288D6919
:1015F000A06201D3001FA0620146206804EB8101B4
:1016000000F580508969C0F8201100F06FF91027AB
:1016100006461FE0206800F58050D0F86001C00445
:101620000DD5606DE02140F008006065206800F590
:101630008050D0F86001A06584F8511018E0B8F12E
:10164000FF3F07D000F052F9811B41450AD8B8F19D
:10165000000F07D0E8680028DCDB84F85170002018
:10166000BDE8F081606D40F00400606584F8517061
:101670000120F5E77047704770B504460068D0F860
:101680000052ED071FD1D0F800029BB2124D20F09E
:101690007870C5F8043240EA415020F4F81040EA6E
:1016A000024020F00C00001D40F00100C5F80002CF
:1016B00000F01CF94FF47A76054606E000F016F9C2
:1016C000401BB04201D9012070BD2068D0F8000253
:1016D000C007F3D170BD00000080024070474FF09A
:1016E000B04110B5D1F88820024203D0C1F888007B
:1016F000FFF7F4FF10BD00002DE9F84F6F4D0022F9
:101700004FF001094FF0030E4FF00F0B0B6809FA71
:1017100002F803EA0803434574D14C68022C01D057
:10172000122C0FD1D4080E69570700EB8404A2468F
:10173000246AFF0E0BFA07FCBE4024EA0C04264381
:10174000CAF820600F79540006680EFA04FC07F00E
:10175000030726EA0C06A740374307604E68012EB0
:1017600005D0022E03D0112E01D0122E0FD1866883
:10177000CF6826EA0C06A7403743876046680F7992
:1017800026EA0806C7F30017974037434760C76843
:101790008E6827EA0C07A6403E43C6604C68E4000A
:1017A00030D5474C266846F002062660246822F0B1
:1017B000030606F1B04604F0020400949407270FD4
:1017C000D6F80844DFF8FC800BFA07FC404524EA11
:1017D0000C0402D14FF0000C41E0DFF8ECC0604592
:1017E00002D14FF0010C3AE0DFF8E0C0604502D1D1
:1017F0004FF0020C33E0DFF8D8C0604503D14FF062
:10180000030C2CE053E0DFF8CCC0604502D14FF070
:10181000040C24E0DFF8C0C0604502D14FF0050C95
:101820001DE0DFF8B8C0604502D14FF0060C16E0AD
:10183000DFF8ACC0604502D14FF0070C0FE0DFF8D5
:10184000A4C0604502D14FF0080C08E0DFF898C052
:10185000604502D14FF0090C01E04FF00A0C0CFA80
:1018600007FC4CEA040CC6F808C42C684E6824EA4D
:101870000304F60300D51C432C606C684E6824EA10
:101880000304B60300D51C436C604FF0B0444F68AE
:101890002668FF0226EA030600D51E4326604F682D
:1018A0006668BF0226EA030600D51E436660521C26
:1018B000102AFFF42BAFBDE8F88F0000800000581D
:1018C000F44402580000025800040258000802586C
:1018D000000C025800100258001402580018025858
:1018E000001C025800200258002402580148806859
:1018F00070470000440000240248816802781144C7
:101900008160704744000024032010B500F0B4F853
:10191000002000F007F808B1012010BD00F070F8B9
:10192000002010BD70B50D4D04464FF47A700C4A7E
:1019300029781268B0FBF1F0B2FBF0F001F082FA06
:1019400048B9102C07D200222146501E00F074F82E
:1019500000206C6070BD012070BD000044000024B8
:1019600050000024F0B5154C4378211D0A1D23605A
:101970000378F3B143680B60057BC67A817A437BB9
:101980002D07847B45EA0665C77B90F809C0067A77
:1019900090F800E045EAC14040EA834040EA444014
:1019A00040EA074040EA0C2040EA460040EA0E00C8
:1019B00001E0002008601060F0BD000098ED00E03C
:1019C000BFF35F8F044800210368034A23F4803388
:1019D000036070321160704724ED00E0074A40F068
:1019E0000100064970321060086840F480300860D9
:1019F000BFF34F8FBFF36F8F7047000024ED00E0FF
:101A0000054808B5016841F002010160006800F076
:101A10000200009008BD0000F4440258002809DBD1
:101A2000410900F01F028900012001F1E0219040EE
:101A3000C1F80001704700000E4BF0B41B680D4662
:101A4000C3F30223C3F10706042E00D90426191D8F
:101A5000072901D2002300E0DB1E012404FA06F16D
:101A60009C40491E2940641E994014402143F0BC0B
:101A700002F054BA0CED00E0064900F0070210B580
:101A80004FF6FF040868044B204040EA0220184348
:101A9000086010BD0CED00E00000FA0510B500F084
:101AA000DDFE08494FF480730A6893FAA3F30649F0
:101AB00002F47062B3FA83F3DA40044B9A5CD040CC
:101AC000086010BD184402585000002404D00008DB
:101AD00010B500F07DFE07491022096892FAA2F2C3
:101AE00001F07001B2FA82F2D140034A515CC84061
:101AF00010BD00002044025804D00008424A30B50E
:101B0000414D141D13681435DFED400A1268291F7A
:101B1000B7EE001A24682D6813F0030304F01004D4
:101B2000C2F30532C5F3CC0515FB04F400EE104AF0
:101B3000B8EE400A05D0364C012B5DD0022B5BD1AC
:101B400059E0314C334B283C2568AD0615D5256846
:101B50000C68C5F3C105C4F30804EB4001EE904ADC
:101B6000B3FBF2F2F8EE611A40EE201A00EE102AF2
:101B700071EE810AB8EE400A10E00C68B3FBF2F295
:101B8000C4F3080401EE904AB8EE612A01EE902AEF
:101B900000EE202AB8EE610A72EE010A0A6820EE11
:101BA000200AC2F34622521C00EE902AF8EE600A88
:101BB00080EE201AFCEEC10AC0ED000A0A68C2F3EA
:101BC0000642521C00EE902AF8EE600A80EE201ABF
:101BD000FCEEC10AC0ED010A0968C1F30661491CA7
:101BE00000EE901AF8EE600A80EE201ABCEEC10AF0
:101BF00080ED020A30BD084C0B68B4FBF2F2C3F36F
:101C0000080301EE903ABFE728440258000000396B
:101C100000093D000090D00300127A00424A30B51E
:101C2000414D141D13681C35DFED400A1268291F51
:101C3000B7EE001A24682D6813F0030304F48074CF
:101C4000C2F30552C5F3CC0515FB04F400EE104AAF
:101C5000B8EE400A05D0364C012B5DD0022B5BD18B
:101C600059E0314C334B283C2568AD0615D5256825
:101C70000C68C5F3C105C4F30804EB4001EE904ABB
:101C8000B3FBF2F2F8EE611A40EE201A00EE102AD1
:101C900071EE810AB8EE400A10E00C68B3FBF2F274
:101CA000C4F3080401EE904AB8EE612A01EE902ACE
:101CB00000EE202AB8EE610A72EE010A0A6820EEF0
:101CC000200AC2F34622521C00EE902AF8EE600A67
:101CD00080EE201AFCEEC10AC0ED000A0A68C2F3C9
:101CE0000642521C00EE902AF8EE600A80EE201A9E
:101CF000FCEEC10AC0ED010A0968C1F30661491C86
:101D000000EE901AF8EE600A80EE201ABCEEC10ACE
:101D100080ED020A30BD084C0B68B4FBF2F2C3F34D
:101D2000080301EE903ABFE728440258000000394A
:101D300000093D000090D00300127A002DE9FC5FFD
:101D4000044650F8241B002500902E460801FE4F43
:101D5000DFF8F8931DD5606E50B1B0F5801F0CD040
:101D6000B0F5001F0ED0B0F5401F1DD001250FE0CB
:101D7000386840F40030386016E00221201D01F080
:101D8000C3FB03E00098022101F03CFC05000BD0EE
:101D90002E462088C00523D5606D05281ED2DFE8B9
:101DA00000F00C11161B1B00626ED9F8001021F414
:101DB00040111143C9F80010EBE7386840F40030D7
:101DC000386009E00021201D01F09EFB03E000982F
:101DD000002101F017FC05466DB100E001252E43FE
:101DE0002088800528D5A06D80281ED00CDC90B1FD
:101DF00040280ED114E0626DD9F8001021F00701DF
:101E00001143C9F80010EBE7C02813D0B0F5807F6C
:101E100010D001250FE0386840F40030386009E048
:101E20000021201D01F070FB03E00098002101F06B
:101E3000E9FB054695B12E432088DFF81083400565
:101E400008F108082CD5D4F8A400B0F5800F20D0F4
:101E50000DDCA0B1B0F5001F0FD115E0A26DD9F8CF
:101E6000001021F4E0711143C9F80010E4E7B0F567
:101E7000C00F13D0B0F5000F10D001250FE0386867
:101E800040F40030386009E00021201D01F03CFBE7
:101E900003E00098002101F0B5FB054675B12E4323
:101EA000208800052DD5D4F8A800B0F1007F21D0FE
:101EB0000EDCA8B1B0F1807F10D116E0D4F8A420D8
:101EC000D8F8001021F460011143C8F80010E7E7CA
:101ED000B0F1407F13D0B0F1806F10D001250FE03A
:101EE000386840F40030386009E00021201D01F01E
:101EF0000BFB03E00098002101F084FB05466DB167
:101F00002E43206880011FD5A06CD8B110280FD0B7
:101F1000202812D0302815D0012514E0D4F8A820AC
:101F2000D8F8001021F0E0611143C8F80010E8E78C
:101F3000386840F40030386004E00221201D01F0D0
:101F4000E3FA05466DB12E432088C0042BD5E06D21
:101F5000B0F5005F20D00DDCA0B1B0F5805F0FD1EF
:101F600015E07A48A26C001F016821F0300111438E
:101F70000160E9E7B0F5405F13D0B0F5804F10D0B5
:101F800001250FE0386840F40030386009E0002196
:101F9000201D01F0B9FA03E00098002101F032FBA6
:101FA000054685B12E432088800429D5206EB0F5E2
:101FB000403F23D010DC08B3B0F5803F14D0B0F51B
:101FC000003F0FD115E0E26DD9F8001021F4E04197
:101FD0001143C9F80010E6E7B0F5802F0ED0B0F538
:101FE000A02F0BD001250AE00121201D01F08CFA61
:101FF00003E00098012101F005FB05468DB12E4359
:10200000208840042AD5D4F8AC00B0F1405F23D03A
:1020100010DC08B3B0F1805F14D0B0F1005F0FD1D5
:1020200015E0226ED9F8001021F4E0211143C9F81F
:102030000010E5E7B0F1804F0ED0B0F1A04F0BD00B
:1020400001250AE00121201D01F05EFA03E000985D
:10205000012101F0D7FA05466DB12E432088000416
:102060001FD5E06ED8B1B0F1805F0ED0B0F1005F47
:1020700010D0012514E0D4F8AC20D8F8001021F0DD
:10208000E0411143C8F80010E8E7386840F4003038
:10209000386004E00121201D01F036FA05466DB1DB
:1020A0002E432068C0011ED5606CD0B101280ED02F
:1020B000022811D0032814D0012513E0E26ED9F8CC
:1020C000001021F040511143C9F80010E9E73868C9
:1020D00040F40030386004E00221201D01F014FAC1
:1020E000054685B12E432068DFF85CB04002ABF1B5
:1020F0001C0B1FD51648016841F480710160FFF781
:10210000F5FB824610E01148626C001F016821F067
:10211000030111430160E6E7FFF7E8FBA0EB0A00CB
:10212000642801D9032504E009480068C005F3D5F7
:10213000C5B12E432078DFF814A0C0070AF1040AC5
:1021400079D0A06F182805E02C440258504402585A
:10215000004802586DD05BDCC0B308285ED0102860
:102160005AD161E0DFF880A4B4F8B010DAF80000CA
:1021700001F4407100F44070884211D0DAF8001088
:10218000DAF8002021F4407142F48032CAF80020CD
:10219000DAF8002022F48032CAF80020CAF80010D1
:1021A000D4F8B000B0F5807F15D1FFF79FFB019008
:1021B0000DE000BFFFF79AFB0199411A41F2883008
:1021C000814204D9032546F00306B3E731E0DAF88B
:1021D00000008007EED5D4F8B010C1F30120032829
:1021E00058460DD0016821F47C510160B4F8B0204C
:1021F000DAF80010C2F30B021143CAF8001099E795
:10220000FA4A036802EA111223F47C511143ECE705
:1022100020280ED028280CD001250BE00121201DFC
:1022200001F072F904E006E00098012101F0EAF9FA
:1022300005465DB12E43207880071ED5606F0628C5
:1022400019D2DFE800F0160C11161616A26FDAF894
:10225000001021F038011143CAF80010EBE701210A
:10226000201D01F051F903E00098012101F0CAF9A5
:10227000054675B100E001252E43207840071FD5A3
:10228000D4F89000062819D2DFE800F0160C1116D9
:102290001616626FDAF8001021F007011143CAF830
:1022A0000010EAE70121201D01F02EF903E000985B
:1022B000012101F0A7F905469DB100E001252E435B
:1022C000207880062BD5D4F88C00B0F1405F24D064
:1022D00011DC10B3B0F1805F15D0B0F1005F10D108
:1022E00016E0D4F89020D8F8001021F0070111432F
:1022F000C8F80010E4E7B0F1804F0ED0B0F1A04F65
:102300000BD001250AE00021201D01F0FDF803E0BB
:102310000098022101F076F905468DB12E43207810
:1023200040062BD5D4F89800B0F5406F24D011DCCE
:1023300010B3B0F5806F15D0B0F5006F10D116E076
:10234000D4F88C20DAF8001021F0E0411143CAF8EB
:102350000010E4E7B0F5805F0ED0B0F5A05F0BD0C1
:1023600001250AE00021201D01F0CEF803E00098CD
:10237000022101F047F905468DB12E432078000671
:102380002BD5D4F89C00B0F5C04F24D011DC10B38D
:10239000B0F5005F15D0B0F5804F10D116E0D4F83D
:1023A0009820D8F8001021F4E0511143C8F800102B
:1023B000E4E7B0F5004F0ED0B0F5204F0BD001256B
:1023C0000AE00021201D01F09FF803E0009802219F
:1023D00001F018F9054665B32E43207800070BD5A8
:1023E000D4F88010B1F5805F2DD0DAF8002022F407
:1023F00040520A43CAF800202078C0060BD5D4F812
:102400009410B1F5807F24D0D8F8002022F44072D7
:102410000A43C8F80020206800032CD5D4F8A00097
:10242000E8B1B0F5803F1FD0B0F5003F21D00125C5
:1024300020E0D4F89C20D8F8001021F4604111432A
:10244000C8F80010C9E70098022101F0DBF8064344
:10245000D2E70098022101F0D5F80643DBE700211E
:10246000201D01F051F803E00098022101F0CAF8A4
:10247000054685B12E432068400322D5D4F8840058
:10248000B0F5801F11D0B0F5001F13D0B0F5401F7C
:1024900015D0012514E0D4F8A020D8F8001021F4BC
:1024A00040311143C8F80010E5E7386840F40030C7
:1024B000386004E00098012101F0A4F8054655B108
:1024C0002E432068C0031CD5E06C70B1B0F5803F8E
:1024D00010D0012514E0D4F88420DAF8001021F49B
:1024E00040111143CAF80010EBE7386840F400309F
:1024F000386004E00221201D01F006F80546C5B150
:102500002E432068800004D50098022101F07AF85B
:102510000643206880031BD5E06FB8B1B0F5807F1B
:1025200010D0B0F5007F11D0B0F5407F0ED001255E
:102530000DE02D48E26C2438016821F4803111430C
:102540000160DEE7386840F400303860F5B32E43B0
:102550002068C00207D5226FD9F8001021F0004191
:102560001143C9F800102068C00008D5D4F8B42081
:10257000DBF8001021F480411143CBF800102068F3
:10258000800207D5A26ED9F8001021F080711143A6
:10259000C9F80010206840000CD5DBF8001021F4C9
:1025A0000041CBF80010DBF80010D4F8B82011433C
:1025B000CBF800102068002807DA0B48226D243879
:1025C000016821F040511143016000E003E07EB159
:1025D0000120BDE8FC9FE26FDAF8001021F44071A1
:1025E0001143CAF80010B3E770440258CFFFFF0050
:1025F0000020EEE72DE9F047DFF8C49104460E46CF
:10260000D9F8000000F00700B0420CD2D9F8001051
:1026100021F007013143C9F80010D9F8000000F09B
:102620000700B04272D12078DFF89881800707D583
:10263000E268D8F8001021F00F011143C8F800102B
:102640002078C00767D05F49A368D8F80020183900
:1026500022F470621A43C8F80020606802281CD077
:1026600003281DD0096801281DD04907002963DA15
:10267000544D083D296821F0070101432960FFF707
:1026800035F96168074641F28830022914D00329E0
:1026900020D0012982462AD039E009688903E5E77C
:1026A00009688901E2E7C905E0E700BFFFF71EF905
:1026B000C11B514501D926E082462868C0F3C200FB
:1026C0000228F3D127E000BFFFF710F9C11B5145E5
:1026D00001D918E082462868C0F3C2000328F3D16C
:1026E00019E000BFFFF702F9C11B51450BD828685C
:1026F000C0F3C2000128F5D10DE000BFFFF7F6F8E6
:10270000C11B514503D90320BDE8F08714E02868B8
:1027100010F0380FF2D1D9F80010484601F0070147
:10272000B1420BD9016821F0070131430160006813
:1027300000F00700B04201D00120E5E72078400713
:1027400007D52269D8F8001021F070011143C8F8AC
:10275000001021781B48001D090705D56269016832
:1027600021F07001114301602178C90605D5A269E5
:10277000016821F4E061114301602078800607D5EB
:102780001048E2690830016821F0700111430160CE
:1027900000F064F8D8F800104FF4807292FAA2F2B8
:1027A00001F47061B2FA82F2D140074A515CC8402C
:1027B000064908600020FFF7B5F80020A4E70000F4
:1027C000002000521844025804D000085000002491
:1027D00010B5FFF763F9084901230A6893FAA3F3D8
:1027E000064902F00F02B3FA83F3DA40044B9A5C15
:1027F000D040086010BD0000184402585400002466
:1028000004D0000810B5FFF7E3FF0749102209685C
:1028100092FAA2F201F07001B2FA82F2D140034AB8
:10282000515CC84010BD00001C44025804D0000890
:1028300010B5FFF7CDFF07494FF48072096892FA8F
:10284000A2F201F4E061B2FA82F2D140024A515C94
:10285000C84010BD1C44025804D000084749F0B5D8
:1028600047480968454B103B11F0380409D0011165
:10287000082C04D0C210102C0BD0182C0BD00846FA
:10288000F0BD19688906FBD51968C1F3C101C840BC
:10289000F0BD1046F0BD394CDFF8E0C01834261DFD
:1028A0000CF1240C2768351D2468DFED360AB7EEDD
:1028B000001A3668DCF800C017F0030706F00106BE
:1028C000C4F30514CCF3CC0C1CFB06F600EE106A26
:1028D000B8EE400A09D0012F01D0022F3BD0286862
:1028E000B1FBF4F1C0F308003AE01968890615D588
:1028F0001A682968C2F3C102C1F30801D04001EE91
:10290000901AB0FBF4F0F8EE611A40EE201A00EED7
:10291000100A71EE810AB8EE400A0BE02968B0FB9C
:10292000F4F0C1F3080101EE901AB8EE612A01EE4D
:10293000900A1BE020EE200A2868C0F34620401CC5
:1029400000EE900AF8EE600A80EE201ABCEEC10A92
:1029500010EE100AF0BD2868B2FBF4F1C0F30800D5
:1029600001EE900AB8EE612A01EE901A00EE202ADC
:10297000B8EE610A72EE010ADCE70000104402586A
:102980000090D003000000392DE9F047FF4C0546C8
:102990000078DFF8F883103CFC4FC00708F11808F6
:1029A0004CD03868C0F3C20002281AD03868C0F38F
:1029B000C200032805D1D8F8000000F00300022867
:1029C0000FD06868B0F5803F12D010B1B0F5A02FDD
:1029D00018D0206820F480302060206820F4802007
:1029E00009E02068800329D56868002876D025E0B2
:1029F000206840F480302060686890B1FEF776FF70
:102A000006460AE0206840F480202060F0E700BF1E
:102A1000FEF76CFF801B64287ED820688003F7D502
:102A20000CE0FEF763FF064605E000BFFEF75EFF21
:102A3000801B6428F0D820688003F7D42878D34E10
:102A40000C3E80075DD538684FF47C3A10F0380FA3
:102A500013D03868C0F3C200032803D1D8F80000AF
:102A600080070AD0E868C0B3216821F0190101434A
:102A70002160FEF73BFF814620E02068400702D539
:102A8000E8680028B2D0E968206820F019000843FF
:102A90002060FEF72BFF814606E000BFFEF726FF11
:102AA000A0EB09000228B7D820684007F6D508E057
:102AB000FEF71CFFA0EB09000228ADD820684007F4
:102AC000F6D5286932689AFAAAF1B1FA81F18840FC
:102AD00022F47C310143316013E000E0AAE0206879
:102AE00020F001002060FEF701FF814606E000BFF4
:102AF000FEF7FCFEA0EB090002288DD820684007F5
:102B0000F6D42878C00649D538684FF0F84AC0F3A3
:102B1000C200012817D000E0DAE03868C0F3C20034
:102B2000032805D1D8F8000000F0030001280AD0DE
:102B3000E8690028206822D040F080002060FEF77D
:102B4000D5FE81460CE02068C0050CD5E8698028D8
:102B500070D108E0FEF7CAFEA0EB09000228A2D857
:102B60002068C005F6D5286A32689AFAAAF1B1FA47
:102B700081F1884022F0F841014331600EE020F0FD
:102B800080002060FEF7B2FE064604E0FEF7AEFECF
:102B9000801B022887D82068C005F7D42878000752
:102BA00029D57A486969643000298146016811D0C5
:102BB00041F001010160FEF799FE064605E000BF05
:102BC000FEF794FE801B022897D8D9F800008007F2
:102BD000F6D510E021F001010160FEF787FE064600
:102BE00005E000BFFEF782FE801B022870D8D9F8EE
:102BF00000008007F6D42878800625D5A86900282B
:102C0000206810D040F480502060FEF76FFE06462A
:102C100005E000BFFEF76AFE801B022858D8206836
:102C20008004F7D510E020F480502060FEF75EFEAF
:102C3000064606E0D7E000BFFEF758FE801B0228DC
:102C400046D820688004F7D4287840074FD5DFF8AD
:102C50004091D9F8001041F48071C9F80010FEF7D6
:102C600045FE064605E000BFFEF740FE801B6428D7
:102C70002ED8D9F80000C005F6D5444EA8686036B5
:102C800001280AD008B1052813D0306820F00100CF
:102C90003060306820F0040002E0306840F001004D
:102CA0003060A86841F2883A98B1FEF71FFE81466D
:102CB0000AE0306840F004003060EEE7FEF716FEF0
:102CC000A0EB0901514503D830688007F6D50EE026
:102CD00088E0FEF70BFE814606E000BFFEF706FE29
:102CE000A0EB090151457DD830688007F6D4686AA9
:102CF000E8B33968C1F3C201032974D002282068FF
:102D000020F08070206003D0FEF7F0FD054685E0DE
:102D1000FEF7ECFD064604E0FEF7E8FD801B022806
:102D200079D820688001F7D4EB6A40F2F332D8F802
:102D300000104FF4FE0755F8286F914341EA031144
:102D40003143C8F80010287B4FF0FE4C0F4EB5F809
:102D5000088040022B8A20362A7DA8F10108311D07
:102D6000A0F5007080B25B1EC8F3080800E058E0D0
:102D7000521E07EA034340EA080018434FF6F8736F
:102D80000CEA0262104330600A6803E01044025803
:102D90000048025893FAA3F72E6A24489A43B7FAD8
:102DA00087F7BE4032430A600168AA6921F00C012E
:102DB000114301600168EA6921F0020111430160D9
:102DC000016841F480310160016841F40031016023
:102DD000016841F480210160016841F00101016056
:102DE000206801E017E01EE040F080702060FEF7F0
:102DF0007DFD054605E000BFFEF778FD401B02287B
:102E000009D820688001F7D50BE000BFFEF76EFD02
:102E1000401B022802D90320BDE8F087206880010A
:102E2000F4D40020F8E70120F6E700002C44025813
:102E300003490A6822F4600202430A6070470000F6
:102E400004040058401EB0F1807F10B501D301206A
:102E500010BD4FF0E02460610F21601701F05EF8B3
:102E60000020A0610721216110BD10B5040003D02E
:102E700094F8790010B107E0012010BD002084F81B
:102E80007800204600F026F8242084F87900206895
:102E9000016821F001010160204600F087FD012852
:102EA000EBD0606B10B1204600F0EEFC206841686A
:102EB00021F4904141602068816821F02A018160FD
:102EC0002068016841F0010101602046BDE8104022
:102ED00000F03EBD10B586B0044614216846FDF7EB
:102EE00043FA13492068884220D11248016841F012
:102EF00010010160006800F0100005900D481038C6
:102F0000016841F00101016000680723022200F01E
:102F10000100059000204FF4C06100916946CDE9A1
:102F20000120CDE903030448FEF7E6FB06B010BD1F
:102F300000100140F0440258000002582DE9F84307
:102F4000044690F879001F4616460D4620284ED1BB
:102F5000C5B1BEB194F87800012848D0012284F8A8
:102F6000782021214FF00008C4F87C8084F8791083
:102F70006034FEF7BBFC268081466680603C4FF4DF
:102F8000805619E00120BDE8F88300BFB4F8620064
:102F9000401EA4F8620000224B4680212046009784
:102FA00000F078FFA0B9A068B04201D1206988B1D3
:102FB00015F8010B21680885B4F862000028E5D1F6
:102FC00000224B4640212046009700F063FF38B1B5
:102FD0000320D8E735F8020B2168C0F30800EAE7C0
:102FE000202184F87910002084F87880CBE7022033
:102FF000C9E7FEE738B504466A4600200090012183
:1030000063692068984700286FF0040525DB636931
:10301000012120686A46984700281EDB0098400777
:1030200001D4012038BD6369002120686A469847B1
:10303000002812DB0098C10408D44FF404518143E6
:103040001CD081041CD4C0051CD415E063691F2169
:1030500020686A469847002801DA284638BD00985B
:10306000C10401D4062038BDC0F38200062805D073
:10307000022805D0052805D0052038BD022038BD1E
:10308000032038BD042038BD2DE9F8430446002054
:103090000090064660680025B8BBA06800B1804774
:1030A000202020606FF00407636912216A463046D1
:1030B0009847002801DA3D4607E0009800F01F001D
:1030C000B04202D10025266002E0761C1F2EEBD90B
:1030D00020681F2802D96FF002053BE045BB236939
:1030E00000214FF400429847002824DB6369002147
:1030F00020686A46984700281BDBA06980474FF488
:10310000FA7806466FF001090EE017E0A0698047E3
:10311000801B404507D86369002120686A469847AC
:10312000002801DA05E04D4600980004EED42DB1E8
:1031300010E03D460EE06FF003050BE0A06980470C
:103140004FF4FA670646A0698047801BB842FAD957
:10315000012060602846BDE8F88388B1CA687AB16A
:103160008A686AB10A695AB10A6882604A68C260AC
:10317000CA6842618A6802610969816100207047FA
:103180004FF0FF30704700002DE9F0411D46174613
:103190000E464FF00004F8B120E000BF57F82400BD
:1031A00010A1FDF70FF9B0B955F824000EA1FDF7F5
:1031B00009F980B155F824000CA1FDF703F950B1CD
:1031C00055F824000AA1FDF7FDF820B155F82400B8
:1031D00008A1FDF7F7F8641CB442DFD306A0BDE8F0
:1031E000F08100006C6564003100000032000000D6
:1031F00033000000340000002F53544D3332483761
:1032000078784C45442E68746D6C00007FB5FEF7ED
:10321000D7FB01258DF80F5000248DF80E400720B4
:103220008DF8080003268DF80B60174968468DF865
:1032300000508DF80D408DF80A4001918DF8014045
:103240008DF809408DF80C40FEF78CFB0D208DF8B1
:1032500008008DF80F4068468DF80B608DF80E5011
:103260000A498DF800508DF80D408DF80A40019103
:103270008DF801508DF809408DF80C40FEF772FB77
:103280000420FEF7ABFB7FBD00000430004004309B
:1032900000B587B014216846FDF766F8224801683A
:1032A00041F480710160016801F480710591016849
:1032B00041F080010160016801F080010591016821
:1032C00041F004010160016801F004010591016809
:1032D00041F001010160016801F0010105910168FF
:1032E00041F002010160016801F0020105910168ED
:1032F00041F040010160006800220C4900F04000EC
:1033000005904FF400608DE8070009486946FEF714
:10331000F3F9002228201146FEF78EFB2820FEF745
:103320007DFB07B000BD0000E04402580000211101
:1033300000200258FEB54E4CC022A823251D0120B6
:1033400022706E266370FF21A0700027E6702E1D8C
:1033500029706970A970EF7032707370B070F0707E
:1033600004F072F92088A178E27844BA414B90FACF
:1033700090FC240490FA90FE44EA01244FEA0C4C9D
:103380004CEA012C14431FFA8CFC40BA4FEA0E4E53
:1033900024064EEA0121C0B2114344EA0C2C364CFB
:1033A0004CEA002040EA1160A5F11001086028886D
:1033B000A978EA7845BA90FA90FC2D0445EA0125EF
:1033C0004FEA0C4C15434CEA012C90FA90FE1FFA80
:1033D0008CFC2D0645EA0C2540BA4FEA0E4C4CEA0F
:1033E0000121C0B2114345EA002040EA1160A6F174
:1033F000100108603088B178F27845BA46BA2D04D9
:1034000090FA90FC360445EA012546EA0126154368
:1034100040BAB6B24FEA0C4C2D064CEA0121C0B2BC
:10342000114345EA062545EA002040EA11601049AB
:10343000091F08600097CDE901430B460F480A1F9A
:10344000083904F0E5FC0D4804F086FD0B4890F8BF
:103450002F004007094802D504F0E3FD01E004F025
:1034600081FD03B006490548BDE8F04004F0ACBD5D
:1034700020000024C94D0008F14F00081401002469
:10348000F54E000870B50B4801F0F6FD05F046FD5D
:10349000084DFEF72BFA084C2168401A642807D320
:1034A000FEF724FA20602846BDE8704001F0DCBC3D
:1034B00070BD000014010024100000240F480021FA
:1034C00010B50D4C0C224FF4E1330460C0E901311A
:1034D000C160C0E904128161C1610162416281621F
:1034E000C16201634163FFF7C0FC002803D0BDE85F
:1034F0001040FDF73BBB10BD0010014054020024FA
:10350000FEE77047704700002DE9F0473C4E044647
:1035100089464FF0000A3068C04380070AD0384D12
:10352000283D286820F080602860FEF7DFF9074614
:10353000A84608E00120BDE8F08700BFFEF7D6F9F5
:10354000C01B022855D8D8F800000001F6D4206826
:1035500031684FF4FE0C4FF0FE4721F47C3141EA14
:1035600000303060207AA688A3894002244D761E60
:1035700023495B1E227C1035091DA0F5007080B226
:10358000521EC6F3080630430CEA0343184307EA09
:103590000262104328600868626920F0C00010438E
:1035A00008600868A26920F0200010430860B9F1A3
:1035B000000F11D00868B9F1010F11D040F40010CC
:1035C0000860D8F80000444640F08060C8F8000069
:1035D000FEF78CF905460EE0086840F40020EFE79E
:1035E00040F48010ECE700BFFEF780F9401B022892
:1035F00001D903209FE720680001F5D550469AE7DE
:10360000284402582DE9F0473C4E044689464FF0C5
:10361000000A3068C04380070AD0384D283D28682A
:1036200020F080502860FEF761F90746A84608E0C0
:103630000120BDE8F08700BFFEF758F9C01B022843
:1036400055D8D8F800008000F6D4208831684FF4AF
:10365000FE0C4FF0FE4721F07C7141EA00503060D3
:10366000207AA688A3894002244D761E23495B1E3A
:10367000227C1835091DA0F5007080B2521EC6F3D9
:10368000080630430CEA0343184307EA026210437A
:1036900028600868626920F4406010430860086888
:1036A000A26920F4007010430860B9F1000F11D036
:1036B0000868B9F1010F11D040F080700860D8F8A7
:1036C0000000444640F08050C8F80000FEF70EF9B4
:1036D00005460EE0086840F48000EFE740F4000083
:1036E000ECE700BFFEF702F9401B022801D90320D6
:1036F0009FE720688000F5D550469AE72844025895
:103700000E49002070B50860BFF34F8F081F43F6C5
:10371000FF7300680A4DC0F34E31C0F3C90203EADB
:103720004114104644EA80762E60401EFAD2491EAB
:10373000F5D2BFF34F8FBFF36F8F70BD84ED00E004
:1037400074EF00E07047FEF7D7B8000070B5CCB05A
:103750004C212FA8FCF708FE202142A8FCF704FE0C
:10376000BC216846FCF700FE2448016821F00401F2
:10377000016022480C300024016841F4404101609E
:10378000016801F440414A9101688904FCD50DF1BA
:10379000E40C0522C023022038908CE80D003C90F8
:1037A00008263D90C1033E900125CDE93F64419438
:1037B0002FA8CDE92F51FFF7E7F808B1FDF7D6F9AB
:1037C00040203F210301CDE945600322CDE94703B5
:1037D00042AB499042A883E816000421FEF70AFF95
:1037E00008B1FDF7C3F9009568461E94FEF7A6FAE6
:1037F000002801D0FDF7BAF94CB070BD0C48025852
:103800001D4AF0B51D49146800201C4B44F4700497
:10381000146010330A681A4C42F001020A60186002
:103820000D68164A25400D601832131D1C1D134DDE
:103830001060283518602A1D2060131D1C1D28608B
:10384000251D10602A1D1860131D20601C1D286096
:103850001060186020600A680124084B064FE606D5
:10386000084D6033803F22F480220A601860C5F85A
:1038700008413E60F0BD000088ED00E000440258C1
:103880007FEDF6EA0080005190F83410C90706D0A9
:103890000168836B4A6822F400321A434A6090F848
:1038A0003410890706D50168C36B4A6822F4803258
:1038B0001A434A6090F83410490706D50168036C32
:1038C0004A6822F480221A434A6090F834100907AB
:1038D00006D50168436C4A6822F400421A434A60E4
:1038E00090F83410C90606D50168836C8A6822F402
:1038F00080521A438A6090F83410890606D5016810
:10390000C36C8A6822F400521A438A6090F834101B
:10391000490611D50168036D4A6822F480121A43E2
:103920004A60016DB1F5801F06D10168436D4A6898
:1039300022F4C0021A434A6090F83410090606D5F2
:103940000168826D486820F4002010434860704789
:10395000F8B500260446C667FDF7C8FF054620688F
:103960006FF07E470068000708D500222B464FF411
:1039700000112046009700F08DFA60B920680068B9
:1039800040070AD500222B464FF4800120460097BD
:1039900000F080FA08B10320F8BD202084F87900F7
:1039A00084F8786084F87A000020F8BD2DE9F04FA3
:1039B00004460268816887B0C369D4E90465806AF7
:1039C0003143F84E1D4313682943DFF8DC93084365
:1039D0008025334000210343136020680F46E368CD
:1039E000426822F440521A4342602368A0694B4562
:1039F00001D0226A1043A26AB2F1005F03D1D4E978
:103A00000B2632431043D3F808C0DFF8A083E84EFA
:103A1000E84A0CEA080C4CEA000CC3F808C020681D
:103A2000D4F824C0C36A23F00F0343EA0C03C36233
:103A30002068B04210D1126802F03802182A74D0FF
:103A400005DCCAB3082A7AD0102A47D179E0202AA7
:103A50007BD0282A7CD17AE0D74B984209D11268D2
:103A600002F00702062A73D2DFE802F053696B6D99
:103A70006F71D24B984209D1126802F00702062AF0
:103A800066D2DFE802F0465C5E606264CC4B98422E
:103A900009D1126802F00702062A59D2DFE802F0C3
:103AA000394F51535557C74B98420BD1126802F00A
:103AB0000702062A4CD200E00EE0DFE802F02A40BE
:103AC00042444648C04B984209D1126802F038027D
:103AD000182A38D0BBDCB4E74FF0010538E0BB4B07
:103AE000984209D1126802F00702062A30D2DFE8B4
:103AF00002F01026282A2C2EB54B98420BD11268C2
:103B000002F00702062A23D2DFE802F003191B1D88
:103B10001F2100251CE048451AD1A64A121D126833
:103B200002F00702062A13D202E00CE007E00CE0E4
:103B3000DFE802F0030507090B0D022508E0042564
:103B400006E0402504E0082502E0102500E02025DD
:103B5000A04EDFF884A24845DFF880B27DD1102D59
:103B600031D006DC022D09D0042D0AD0082D2FD12A
:103B700011E0202D29D0402D2AD107E0FDF7A8FF24
:103B800013E06846FDF7BAFF01980EE003A8FEF7C0
:103B900045F8049809E0DBF800005946800610D586
:103BA0000968C1F3C1012AFA01F0002811D0616847
:103BB000894601EB410181420AD8B0EB093F07D8A1
:103BC00008E05046F3E78648F1E74FF40040EEE79F
:103BD000012759E1102D4FF000085BD006DC022DC3
:103BE00011D0042D20D0082D04D13AE0202D57D03B
:103BF000402D1ED001277B4AA0F540719142E7D8A5
:103C00002168C86040E1FDF763FF626A0023414616
:103C100036F81220FCF75EFB6268090241EA106187
:103C2000034650081B0216E06846FDF767FF01983F
:103C300003E003A8FDF7F2FF04980023616A36F859
:103C400011201946FCF746FB626803461D0E50081A
:103C50001B0245EA0121181800E036E041EB08019B
:103C600014E0DBF800005946800609D509680023F6
:103C7000C1F3C1012AFA01F0616A36F8112015E09A
:103C8000606A002336F8102050460FE00023FCF74E
:103C900021FBB0E7606A002336F81020504805E0A9
:103CA000606A002336F810204FF400400021FCF732
:103CB00011FB02464FEA5900130E120210184A4631
:103CC00043EA012141EB0801E0E7E3694FF40042D8
:103CD000934257D1082D2BD005DC95B1012D13D07F
:103CE000042D06D118E0102D3DD0202D43D0402DBD
:103CF00018D00127226821F00F00C1F342010843C8
:103D00009CE0FEF77FFD01E0FEF792FD0146606A50
:103D100036F8102060682BE06846FDF7EFFE626A17
:103D2000019922E003A8FDF779FF626A04991CE07B
:103D3000DBF800105846626A890608D5036836F831
:103D400012206068C3F3C1032AFA03F110E036F8C9
:103D500012206068BAFBF2F1490001EB5001B1FB9F
:103D6000F0F081B2C6E71E49626A606836F8122038
:103D7000B1FBF2F1F0E7616A606836F81110B2FB4E
:103D8000F1F1E9E7082D5BD02EDC55B1012D46D0CD
:103D9000042D7FF41DAF6846FDF7B0FE626A0199FD
:103DA0002DE039E0F369FFCF000C0058FFF4FF115C
:103DB00000100140544402580044004000480040B4
:103DC000004C0040005000400014014000780040CA
:103DD000007C0040ECCF00080090D0030044025863
:103DE00000093D00FFFC0F00102D3ED0202D3FD0DC
:103DF000402DCED103A8FDF711FF626A0499D4E9E2
:103E0000003036F81220B1FBF2F101EB5001B1FBAA
:103E1000F0F080B2D86037E0FEF7F4FC01E0FEF786
:103E200007FD0146606A36F81030D4E90020B1FB86
:103E3000F3F101EB5001B1FBF0F080B2D06023E070
:103E4000DBF800205946636A920608D50D68616860
:103E500036F81330C5F3C1042AFA04F20CE036F840
:103E600013306168BAFBF3F208E0094A636A00E0C4
:103E7000636A616836F81330B2FBF3F202EB510269
:103E8000B2FBF1F189B2C16007B03846BDE8F08FEE
:103E900000093D002DE9F041984617460E460446BC
:103EA000069D1DE0681C1BD02DB1FDF71FFDA0EB8A
:103EB0000800A84214D92168202000220B6823F4AE
:103EC000D0730B6021688B6823F001038B6084F84A
:103ED000790084F87A00032084F87820BDE8F08126
:103EE0002068C06936EA000004D00020B842D9D06A
:103EF0000020F3E70120F9E7FEE700000FB4054BCF
:103F000010B503A9044A029800F028F810BC5DF827
:103F100014FB0000095100081001002409070028C3
:103F20004FEA116104DB00F1E02080F800147047D3
:103F300000F00F0000F1E02080F8141D704702E04F
:103F400008C8121F08C1002AFAD170477047002024
:103F500001E001C1121F002AFBD170472DE9FF4F7C
:103F60008BB09A460F460546002606E025280BD062
:103F700052460D9990476D1C761C28780028F5D183
:103F80000FB03046BDE8F08F0024A0460122604902
:103F900000E0044315F8013F203B02FA03F0084219
:103FA000F7D128782E2817D115F8010F44F0040412
:103FB0002A280ED06FF02F022878A0F130010929AD
:103FC0000AD808EB880102EB410100EB01086D1CE7
:103FD000F2E757F8048B6D1C287869283ED006DC80
:103FE0000028CDD063280BD0642804D136E0732894
:103FF00010D075284BD052460D999047761C85E01D
:1040000017F8040B8DF8000000208DF80100E94638
:10401000012003E057F8049B4FF0FF3061074FF099
:10402000000401D40AE0641C44450DDA8442FADB42
:1040300019F804100029F6D106E0641C8442FCDB68
:1040400019F804100029F8D1264404E019F8010BEE
:1040500052460D999047641EF8D257E001CF4FF0B9
:104060000A0B002802DA40422D2102E0210504D586
:104070002B218DF82410012103E0E10705D0202138
:10408000F7E70DF1200908910CE00021F9E701CFD5
:104090004FF00A0BF9E75946FCF7BEF901F130027F
:1040A00009F8012D0028F6D1ADEB090000F1200B35
:1040B000600701D44FF00108D84502DDA8EB0B00E2
:1040C00000E000208046002406E009A85246005D7A
:1040D0000D999047641C761C08988442F5DB04E037
:1040E000302052460D999047761CB8F10001A8F196
:1040F0000108F5DC05E019F8010B52460D999047CF
:10410000761CBBF10001ABF1010BF4DC6D1C34E754
:104110000928010010B504464068804720682246FF
:10412000BDE81040014904F01FBF00001541000820
:1041300070B50C460546880706D006A34FF4CE722C
:1041400010A118A0FFF7DAFEA86800682060A86830
:10415000046070BD2E2E2F4D6964646C65776172AA
:1041600065732F54686972645F50617274792F4C63
:104170007749502F7372632F636F72652F6D656D72
:10418000702E63006D656D705F667265653A206DB7
:10419000656D2070726F7065726C7920616C6967F3
:1041A0006E656400417373657274696F6E202225B9
:1041B0007322206661696C6564206174206C696E8D
:1041C0006520256420696E2025730A0010B580687B
:1041D0000468002C0CD02168A207016006D005A35A
:1041E0004FF4A4720FA118A0FFF788FE204610BD5F
:1041F000002010BD2E2E2F4D6964646C65776172AE
:1042000065732F54686972645F50617274792F4CC2
:104210007749502F7372632F636F72652F6D656DD1
:10422000702E63006D656D705F6D616C6C6F633ACD
:10423000206D656D702070726F7065726C79206191
:104240006C69676E65640000417373657274696FB1
:104250006E2022257322206661696C65642061747A
:10426000206C696E6520256420696E2025730A0024
:1042700070B50A4D0024064604EB440005EBC0006F
:10428000017D29B18068B04202D1204600F034F9A6
:10429000641CE4B20A2CEFD370BD0000283C00245B
:1042A0002DE9F74F84B04FF00A0B00240646DA469A
:1042B0005F46D94602940194009404EB44004F49B0
:1042C0000A2F039001EBC00898F8145016D0002D67
:1042D00024D0012D08D0022D06D249A340F2251288
:1042E00055A165A0FFF70AFE66B13168D8F8040051
:1042F000814207D160B207B0BDE8F08F002DE8D150
:1043000067B20BE0012D17D0022D07D3B8F81200C9
:104310000099884202D34FFA84FA0090641CE4B2F8
:104320000A2CCAD3059881074FF0FF30E3D40A2F37
:1043300018D01ADAFCB242E03048039950F8310044
:104340000028B8F8120006D002998842E6D34FFA46
:1043500084F90290E2E701998842DFD34FFA84FBA7
:104360000190DBE70599C907C5D0BAF10A0F0FDA4A
:104370000AF0FF04214804EB440150F8310090B1E9
:104380001FA340F26F1246A13BA0FFF7B7FD0AE062
:10439000BBF10A0F02DA0BF0FF0404E0B9F10A0FD7
:1043A000A9DA09F0FF040A2C06D315A340F2811202
:1043B00041A131A0FFF7A2FD204600F09DF80A2C94
:1043C00006D30FA340F285123BA12BA0FFF796FD69
:1043D0000A4804EB440100EBC105287D30B108A375
:1043E0004FF4C37239A124A0FFF788FD0EB13068E5
:1043F0006860002160B269827DE70000283C0024EB
:104400002E2E2F4D6964646C6577617265732F542D
:10441000686972645F50617274792F4C7749502FCC
:104420007372632F636F72652F697076342F6574B2
:10443000686172702E6300007374617465203D3D85
:10444000204554484152505F53544154455F5045B4
:104450004E44494E47207C7C207374617465203E35
:104460003D204554484152505F53544154455F5399
:104470005441424C45000000417373657274696F8A
:104480006E2022257322206661696C656420617448
:10449000206C696E6520256420696E2025730A00F2
:1044A0006172705F7461626C655B695D2E71203D45
:1044B0003D204E554C4C000069203C204152505F3D
:1044C0005441424C455F53495A4500006172705F48
:1044D0007461626C655B695D2E7374617465203D07
:1044E0003D204554484152505F53544154455F4527
:1044F0004D5054590000000070B5074C00EB4005CA
:10450000002654F8350018B104F0E2F944F835609B
:1045100004EBC500067570BD283C00242DE9F0436E
:104520000D00074685B009D07C684FF4807820885C
:10453000404539D12079062836D109E01CA34FF433
:10454000227229A12CA0FFF7D9FC05B0BDE8F083A9
:104550006079042828D16088082825D1D4F80E0075
:1045600004906868A16920B1814202D101263346D6
:1045700001E000260223284604F1080204A991461E
:1045800000F094FBE08840450ED16EB1022228462F
:1045900004AB291DCDE90232CDE9001905F129034B
:1045A0004A46194600F084FA384604F091F9CCE7FF
:1045B0002E2E2F4D6964646C6577617265732F547C
:1045C000686972645F50617274792F4C7749502F1B
:1045D0007372632F636F72652F697076342F657401
:1045E000686172702E6300006E6574696620213DFB
:1045F000204E554C4C000000417373657274696F16
:104600006E2022257322206661696C6564206174C6
:10461000206C696E6520256420696E2025730A0070
:10462000FEB5040015460E4606D141A340F21B32EA
:104630004DA151A0FFF762FC36B93DA34FF447727C
:1046400057A14DA0FFF75AFC35B939A340F21D32EE
:1046500056A149A0FFF752FC2868214601F0D6FF79
:1046600008B1564B3CE02868C0F303110E2922D054
:10467000D4E901210A400140914208D080B2A0F55E
:104680007E41A93903D0E068A0B304F10C054C4A7F
:104690004C49107800EB400301EBC3031F7D022F50
:1046A0002CD32F685B689F4228D1024631462046B2
:1046B00000F08AF8FEBD01228DF8042000208DF85C
:1046C00005005E218DF80610687801AB00F07F00D0
:1046D0008DF80700A8788DF80800E8788DF80900B3
:1046E0004FF4006004F1290231460090204600F0AA
:1046F00003FCFEBDFFE76FF00300FAE75FF0000088
:1047000000EB400301EBC3031F7D022F06D32F688C
:104710005B689F4202D1C0B21070C6E7401C40B235
:104720000A28EDDB32462946204600F0D5F8E0E7BE
:104730002E2E2F4D6964646C6577617265732F54FA
:10474000686972645F50617274792F4C7749502F99
:104750007372632F636F72652F697076342F65747F
:10476000686172702E6300006E6574696620213D79
:10477000204E554C4C000000417373657274696F94
:104780006E2022257322206661696C656420617445
:10479000206C696E6520256420696E2025730A00EF
:1047A0007120213D204E554C4C0000006970616421
:1047B000647220213D204E554C4C000014D000085E
:1047C00004010024283C00242DE9F84315468846BE
:1047D00006461C4802EB450100EBC104207D02287F
:1047E00006D219A34FF43B7225A131A0FFF786FB37
:1047F000144A05EB4501207D02EBC1050C3502286A
:1048000013D1608A0327B0F58E7F04D9211D30466D
:1048100000F006FA07E0B0F5877F06D3211D2A468F
:10482000304600F003FA00B927754FF4006006F136
:1048300029022B4641460090304600F05DFBBDE862
:10484000F8830000283C00242E2E2F4D6964646CF0
:104850006577617265732F54686972645F50617225
:1048600074792F4C7749502F7372632F636F726581
:104870002F697076342F6574686172702E63000042
:104880006172705F7461626C655B6172705F6964B4
:10489000785D2E7374617465203E3D204554484117
:1048A00052505F53544154455F535441424C45006C
:1048B000417373657274696F6E20222573222066BE
:1048C00061696C6564206174206C696E6520256483
:1048D00020696E2025730A002DE9FC5F824614468C
:1048E00029300190086888464FF0FF364FF0000BE2
:1048F000514601F08BFE002828D1D8F80000C0F303
:1049000003110E2922D0B8F1000F1FD000281DD0AE
:10491000012152464046FFF7C3FC070018D439492D
:1049200007EB470901EBC905287D002812D00128B3
:1049300008D0022806D234A340F2C73240A14AA0D0
:10494000FFF7DCFABBF1000F0AD108E06FF00F00AF
:10495000BDE8FC9FC5F808A00121297500E034B925
:104960004146504600F05CF9002C0646F0D0287D08
:10497000DFF8908002280DD345484FF4006105F11F
:104980000C0307705046019A0091214600F0B4FADA
:10499000064635E0012833D14FF47B7625466889F9
:1049A0002989884207D1286828B117A3324639A13E
:1049B0002DA0FFF7A3FA287B01280ED02989002219
:1049C000022003F03DFB050018D0214603F0FCFD5A
:1049D00058B1284603F07CFF10E02D68002DDED191
:1049E0002546204604F096F945B158F8390008B13B
:1049F00003F06EFF002648F8395001E04FF0FF3613
:104A00003046A5E7283C00242E2E2F4D6964646CA7
:104A10006577617265732F54686972645F50617263
:104A200074792F4C7749502F7372632F636F7265BF
:104A30002F697076342F6574686172702E63000080
:104A40006172705F7461626C655B695D2E73746125
:104A50007465203D3D2050454E44494E47206F72BD
:104A600020535441424C4500417373657274696F21
:104A70006E2022257322206661696C656420617452
:104A8000206C696E6520256420696E2025730A00FC
:104A9000040100246E6F207061636B657420717572
:104AA0006575657320616C6C6F776564210000002B
:104AB0002DE9FF4F81B0984606004FF00007DDE971
:104AC0000FA9DDF838B006D12BA34FF48B6238A1C3
:104AD0003BA0FFF713FA00221C21022003F0B0FADA
:104AE000050046D068891C2806D223A340F2634201
:104AF0003DA133A0FFF702FA6C68119802F0A2FD05
:104B0000E08096F82800062806D044491AA32CA075
:104B100040F26A42FFF7F2F9D8F800100623A160CC
:104B20004FF48071B8F80400A081DAF80020C4F8CE
:104B300012200822BAF80400E082DBF80000C4F872
:104B40000E00D9F80000A0610420218040F6060183
:104B50006280237160713046DDE9022300912946AD
:104B600000F0CAF9284603F0B3FE384605B0BDE8A8
:104B7000F08F4FF0FF30F9E72E2E2F4D6964646CF3
:104B80006577617265732F54686972645F506172F2
:104B900074792F4C7749502F7372632F636F72654E
:104BA0002F697076342F6574686172702E6300000F
:104BB0006E6574696620213D204E554C4C00000006
:104BC000417373657274696F6E20222573222066AB
:104BD00061696C6564206174206C696E6520256470
:104BE00020696E2025730A00636865636B20746812
:104BF00061742066697273742070627566206361E7
:104C00006E20686F6C6420737472756374206574B1
:104C1000686172705F6864720000000000E601085D
:104C2000014A00F003B8000014D000087FB5064D1B
:104C30000124031DCDE90214CDE9003525331946C1
:104C4000FFF736FF04B070BD1AD0000870B5164DDE
:104C50005FF0000404EB440005EBC001087DF0B1F7
:104C60004A8A521C92B24A82B2F5967F0AD2012831
:104C700006D003280AD004280AD001280BD00EE061
:104C8000052A08D32046FFF737FC08E0042000E09F
:104C90000220087503E08868091DFFF7C1FF641C46
:104CA000E4B20A2CD6D370BD283C0024F8B50446E3
:104CB00090F828001F46154606280E4606D020A369
:104CC00040F2AB122CA135A0FFF718F99EB3306863
:104CD00088B3214601F09AFC68BB3078C0F303101A
:104CE0000E2829D0224639463046FFF7D9FA002847
:104CF00020DB344A00EB4001022302EBC1000375C4
:104D0000002384602E68C660AE880682438252F813
:104D1000316076B142F831304FF400602B4604F137
:104D2000290231460090204600F0E6F8304603F0B4
:104D3000CFFD0020F8BDFFE76FF00F00FAE700009D
:104D40002E2E2F4D6964646C6577617265732F54E4
:104D5000686972645F50617274792F4C7749502F83
:104D60007372632F636F72652F697076342F657469
:104D7000686172702E6300006E657469662D3E680E
:104D800077616464725F6C656E203D3D20455448D8
:104D90005F4857414444525F4C454E004173736530
:104DA0007274696F6E2022257322206661696C65BA
:104DB00064206174206C696E6520256420696E2012
:104DC00025730A00283C002470B5044640890D462E
:104DD0000E283CD9606801788689CA0714D0012959
:104DE00005D020490622FBF7FBFA48B10CE04178D8
:104DF00051B980785E2807D1607B40F0100002E056
:104E0000607B40F008006073082E6FF00D0103D046
:104E1000B6F5C16F1BD10FE095F82F00000716D52E
:104E200060890E2813DB204603F010FE78B929466E
:104E3000204601F02DFD12E095F82F00000706D561
:104E400060890E2803DB204603F000FE18B12046DF
:104E500003F03EFD03E029462046FFF75FFB0020FC
:104E600070BD000014D0000870B50025064620482B
:104E70009AB02C46FEF7BEF896F82F1049070DD5CC
:104E8000012809D81A48EC38FCF762FB304603F0D9
:104E900069F8304603F09CF81AB070BD0128FBD9C0
:104EA00002284FF400514FF4804206D0032805D069
:104EB000042805D00528EFD103E00C46154600E094
:104EC0000C460B486946EC38FBF7B6FE08486946C5
:104ED000CDE90554EC38FCF7B4FA0548EC38FCF79A
:104EE000F9FA304603F09DF8304603F07EF8D3E738
:104EF00034020024704700002DE9F0411F4690461F
:104F00000E460446069802F09DFB0E2105463046EB
:104F100003F09CFD18B16FF00100BDE8F0817068EE
:104F2000858139680160B9888180D8F80020C0F88F
:104F30000620B8F80410418194F82800062806D00D
:104F400006A340F22B1213A11FA0FEF7D7FFA26900
:104F500031462046BDE8F041104700002E2E2F4D6F
:104F60006964646C6577617265732F5468697264F3
:104F70005F50617274792F4C7749502F7372632F91
:104F80006E657469662F65746865726E65742E63EC
:104F9000000000006E657469662D3E687761646488
:104FA000725F6C656E206D757374206265203620AB
:104FB000666F722065746865726E65745F6F757474
:104FC0007075742100000000417373657274696F1D
:104FD0006E2022257322206661696C6564206174ED
:104FE000206C696E6520256420696E2025730A0097
:104FF00010B5040006D10BA340F21B220EA112A093
:10500000FEF77CFF1A49732061611A49A16174217E
:1050100084F83000204684F8311002F01BFA00209A
:1050200010BD00002E2E2F5372632F6574686572B9
:105030006E657469662E63006E6574696620213D35
:10504000204E554C4C000000417373657274696FBB
:105050006E2022257322206661696C65642061746C
:10506000206C696E6520256420696E2025730A0016
:1050700021460008DD75000870B5054602F07CFA8F
:1050800004000BD02A692946904710B1204603F04E
:105090001FFCBDE870400248FBF774BD70BD000006
:1050A000480100242DE9F047814691B1087880B18C
:1050B00000250C464FEA0506A04609EB8507204669
:1050C00026213C63FBF76DF930B100F8016B044613
:1050D00009E00020BDE8F08720214046FBF761F998
:1050E00000B1067000243D214046FBF75AF918B183
:1050F0000670411C396700E03E676D1C102D01DA17
:10510000002CD9D12846E5E713B5044801224FF613
:10511000FF736946FDF712FF00981CBD540200247E
:10512000D0E90110081A70477047000070B50500FB
:105130000E4602D00EB10D4C08E06FF00F0070BDAE
:1051400061683046FBF73EF920B12468002CF7D1A6
:10515000A01F70BDA16800202960E1686960E16856
:10516000C5E90210207C2874002070BDA0E301086E
:105170002DE9F041040006D138A340F2FB2245A1FD
:1051800047A0FEF7BBFEE46A34B934A340F2FD2227
:105190004DA143A0FEF7B2FE4E4D286890B1A8681D
:1051A00080B1686870B1002604F1110707E0A868B3
:1051B00050F826103846FBF705F988B1761C686868
:1051C0008642F4DB04F111000646FBF7F4F8A72849
:1051D00004D23046FBF7EFF809280AD9092012E07B
:1051E0002B68C02204F11A0130469847E081BDE8DF
:1051F000F0813046FBF7DFF8A72803D23046FBF7F3
:10520000DAF800E0A720074604F11A00122205464A
:1052100031A1FBF790F804F12C003A463146FBF738
:105220008AF832A1E0193E230E680022C6628988FE
:10523000018680F8323080F833202846FBF7BBF82F
:10524000B0F5803F054606D304A340F2363229A1CB
:1052500013A0FEF753FEE581C9E700002E2E2F4D67
:105260006964646C6577617265732F5468697264F0
:105270005F50617274792F4C7749502F7372632F8E
:10528000617070732F68747470642F6874747064C4
:105290002E630000687320213D204E554C4C0000C9
:1052A000417373657274696F6E20222573222066C4
:1052B00061696C6564206174206C696E6520256489
:1052C00020696E2025730A0073736920213D204EEA
:1052D000554C4C00580000243C623E2A2A2A554E68
:1052E0004B4E4F574E205441472000002A2A2A3C5B
:1052F0002F623E006C656E203C3D2030786666660D
:105300006600000070B50D4622BB1DB30121284682
:1053100006F0FCFDB02002F0F1FA04001DD0B0212F
:10532000FBF722F821462846E56104F021F80C49F4
:10533000284606F03FFB0B49284604F08BFB0A4940
:105340000422284605F034FD0849284606F08EFD63
:10535000002070BD6FF0050070BD4FF0FF3070BDD4
:10536000F9590008A5540008C1590008D55E000885
:1053700070B5054648690C4620B1FFF7D1FE0028FC
:1053800005DC2146284600F08BF8002070BD04A300
:1053900040F2834210A11EA0FEF7B0FD012070BDB7
:1053A0002E2E2F4D6964646C6577617265732F547E
:1053B000686972645F50617274792F4C7749502F1D
:1053C0007372632F617070732F68747470642F68C8
:1053D000747470642E63000053534920616E64201E
:1053E00044594E414D49435F48454144455253203D
:1053F0007475726E6564206F6666206275742065D0
:105400006F66206E6F74207265616368656400006A
:10541000417373657274696F6E2022257322206652
:1054200061696C6564206174206C696E6520256417
:1054300020696E2025730A00002200F001B80000E8
:1054400070B516460C460021054603F091FF002179
:10545000284606F0AFFA0021284604F0FBFA0022A5
:105460002846114605F0A4FC0021284606F0FEFC63
:1054700014B1204600F02AFE28461EB103F0E4FED7
:10548000002070BD04F00AF8040004D0034904228F
:10549000284605F08DFC204670BD0000C15900086B
:1054A000FFF7CABF002801D000F010BE704700000F
:1054B0002DE9F74F82B081460025A8460398FAF7F8
:1054C0007AFFB8B303990A1812F8012C2F2A3CD19D
:1054D000DFF87CB1DFF87CA1594502D1012805D065
:1054E00033E0421E3F2A03D93F2603E000260AE0AC
:1054F000160008D056483246FAF71DFF00210F4625
:105500000BF8061001E0002715E0A6B1D6F13F0424
:105510000ED05AF83700FAF74EFF844200D22046E8
:105520005AF837100BEB060302461846FAF703FF4A
:10553000474C02E009E05AF8374048462146FFF759
:10554000F5FDA8B17F1C052FDFD303983F21FAF7A3
:1055500028FF050002D0002005F8010B3E4C4FF05B
:10556000FF3060612069B8B1E068A8B1002610E0A2
:105570000AEBC70003945FEA090490F80480E4D0C2
:105580005BE0E06850F836100398FAF71BFFD0B1E3
:10559000761C20698642F4DB03994846FFF7C6FD76
:1055A00018B303A9484600F05DF80446E4B3039835
:1055B0002AA1FAF7E4FE060001D00020307003981B
:1055C00027A1824617E029464846FFF76BFD606138
:1055D0000146E06809F1700309F1300200EBC600F2
:1055E00044683046A0470390D6E74C46DEE7421CAD
:1055F00082461BA11046FAF7C2FE0028F7D1DFF859
:1056000054B080464746ABF1100B00BF5BF8271043
:10561000504602F029F840B17F1C042FF6D30EB19A
:105620003F20307004B108E002E04FF00108F6E7D7
:1056300003A9484600F016F804464846CDE900851F
:10564000DDE90332214600F039F805B0BDE8F08FFE
:10565000D406002438D00008580000243F00000081
:105660002E00000070B50C4605460BA12160FFF727
:105670005DFD70B10BA128462160FFF757FD40B1D9
:105680000BA128462160FFF751FD10B100202060DA
:1056900070BD284670BD00002F3430342E68746D04
:1056A0006C0000002F3430342E68746D0000000050
:1056B0002F3430342E7368746D6C00002DE9F04186
:1056C000044606980E0090464FF0000744D088B17B
:1056D000DC2002F013F905000CD0DC21FAF744FEBF
:1056E000AF8185F8DB70306828607068A86030682A
:1056F0006860E56266613068A0617068002806DA5B
:1057000019A340F6CF0226A12DA0FEF7F7FB706883
:10571000606284F828706069007CC00706D112A31B
:1057200040F6DE0230A126A0FEF7E8FBB8F1000F3C
:1057300017D06069007CC00713D0626A35A1A069E8
:1057400001F0AAFF68B1A169626A401A001D014414
:10575000A161101A606204E06761A761676284F862
:1057600028700020BDE8F0812E2E2F4D6964646CF6
:105770006577617265732F54686972645F506172F6
:1057800074792F4C7749502F7372632F6170707347
:105790002F68747470642F68747470642E630000D2
:1057A00046696C65206C656E677468206D757374EE
:1057B00020626520706F736974697665210000004E
:1057C000417373657274696F6E202225732220669F
:1057D00061696C6564206174206C696E6520256464
:1057E00020696E2025730A00485454502068656172
:1057F00064657273206E6F7420696E636C75646586
:105800006420696E2066696C652073797374656DB8
:10581000000000000D0A0D0A000000002DE9F05FF5
:1058200004000E4606D141A340F27E724DA150A065
:10583000FEF764FB36B93DA340F27F7256A14CA03F
:10584000FEF75CFB706908B9B06918B16FF007002A
:10585000BDE8F09F306AA8B1214602F013FE204651
:1058600003F058FA306A016871B1058940F2FF31DE
:105870008D4200D30D464B4900232A4602F09AFF81
:10588000484F03E03462EAE7658967686FF00F0B01
:10589000072D3BD344A12A46384601F0FDFEA8B3AC
:1058A00004224FF0000841A13846FAF7A6FDC2468F
:1058B00010B187F804A036E0281F80B2FC1C814696
:1058C0003CA10246381D01F0E7FE30B9601C4A4693
:1058D00035A101F0E1FE4FF00108011BA1F101012A
:1058E0001FFA81F990B1A04210D933A12A46384657
:1058F00001F0D2FE50B1611C84F800A0424630464F
:1059000001F809A0BDE8F05FFFF7D2BD306A02F0F0
:1059100051FE316A0989B1F5806F04D2052802D899
:105920006FF0040094E7584692E700002E2E2F4DAA
:105930006964646C6577617265732F546869726419
:105940005F50617274792F4C7749502F7372632FB7
:10595000617070732F68747470642F6874747064ED
:105960002E6300007020213D204E554C4C0000005D
:10597000417373657274696F6E20222573222066ED
:1059800061696C6564206174206C696E65202564B2
:1059900020696E2025730A00687320213D204E5532
:1059A0004C4C0000D40200240D0A0000474554204E
:1059B00000000000200000000D0A0D0A0000000099
:1059C00010B50C46010012D091F82800401CC0B25E
:1059D00081F8280004280AD0486930B1204600F038
:1059E0009DF810B1204604F051FE002010BD204665
:1059F000FFF722FDF9E700002DE9F04116460F46BA
:105A0000054663B136B13189384606F035F830467F
:105A100002F05EFF29463846FFF70EFD0CE0002E2F
:105A2000F8D0002DEFD03189384606F025F86869A6
:105A300028B1304602F04CFF0020BDE8F0813A4624
:105A400029463046FFF7EAFE04000ED0601D12D052
:105A500014F1100F09D014F1080F06D00CA340F672
:105A6000B41219A123A0FEF749FA286A18B102F06E
:105A70002FFF00202862304602F02AFF14B11034B4
:105A8000C8D0D9E72946384600F048F8D4E70000E6
:105A90002E2E2F4D6964646C6577617265732F5487
:105AA000686972645F50617274792F4C7749502F26
:105AB0007372632F617070732F68747470642F68D1
:105AC000747470642E630000687474705F70617227
:105AD00073655F726571756573743A20756E65786C
